{
  "_format": "hh-sol-artifact-1",
  "contractName": "BabyCowz",
  "sourceName": "contracts/BabyCowz.sol",
  "abi": [
    {
      "inputs": [],
      "stateMutability": "nonpayable",
      "type": "constructor"
    },
    {
      "anonymous": false,
      "inputs": [
        {
          "indexed": true,
          "internalType": "address",
          "name": "owner",
          "type": "address"
        },
        {
          "indexed": true,
          "internalType": "address",
          "name": "approved",
          "type": "address"
        },
        {
          "indexed": true,
          "internalType": "uint256",
          "name": "tokenId",
          "type": "uint256"
        }
      ],
      "name": "Approval",
      "type": "event"
    },
    {
      "anonymous": false,
      "inputs": [
        {
          "indexed": true,
          "internalType": "address",
          "name": "owner",
          "type": "address"
        },
        {
          "indexed": true,
          "internalType": "address",
          "name": "operator",
          "type": "address"
        },
        {
          "indexed": false,
          "internalType": "bool",
          "name": "approved",
          "type": "bool"
        }
      ],
      "name": "ApprovalForAll",
      "type": "event"
    },
    {
      "anonymous": false,
      "inputs": [
        {
          "indexed": false,
          "internalType": "address",
          "name": "owner",
          "type": "address"
        },
        {
          "indexed": false,
          "internalType": "uint256",
          "name": "amount",
          "type": "uint256"
        }
      ],
      "name": "Claimed",
      "type": "event"
    },
    {
      "anonymous": false,
      "inputs": [
        {
          "indexed": false,
          "internalType": "address",
          "name": "owner",
          "type": "address"
        },
        {
          "indexed": false,
          "internalType": "uint256",
          "name": "tokenId",
          "type": "uint256"
        },
        {
          "indexed": false,
          "internalType": "uint256",
          "name": "value",
          "type": "uint256"
        }
      ],
      "name": "NFTStaked",
      "type": "event"
    },
    {
      "anonymous": false,
      "inputs": [
        {
          "indexed": false,
          "internalType": "address",
          "name": "owner",
          "type": "address"
        },
        {
          "indexed": false,
          "internalType": "uint256",
          "name": "tokenId",
          "type": "uint256"
        },
        {
          "indexed": false,
          "internalType": "uint256",
          "name": "value",
          "type": "uint256"
        }
      ],
      "name": "NFTUnstaked",
      "type": "event"
    },
    {
      "anonymous": false,
      "inputs": [
        {
          "indexed": true,
          "internalType": "address",
          "name": "previousOwner",
          "type": "address"
        },
        {
          "indexed": true,
          "internalType": "address",
          "name": "newOwner",
          "type": "address"
        }
      ],
      "name": "OwnershipTransferred",
      "type": "event"
    },
    {
      "anonymous": false,
      "inputs": [
        {
          "indexed": true,
          "internalType": "address",
          "name": "from",
          "type": "address"
        },
        {
          "indexed": true,
          "internalType": "address",
          "name": "to",
          "type": "address"
        },
        {
          "indexed": true,
          "internalType": "uint256",
          "name": "tokenId",
          "type": "uint256"
        }
      ],
      "name": "Transfer",
      "type": "event"
    },
    {
      "inputs": [
        {
          "components": [
            {
              "internalType": "uint24",
              "name": "tokenId",
              "type": "uint24"
            },
            {
              "internalType": "uint48",
              "name": "timestamp",
              "type": "uint48"
            },
            {
              "internalType": "address",
              "name": "owner",
              "type": "address"
            }
          ],
          "internalType": "struct BabyCowz.Stake",
          "name": "_stake",
          "type": "tuple"
        }
      ],
      "name": "_calculateRewards",
      "outputs": [
        {
          "internalType": "uint256",
          "name": "",
          "type": "uint256"
        }
      ],
      "stateMutability": "view",
      "type": "function"
    },
    {
      "inputs": [
        {
          "internalType": "address",
          "name": "to",
          "type": "address"
        },
        {
          "internalType": "uint256",
          "name": "tokenId",
          "type": "uint256"
        }
      ],
      "name": "approve",
      "outputs": [],
      "stateMutability": "nonpayable",
      "type": "function"
    },
    {
      "inputs": [
        {
          "internalType": "address",
          "name": "owner",
          "type": "address"
        }
      ],
      "name": "balanceOf",
      "outputs": [
        {
          "internalType": "uint256",
          "name": "",
          "type": "uint256"
        }
      ],
      "stateMutability": "view",
      "type": "function"
    },
    {
      "inputs": [],
      "name": "baseExtension",
      "outputs": [
        {
          "internalType": "string",
          "name": "",
          "type": "string"
        }
      ],
      "stateMutability": "view",
      "type": "function"
    },
    {
      "inputs": [],
      "name": "baseURI",
      "outputs": [
        {
          "internalType": "string",
          "name": "",
          "type": "string"
        }
      ],
      "stateMutability": "view",
      "type": "function"
    },
    {
      "inputs": [
        {
          "internalType": "uint256",
          "name": "_tokenId",
          "type": "uint256"
        }
      ],
      "name": "claim",
      "outputs": [],
      "stateMutability": "nonpayable",
      "type": "function"
    },
    {
      "inputs": [
        {
          "internalType": "address",
          "name": "account",
          "type": "address"
        },
        {
          "internalType": "uint256",
          "name": "_tokenId",
          "type": "uint256"
        }
      ],
      "name": "claimForAddress",
      "outputs": [],
      "stateMutability": "nonpayable",
      "type": "function"
    },
    {
      "inputs": [],
      "name": "cost",
      "outputs": [
        {
          "internalType": "uint256",
          "name": "",
          "type": "uint256"
        }
      ],
      "stateMutability": "view",
      "type": "function"
    },
    {
      "inputs": [
        {
          "internalType": "uint256",
          "name": "_tokenId",
          "type": "uint256"
        }
      ],
      "name": "earningInfo",
      "outputs": [
        {
          "internalType": "uint256",
          "name": "info",
          "type": "uint256"
        }
      ],
      "stateMutability": "view",
      "type": "function"
    },
    {
      "inputs": [
        {
          "internalType": "uint256",
          "name": "tokenId",
          "type": "uint256"
        }
      ],
      "name": "getApproved",
      "outputs": [
        {
          "internalType": "address",
          "name": "",
          "type": "address"
        }
      ],
      "stateMutability": "view",
      "type": "function"
    },
    {
      "inputs": [
        {
          "internalType": "address",
          "name": "owner",
          "type": "address"
        },
        {
          "internalType": "address",
          "name": "operator",
          "type": "address"
        }
      ],
      "name": "isApprovedForAll",
      "outputs": [
        {
          "internalType": "bool",
          "name": "",
          "type": "bool"
        }
      ],
      "stateMutability": "view",
      "type": "function"
    },
    {
      "inputs": [],
      "name": "maxMintAmount",
      "outputs": [
        {
          "internalType": "uint256",
          "name": "",
          "type": "uint256"
        }
      ],
      "stateMutability": "view",
      "type": "function"
    },
    {
      "inputs": [],
      "name": "maxPerWallet",
      "outputs": [
        {
          "internalType": "uint256",
          "name": "",
          "type": "uint256"
        }
      ],
      "stateMutability": "view",
      "type": "function"
    },
    {
      "inputs": [],
      "name": "maxSupply",
      "outputs": [
        {
          "internalType": "uint256",
          "name": "",
          "type": "uint256"
        }
      ],
      "stateMutability": "view",
      "type": "function"
    },
    {
      "inputs": [
        {
          "internalType": "address",
          "name": "_to",
          "type": "address"
        },
        {
          "internalType": "uint256",
          "name": "_mintAmount",
          "type": "uint256"
        }
      ],
      "name": "mint",
      "outputs": [],
      "stateMutability": "payable",
      "type": "function"
    },
    {
      "inputs": [],
      "name": "name",
      "outputs": [
        {
          "internalType": "string",
          "name": "",
          "type": "string"
        }
      ],
      "stateMutability": "view",
      "type": "function"
    },
    {
      "inputs": [],
      "name": "notFoundIndex",
      "outputs": [
        {
          "internalType": "uint24",
          "name": "",
          "type": "uint24"
        }
      ],
      "stateMutability": "view",
      "type": "function"
    },
    {
      "inputs": [],
      "name": "owner",
      "outputs": [
        {
          "internalType": "address",
          "name": "",
          "type": "address"
        }
      ],
      "stateMutability": "view",
      "type": "function"
    },
    {
      "inputs": [
        {
          "internalType": "uint256",
          "name": "tokenId",
          "type": "uint256"
        }
      ],
      "name": "ownerOf",
      "outputs": [
        {
          "internalType": "address",
          "name": "",
          "type": "address"
        }
      ],
      "stateMutability": "view",
      "type": "function"
    },
    {
      "inputs": [
        {
          "internalType": "address",
          "name": "_account",
          "type": "address"
        }
      ],
      "name": "ownersCow",
      "outputs": [
        {
          "internalType": "uint24",
          "name": "",
          "type": "uint24"
        }
      ],
      "stateMutability": "view",
      "type": "function"
    },
    {
      "inputs": [],
      "name": "parentContract",
      "outputs": [
        {
          "internalType": "contract IERC721",
          "name": "",
          "type": "address"
        }
      ],
      "stateMutability": "view",
      "type": "function"
    },
    {
      "inputs": [
        {
          "internalType": "bool",
          "name": "_state",
          "type": "bool"
        }
      ],
      "name": "pause",
      "outputs": [],
      "stateMutability": "nonpayable",
      "type": "function"
    },
    {
      "inputs": [],
      "name": "paused",
      "outputs": [
        {
          "internalType": "bool",
          "name": "",
          "type": "bool"
        }
      ],
      "stateMutability": "view",
      "type": "function"
    },
    {
      "inputs": [
        {
          "internalType": "address",
          "name": "_user",
          "type": "address"
        }
      ],
      "name": "removeWhitelistUser",
      "outputs": [],
      "stateMutability": "nonpayable",
      "type": "function"
    },
    {
      "inputs": [],
      "name": "renounceOwnership",
      "outputs": [],
      "stateMutability": "nonpayable",
      "type": "function"
    },
    {
      "inputs": [
        {
          "internalType": "address",
          "name": "from",
          "type": "address"
        },
        {
          "internalType": "address",
          "name": "to",
          "type": "address"
        },
        {
          "internalType": "uint256",
          "name": "tokenId",
          "type": "uint256"
        }
      ],
      "name": "safeTransferFrom",
      "outputs": [],
      "stateMutability": "nonpayable",
      "type": "function"
    },
    {
      "inputs": [
        {
          "internalType": "address",
          "name": "from",
          "type": "address"
        },
        {
          "internalType": "address",
          "name": "to",
          "type": "address"
        },
        {
          "internalType": "uint256",
          "name": "tokenId",
          "type": "uint256"
        },
        {
          "internalType": "bytes",
          "name": "data",
          "type": "bytes"
        }
      ],
      "name": "safeTransferFrom",
      "outputs": [],
      "stateMutability": "nonpayable",
      "type": "function"
    },
    {
      "inputs": [
        {
          "internalType": "address",
          "name": "operator",
          "type": "address"
        },
        {
          "internalType": "bool",
          "name": "approved",
          "type": "bool"
        }
      ],
      "name": "setApprovalForAll",
      "outputs": [],
      "stateMutability": "nonpayable",
      "type": "function"
    },
    {
      "inputs": [
        {
          "internalType": "string",
          "name": "_newBaseExtension",
          "type": "string"
        }
      ],
      "name": "setBaseExtension",
      "outputs": [],
      "stateMutability": "nonpayable",
      "type": "function"
    },
    {
      "inputs": [
        {
          "internalType": "string",
          "name": "_newBaseURI",
          "type": "string"
        }
      ],
      "name": "setBaseURI",
      "outputs": [],
      "stateMutability": "nonpayable",
      "type": "function"
    },
    {
      "inputs": [
        {
          "internalType": "uint256",
          "name": "_newCost",
          "type": "uint256"
        }
      ],
      "name": "setCost",
      "outputs": [],
      "stateMutability": "nonpayable",
      "type": "function"
    },
    {
      "inputs": [
        {
          "internalType": "uint256",
          "name": "_newMaxMintAmount",
          "type": "uint256"
        }
      ],
      "name": "setMaxMintAmount",
      "outputs": [],
      "stateMutability": "nonpayable",
      "type": "function"
    },
    {
      "inputs": [
        {
          "internalType": "uint256",
          "name": "_newMaxPerWallet",
          "type": "uint256"
        }
      ],
      "name": "setMaxPerWallet",
      "outputs": [],
      "stateMutability": "nonpayable",
      "type": "function"
    },
    {
      "inputs": [
        {
          "internalType": "address",
          "name": "_parentAddress",
          "type": "address"
        }
      ],
      "name": "setParentAddress",
      "outputs": [],
      "stateMutability": "nonpayable",
      "type": "function"
    },
    {
      "inputs": [
        {
          "internalType": "uint256",
          "name": "_tokenId",
          "type": "uint256"
        }
      ],
      "name": "stake",
      "outputs": [],
      "stateMutability": "nonpayable",
      "type": "function"
    },
    {
      "inputs": [
        {
          "internalType": "bytes4",
          "name": "interfaceId",
          "type": "bytes4"
        }
      ],
      "name": "supportsInterface",
      "outputs": [
        {
          "internalType": "bool",
          "name": "",
          "type": "bool"
        }
      ],
      "stateMutability": "view",
      "type": "function"
    },
    {
      "inputs": [],
      "name": "symbol",
      "outputs": [
        {
          "internalType": "string",
          "name": "",
          "type": "string"
        }
      ],
      "stateMutability": "view",
      "type": "function"
    },
    {
      "inputs": [
        {
          "internalType": "uint256",
          "name": "index",
          "type": "uint256"
        }
      ],
      "name": "tokenByIndex",
      "outputs": [
        {
          "internalType": "uint256",
          "name": "",
          "type": "uint256"
        }
      ],
      "stateMutability": "view",
      "type": "function"
    },
    {
      "inputs": [
        {
          "internalType": "address",
          "name": "owner",
          "type": "address"
        },
        {
          "internalType": "uint256",
          "name": "index",
          "type": "uint256"
        }
      ],
      "name": "tokenOfOwnerByIndex",
      "outputs": [
        {
          "internalType": "uint256",
          "name": "",
          "type": "uint256"
        }
      ],
      "stateMutability": "view",
      "type": "function"
    },
    {
      "inputs": [
        {
          "internalType": "uint256",
          "name": "tokenId",
          "type": "uint256"
        }
      ],
      "name": "tokenURI",
      "outputs": [
        {
          "internalType": "string",
          "name": "",
          "type": "string"
        }
      ],
      "stateMutability": "view",
      "type": "function"
    },
    {
      "inputs": [],
      "name": "totalStaked",
      "outputs": [
        {
          "internalType": "uint256",
          "name": "",
          "type": "uint256"
        }
      ],
      "stateMutability": "view",
      "type": "function"
    },
    {
      "inputs": [],
      "name": "totalSupply",
      "outputs": [
        {
          "internalType": "uint256",
          "name": "",
          "type": "uint256"
        }
      ],
      "stateMutability": "view",
      "type": "function"
    },
    {
      "inputs": [
        {
          "internalType": "address",
          "name": "from",
          "type": "address"
        },
        {
          "internalType": "address",
          "name": "to",
          "type": "address"
        },
        {
          "internalType": "uint256",
          "name": "tokenId",
          "type": "uint256"
        }
      ],
      "name": "transferFrom",
      "outputs": [],
      "stateMutability": "nonpayable",
      "type": "function"
    },
    {
      "inputs": [
        {
          "internalType": "address",
          "name": "newOwner",
          "type": "address"
        }
      ],
      "name": "transferOwnership",
      "outputs": [],
      "stateMutability": "nonpayable",
      "type": "function"
    },
    {
      "inputs": [
        {
          "internalType": "uint256",
          "name": "_tokenId",
          "type": "uint256"
        }
      ],
      "name": "unstake",
      "outputs": [],
      "stateMutability": "nonpayable",
      "type": "function"
    },
    {
      "inputs": [
        {
          "internalType": "uint256",
          "name": "",
          "type": "uint256"
        }
      ],
      "name": "vault",
      "outputs": [
        {
          "internalType": "uint24",
          "name": "tokenId",
          "type": "uint24"
        },
        {
          "internalType": "uint48",
          "name": "timestamp",
          "type": "uint48"
        },
        {
          "internalType": "address",
          "name": "owner",
          "type": "address"
        }
      ],
      "stateMutability": "view",
      "type": "function"
    },
    {
      "inputs": [
        {
          "internalType": "address",
          "name": "_owner",
          "type": "address"
        }
      ],
      "name": "walletOfOwner",
      "outputs": [
        {
          "internalType": "uint256[]",
          "name": "",
          "type": "uint256[]"
        }
      ],
      "stateMutability": "view",
      "type": "function"
    },
    {
      "inputs": [
        {
          "internalType": "address",
          "name": "_user",
          "type": "address"
        }
      ],
      "name": "whitelistUser",
      "outputs": [],
      "stateMutability": "nonpayable",
      "type": "function"
    },
    {
      "inputs": [
        {
          "internalType": "address",
          "name": "",
          "type": "address"
        }
      ],
      "name": "whitelisted",
      "outputs": [
        {
          "internalType": "bool",
          "name": "",
          "type": "bool"
        }
      ],
      "stateMutability": "view",
      "type": "function"
    },
    {
      "inputs": [],
      "name": "withdraw",
      "outputs": [],
      "stateMutability": "payable",
      "type": "function"
    }
  ],
  "bytecode": "0x60806040526040518060400160405280600581526020017f2e6a736f6e000000000000000000000000000000000000000000000000000000815250600c90816200004a9190620004a9565b506000600d556107d0600e556001600f5560016010556001601160006101000a81548160ff0219169083151502179055506000601560006101000a81548162ffffff021916908362ffffff160217905550348015620000a857600080fd5b506040518060400160405280600881526020017f42616279436f777a0000000000000000000000000000000000000000000000008152506040518060400160405280600581526020017f62434f575a0000000000000000000000000000000000000000000000000000008152508160009081620001269190620004a9565b508060019081620001389190620004a9565b5050506200015b6200014f6200016160201b60201c565b6200016960201b60201c565b62000590565b600033905090565b6000600a60009054906101000a900473ffffffffffffffffffffffffffffffffffffffff16905081600a60006101000a81548173ffffffffffffffffffffffffffffffffffffffff021916908373ffffffffffffffffffffffffffffffffffffffff1602179055508173ffffffffffffffffffffffffffffffffffffffff168173ffffffffffffffffffffffffffffffffffffffff167f8be0079c531659141344cd1fd0a4f28419497f9722a3daafe3b4186f6b6457e060405160405180910390a35050565b600081519050919050565b7f4e487b7100000000000000000000000000000000000000000000000000000000600052604160045260246000fd5b7f4e487b7100000000000000000000000000000000000000000000000000000000600052602260045260246000fd5b60006002820490506001821680620002b157607f821691505b602082108103620002c757620002c662000269565b5b50919050565b60008190508160005260206000209050919050565b60006020601f8301049050919050565b600082821b905092915050565b600060088302620003317fffffffffffffffffffffffffffffffffffffffffffffffffffffffffffffffff82620002f2565b6200033d8683620002f2565b95508019841693508086168417925050509392505050565b6000819050919050565b6000819050919050565b60006200038a620003846200037e8462000355565b6200035f565b62000355565b9050919050565b6000819050919050565b620003a68362000369565b620003be620003b58262000391565b848454620002ff565b825550505050565b600090565b620003d5620003c6565b620003e28184846200039b565b505050565b5b818110156200040a57620003fe600082620003cb565b600181019050620003e8565b5050565b601f82111562000459576200042381620002cd565b6200042e84620002e2565b810160208510156200043e578190505b620004566200044d85620002e2565b830182620003e7565b50505b505050565b600082821c905092915050565b60006200047e600019846008026200045e565b1980831691505092915050565b60006200049983836200046b565b9150826002028217905092915050565b620004b4826200022f565b67ffffffffffffffff811115620004d057620004cf6200023a565b5b620004dc825462000298565b620004e98282856200040e565b600060209050601f8311600181146200052157600084156200050c578287015190505b6200051885826200048b565b86555062000588565b601f1984166200053186620002cd565b60005b828110156200055b5784890151825560018201915060208501945060208101905062000534565b868310156200057b578489015162000577601f8916826200046b565b8355505b6001600288020188555050505b505050505050565b615d2f80620005a06000396000f3fe6080604052600436106102c95760003560e01c80635c975abb11610175578063a22cb465116100dc578063d936547e11610095578063e268e4d31161006f578063e268e4d314610b10578063e985e9c514610b39578063f2fde38b14610b76578063fa5afe4014610b9f576102c9565b8063d936547e14610a81578063da3ef23f14610abe578063db82655314610ae7576102c9565b8063a22cb46514610973578063a694fc3a1461099c578063b88d4fde146109c5578063c6682862146109ee578063c87b56dd14610a19578063d5abeb0114610a56576102c9565b806381a36fb61161012e57806381a36fb61461083957806382bb4817146108785780638da5cb5b146108a35780638df860dc146108ce57806395d89b411461090b578063987e659514610936576102c9565b80635c975abb146107275780636352211e146107525780636c0360eb1461078f57806370a08231146107ba578063715018a6146107f7578063817b1cd21461080e576102c9565b80632e17de781161023457806342842e0e116101ed578063453c2310116101c7578063453c23101461066d5780634a4c560d146106985780634f6ccce7146106c157806355f804b3146106fe576102c9565b806342842e0e146105de578063438b63001461060757806344a0d68a14610644576102c9565b80632e17de78146105005780632f745c591461052957806330cc7ae014610566578063379607f51461058f5780633ccfd60b146105b857806340c10f19146105c2576102c9565b80630d1f0175116102865780630d1f0175146103ee57806313faede61461042b57806318160ddd14610456578063230b9da314610481578063239c70ae146104ac57806323b872dd146104d7576102c9565b806301ffc9a7146102ce57806302329a291461030b57806306fdde0314610334578063081812fc1461035f578063088a4ed01461039c578063095ea7b3146103c5575b600080fd5b3480156102da57600080fd5b506102f560048036038101906102f09190613f01565b610bc8565b6040516103029190613f49565b60405180910390f35b34801561031757600080fd5b50610332600480360381019061032d9190613f90565b610c42565b005b34801561034057600080fd5b50610349610c67565b604051610356919061404d565b60405180910390f35b34801561036b57600080fd5b50610386600480360381019061038191906140a5565b610cf9565b6040516103939190614113565b60405180910390f35b3480156103a857600080fd5b506103c360048036038101906103be91906140a5565b610d3f565b005b3480156103d157600080fd5b506103ec60048036038101906103e7919061415a565b610d51565b005b3480156103fa57600080fd5b506104156004803603810190610410919061419a565b610e68565b60405161042291906141e5565b60405180910390f35b34801561043757600080fd5b50610440610ff5565b60405161044d919061420f565b60405180910390f35b34801561046257600080fd5b5061046b610ffb565b604051610478919061420f565b60405180910390f35b34801561048d57600080fd5b50610496611008565b6040516104a39190614289565b60405180910390f35b3480156104b857600080fd5b506104c161102e565b6040516104ce919061420f565b60405180910390f35b3480156104e357600080fd5b506104fe60048036038101906104f991906142a4565b611034565b005b34801561050c57600080fd5b50610527600480360381019061052291906140a5565b611094565b005b34801561053557600080fd5b50610550600480360381019061054b919061415a565b6110a3565b60405161055d919061420f565b60405180910390f35b34801561057257600080fd5b5061058d6004803603810190610588919061419a565b611148565b005b34801561059b57600080fd5b506105b660048036038101906105b191906140a5565b6111ab565b005b6105c06111ba565b005b6105dc60048036038101906105d7919061415a565b611202565b005b3480156105ea57600080fd5b50610605600480360381019061060091906142a4565b611479565b005b34801561061357600080fd5b5061062e6004803603810190610629919061419a565b611499565b60405161063b91906143b5565b60405180910390f35b34801561065057600080fd5b5061066b600480360381019061066691906140a5565b611547565b005b34801561067957600080fd5b50610682611559565b60405161068f919061420f565b60405180910390f35b3480156106a457600080fd5b506106bf60048036038101906106ba919061419a565b61155f565b005b3480156106cd57600080fd5b506106e860048036038101906106e391906140a5565b6115c2565b6040516106f5919061420f565b60405180910390f35b34801561070a57600080fd5b506107256004803603810190610720919061450c565b611633565b005b34801561073357600080fd5b5061073c61164e565b6040516107499190613f49565b60405180910390f35b34801561075e57600080fd5b50610779600480360381019061077491906140a5565b611661565b6040516107869190614113565b60405180910390f35b34801561079b57600080fd5b506107a46116e7565b6040516107b1919061404d565b60405180910390f35b3480156107c657600080fd5b506107e160048036038101906107dc919061419a565b611775565b6040516107ee919061420f565b60405180910390f35b34801561080357600080fd5b5061080c61182c565b005b34801561081a57600080fd5b50610823611840565b604051610830919061420f565b60405180910390f35b34801561084557600080fd5b50610860600480360381019061085b91906140a5565b611846565b60405161086f93929190614576565b60405180910390f35b34801561088457600080fd5b5061088d6118b1565b60405161089a91906141e5565b60405180910390f35b3480156108af57600080fd5b506108b86118c6565b6040516108c59190614113565b60405180910390f35b3480156108da57600080fd5b506108f560048036038101906108f0919061466e565b6118f0565b604051610902919061420f565b60405180910390f35b34801561091757600080fd5b5061092061191f565b60405161092d919061404d565b60405180910390f35b34801561094257600080fd5b5061095d600480360381019061095891906140a5565b6119b1565b60405161096a919061420f565b60405180910390f35b34801561097f57600080fd5b5061099a6004803603810190610995919061469b565b611a8a565b005b3480156109a857600080fd5b506109c360048036038101906109be91906140a5565b611aa0565b005b3480156109d157600080fd5b506109ec60048036038101906109e7919061477c565b611de8565b005b3480156109fa57600080fd5b50610a03611e4a565b604051610a10919061404d565b60405180910390f35b348015610a2557600080fd5b50610a406004803603810190610a3b91906140a5565b611ed8565b604051610a4d919061404d565b60405180910390f35b348015610a6257600080fd5b50610a6b611f82565b604051610a78919061420f565b60405180910390f35b348015610a8d57600080fd5b50610aa86004803603810190610aa3919061419a565b611f88565b604051610ab59190613f49565b60405180910390f35b348015610aca57600080fd5b50610ae56004803603810190610ae0919061450c565b611fa8565b005b348015610af357600080fd5b50610b0e6004803603810190610b09919061415a565b611fc3565b005b348015610b1c57600080fd5b50610b376004803603810190610b3291906140a5565b611fd3565b005b348015610b4557600080fd5b50610b606004803603810190610b5b91906147ff565b611fe5565b604051610b6d9190613f49565b60405180910390f35b348015610b8257600080fd5b50610b9d6004803603810190610b98919061419a565b612079565b005b348015610bab57600080fd5b50610bc66004803603810190610bc1919061419a565b6120fc565b005b60007f780e9d63000000000000000000000000000000000000000000000000000000007bffffffffffffffffffffffffffffffffffffffffffffffffffffffff1916827bffffffffffffffffffffffffffffffffffffffffffffffffffffffff19161480610c3b5750610c3a82612148565b5b9050919050565b610c4a61222a565b80601160006101000a81548160ff02191690831515021790555050565b606060008054610c769061486e565b80601f0160208091040260200160405190810160405280929190818152602001828054610ca29061486e565b8015610cef5780601f10610cc457610100808354040283529160200191610cef565b820191906000526020600020905b815481529060010190602001808311610cd257829003601f168201915b5050505050905090565b6000610d04826122a8565b6004600083815260200190815260200160002060009054906101000a900473ffffffffffffffffffffffffffffffffffffffff169050919050565b610d4761222a565b80600f8190555050565b6000610d5c82611661565b90508073ffffffffffffffffffffffffffffffffffffffff168373ffffffffffffffffffffffffffffffffffffffff1603610dcc576040517f08c379a0000000000000000000000000000000000000000000000000000000008152600401610dc390614911565b60405180910390fd5b8073ffffffffffffffffffffffffffffffffffffffff16610deb6122f3565b73ffffffffffffffffffffffffffffffffffffffff161480610e1a5750610e1981610e146122f3565b611fe5565b5b610e59576040517f08c379a0000000000000000000000000000000000000000000000000000000008152600401610e50906149a3565b60405180910390fd5b610e6383836122fb565b505050565b600080600190505b60c8817effffffffffffffffffffffffffffffffffffffffffffffffffffffffffffff1611610fda57600060166000837effffffffffffffffffffffffffffffffffffffffffffffffffffffffffffff1681526020019081526020016000206040518060600160405290816000820160009054906101000a900462ffffff1662ffffff1662ffffff1681526020016000820160039054906101000a900465ffffffffffff1665ffffffffffff1665ffffffffffff1681526020016000820160099054906101000a900473ffffffffffffffffffffffffffffffffffffffff1673ffffffffffffffffffffffffffffffffffffffff1673ffffffffffffffffffffffffffffffffffffffff168152505090508373ffffffffffffffffffffffffffffffffffffffff16816040015173ffffffffffffffffffffffffffffffffffffffff1603610fc657806000015192505050610ff0565b508080610fd290614a1d565b915050610e70565b50601560009054906101000a900462ffffff1690505b919050565b600d5481565b6000600880549050905090565b601360009054906101000a900473ffffffffffffffffffffffffffffffffffffffff1681565b600f5481565b61104561103f6122f3565b826123b4565b611084576040517f08c379a000000000000000000000000000000000000000000000000000000000815260040161107b90614ad6565b60405180910390fd5b61108f838383612449565b505050565b6110a033826001612742565b50565b60006110ae83611775565b82106110ef576040517f08c379a00000000000000000000000000000000000000000000000000000000081526004016110e690614b68565b60405180910390fd5b600660008473ffffffffffffffffffffffffffffffffffffffff1673ffffffffffffffffffffffffffffffffffffffff168152602001908152602001600020600083815260200190815260200160002054905092915050565b61115061222a565b6000601260008373ffffffffffffffffffffffffffffffffffffffff1673ffffffffffffffffffffffffffffffffffffffff16815260200190815260200160002060006101000a81548160ff02191690831515021790555050565b6111b733826000612742565b50565b6111c261222a565b3373ffffffffffffffffffffffffffffffffffffffff166108fc479081150290604051600060405180830381858888f1935050505061120057600080fd5b565b600061120c610ffb565b9050601160009054906101000a900460ff161561125e576040517f08c379a000000000000000000000000000000000000000000000000000000000815260040161125590614bd4565b60405180910390fd5b600082116112a1576040517f08c379a000000000000000000000000000000000000000000000000000000000815260040161129890614c40565b60405180910390fd5b600f548211156112e6576040517f08c379a00000000000000000000000000000000000000000000000000000000081526004016112dd90614cac565b60405180910390fd5b60105460016112f433611775565b6112fe9190614ccc565b111561133f576040517f08c379a000000000000000000000000000000000000000000000000000000000815260040161133690614d4c565b60405180910390fd5b600e54828261134e9190614ccc565b111561138f576040517f08c379a000000000000000000000000000000000000000000000000000000000815260040161138690614db8565b60405180910390fd5b6113976118c6565b73ffffffffffffffffffffffffffffffffffffffff163373ffffffffffffffffffffffffffffffffffffffff161461143d5760011515601260003373ffffffffffffffffffffffffffffffffffffffff1673ffffffffffffffffffffffffffffffffffffffff16815260200190815260200160002060009054906101000a900460ff1615151461143c5781600d5461142f9190614dd8565b34101561143b57600080fd5b5b5b6000600190505b8281116114735761146084828461145b9190614ccc565b6129e7565b808061146b90614e1a565b915050611444565b50505050565b61149483838360405180602001604052806000815250611de8565b505050565b606060006114a683611775565b905060008167ffffffffffffffff8111156114c4576114c36143e1565b5b6040519080825280602002602001820160405280156114f25781602001602082028036833780820191505090505b50905060005b8281101561153c5761150a85826110a3565b82828151811061151d5761151c614e62565b5b602002602001018181525050808061153490614e1a565b9150506114f8565b508092505050919050565b61154f61222a565b80600d8190555050565b60105481565b61156761222a565b6001601260008373ffffffffffffffffffffffffffffffffffffffff1673ffffffffffffffffffffffffffffffffffffffff16815260200190815260200160002060006101000a81548160ff02191690831515021790555050565b60006115cc610ffb565b821061160d576040517f08c379a000000000000000000000000000000000000000000000000000000000815260040161160490614f03565b60405180910390fd5b6008828154811061162157611620614e62565b5b90600052602060002001549050919050565b61163b61222a565b80600b908161164a91906150c5565b5050565b601160009054906101000a900460ff1681565b60008061166d83612a05565b9050600073ffffffffffffffffffffffffffffffffffffffff168173ffffffffffffffffffffffffffffffffffffffff16036116de576040517f08c379a00000000000000000000000000000000000000000000000000000000081526004016116d5906151e3565b60405180910390fd5b80915050919050565b600b80546116f49061486e565b80601f01602080910402602001604051908101604052809291908181526020018280546117209061486e565b801561176d5780601f106117425761010080835404028352916020019161176d565b820191906000526020600020905b81548152906001019060200180831161175057829003601f168201915b505050505081565b60008073ffffffffffffffffffffffffffffffffffffffff168273ffffffffffffffffffffffffffffffffffffffff16036117e5576040517f08c379a00000000000000000000000000000000000000000000000000000000081526004016117dc90615275565b60405180910390fd5b600360008373ffffffffffffffffffffffffffffffffffffffff1673ffffffffffffffffffffffffffffffffffffffff168152602001908152602001600020549050919050565b61183461222a565b61183e6000612a42565b565b60145481565b60166020528060005260406000206000915090508060000160009054906101000a900462ffffff16908060000160039054906101000a900465ffffffffffff16908060000160099054906101000a900473ffffffffffffffffffffffffffffffffffffffff16905083565b601560009054906101000a900462ffffff1681565b6000600a60009054906101000a900473ffffffffffffffffffffffffffffffffffffffff16905090565b600062278d00826020015165ffffffffffff164261190e9190615295565b61191891906152f8565b9050919050565b60606001805461192e9061486e565b80601f016020809104026020016040519081016040528092919081815260200182805461195a9061486e565b80156119a75780601f1061197c576101008083540402835291602001916119a7565b820191906000526020600020905b81548152906001019060200180831161198a57829003601f168201915b5050505050905090565b600080601660008481526020019081526020016000206040518060600160405290816000820160009054906101000a900462ffffff1662ffffff1662ffffff1681526020016000820160039054906101000a900465ffffffffffff1665ffffffffffff1665ffffffffffff1681526020016000820160099054906101000a900473ffffffffffffffffffffffffffffffffffffffff1673ffffffffffffffffffffffffffffffffffffffff1673ffffffffffffffffffffffffffffffffffffffff16815250509050611a82816118f0565b915050919050565b611a9c611a956122f3565b8383612b08565b5050565b3373ffffffffffffffffffffffffffffffffffffffff16601360009054906101000a900473ffffffffffffffffffffffffffffffffffffffff1673ffffffffffffffffffffffffffffffffffffffff16636352211e836040518263ffffffff1660e01b8152600401611b12919061420f565b602060405180830381865afa158015611b2f573d6000803e3d6000fd5b505050506040513d601f19601f82011682018060405250810190611b53919061533e565b73ffffffffffffffffffffffffffffffffffffffff1614611ba9576040517f08c379a0000000000000000000000000000000000000000000000000000000008152600401611ba0906153b7565b60405180910390fd5b60006016600083815260200190815260200160002060000160009054906101000a900462ffffff1662ffffff1614611c16576040517f08c379a0000000000000000000000000000000000000000000000000000000008152600401611c0d90615423565b60405180910390fd5b601360009054906101000a900473ffffffffffffffffffffffffffffffffffffffff1673ffffffffffffffffffffffffffffffffffffffff166323b872dd3330846040518463ffffffff1660e01b8152600401611c7593929190615443565b600060405180830381600087803b158015611c8f57600080fd5b505af1158015611ca3573d6000803e3d6000fd5b505050507f36b3725f1783bad4ff05b7f4c077c3aa68eeb23a4d054ba189db4d01ac278d39338242604051611cda9392919061547a565b60405180910390a160405180606001604052808262ffffff1681526020014265ffffffffffff1681526020013373ffffffffffffffffffffffffffffffffffffffff168152506016600083815260200190815260200160002060008201518160000160006101000a81548162ffffff021916908362ffffff16021790555060208201518160000160036101000a81548165ffffffffffff021916908365ffffffffffff16021790555060408201518160000160096101000a81548173ffffffffffffffffffffffffffffffffffffffff021916908373ffffffffffffffffffffffffffffffffffffffff16021790555090505060146000815480929190611de090614e1a565b919050555050565b611df9611df36122f3565b836123b4565b611e38576040517f08c379a0000000000000000000000000000000000000000000000000000000008152600401611e2f90614ad6565b60405180910390fd5b611e4484848484612c74565b50505050565b600c8054611e579061486e565b80601f0160208091040260200160405190810160405280929190818152602001828054611e839061486e565b8015611ed05780601f10611ea557610100808354040283529160200191611ed0565b820191906000526020600020905b815481529060010190602001808311611eb357829003601f168201915b505050505081565b6060611ee382612cd0565b611f22576040517f08c379a0000000000000000000000000000000000000000000000000000000008152600401611f1990615523565b60405180910390fd5b6000611f2c612d11565b90506000815111611f4c5760405180602001604052806000815250611f7a565b80611f5684612da3565b600c604051602001611f6a93929190615602565b6040516020818303038152906040525b915050919050565b600e5481565b60126020528060005260406000206000915054906101000a900460ff1681565b611fb061222a565b80600c9081611fbf91906150c5565b5050565b611fcf82826000612742565b5050565b611fdb61222a565b8060108190555050565b6000600560008473ffffffffffffffffffffffffffffffffffffffff1673ffffffffffffffffffffffffffffffffffffffff16815260200190815260200160002060008373ffffffffffffffffffffffffffffffffffffffff1673ffffffffffffffffffffffffffffffffffffffff16815260200190815260200160002060009054906101000a900460ff16905092915050565b61208161222a565b600073ffffffffffffffffffffffffffffffffffffffff168173ffffffffffffffffffffffffffffffffffffffff16036120f0576040517f08c379a00000000000000000000000000000000000000000000000000000000081526004016120e7906156a5565b60405180910390fd5b6120f981612a42565b50565b61210461222a565b80601360006101000a81548173ffffffffffffffffffffffffffffffffffffffff021916908373ffffffffffffffffffffffffffffffffffffffff16021790555050565b60007f80ac58cd000000000000000000000000000000000000000000000000000000007bffffffffffffffffffffffffffffffffffffffffffffffffffffffff1916827bffffffffffffffffffffffffffffffffffffffffffffffffffffffff1916148061221357507f5b5e139f000000000000000000000000000000000000000000000000000000007bffffffffffffffffffffffffffffffffffffffffffffffffffffffff1916827bffffffffffffffffffffffffffffffffffffffffffffffffffffffff1916145b80612223575061222282612e71565b5b9050919050565b6122326122f3565b73ffffffffffffffffffffffffffffffffffffffff166122506118c6565b73ffffffffffffffffffffffffffffffffffffffff16146122a6576040517f08c379a000000000000000000000000000000000000000000000000000000000815260040161229d90615711565b60405180910390fd5b565b6122b181612cd0565b6122f0576040517f08c379a00000000000000000000000000000000000000000000000000000000081526004016122e7906151e3565b60405180910390fd5b50565b600033905090565b816004600083815260200190815260200160002060006101000a81548173ffffffffffffffffffffffffffffffffffffffff021916908373ffffffffffffffffffffffffffffffffffffffff160217905550808273ffffffffffffffffffffffffffffffffffffffff1661236e83611661565b73ffffffffffffffffffffffffffffffffffffffff167f8c5be1e5ebec7d5bd14f71427d1e84f3dd0314c0f7b2291e5b200ac8c7c3b92560405160405180910390a45050565b6000806123c083611661565b90508073ffffffffffffffffffffffffffffffffffffffff168473ffffffffffffffffffffffffffffffffffffffff16148061240257506124018185611fe5565b5b8061244057508373ffffffffffffffffffffffffffffffffffffffff1661242884610cf9565b73ffffffffffffffffffffffffffffffffffffffff16145b91505092915050565b8273ffffffffffffffffffffffffffffffffffffffff1661246982611661565b73ffffffffffffffffffffffffffffffffffffffff16146124bf576040517f08c379a00000000000000000000000000000000000000000000000000000000081526004016124b6906157a3565b60405180910390fd5b600073ffffffffffffffffffffffffffffffffffffffff168273ffffffffffffffffffffffffffffffffffffffff160361252e576040517f08c379a000000000000000000000000000000000000000000000000000000000815260040161252590615835565b60405180910390fd5b61253b8383836001612edb565b8273ffffffffffffffffffffffffffffffffffffffff1661255b82611661565b73ffffffffffffffffffffffffffffffffffffffff16146125b1576040517f08c379a00000000000000000000000000000000000000000000000000000000081526004016125a8906157a3565b60405180910390fd5b6004600082815260200190815260200160002060006101000a81549073ffffffffffffffffffffffffffffffffffffffff02191690556001600360008573ffffffffffffffffffffffffffffffffffffffff1673ffffffffffffffffffffffffffffffffffffffff168152602001908152602001600020600082825403925050819055506001600360008473ffffffffffffffffffffffffffffffffffffffff1673ffffffffffffffffffffffffffffffffffffffff16815260200190815260200160002060008282540192505081905550816002600083815260200190815260200160002060006101000a81548173ffffffffffffffffffffffffffffffffffffffff021916908373ffffffffffffffffffffffffffffffffffffffff160217905550808273ffffffffffffffffffffffffffffffffffffffff168473ffffffffffffffffffffffffffffffffffffffff167fddf252ad1be2c89b69c2b068fc378daa952ba7f163c4a11628f55a4df523b3ef60405160405180910390a461273d8383836001613039565b505050565b6000601660008481526020019081526020016000206040518060600160405290816000820160009054906101000a900462ffffff1662ffffff1662ffffff1681526020016000820160039054906101000a900465ffffffffffff1665ffffffffffff1665ffffffffffff1681526020016000820160099054906101000a900473ffffffffffffffffffffffffffffffffffffffff1673ffffffffffffffffffffffffffffffffffffffff1673ffffffffffffffffffffffffffffffffffffffff168152505090508373ffffffffffffffffffffffffffffffffffffffff16816040015173ffffffffffffffffffffffffffffffffffffffff161461287b576040517f08c379a0000000000000000000000000000000000000000000000000000000008152600401612872906158a1565b60405180910390fd5b6000612886826118f0565b905060405180606001604052808562ffffff1681526020014265ffffffffffff1681526020018673ffffffffffffffffffffffffffffffffffffffff168152506016600086815260200190815260200160002060008201518160000160006101000a81548162ffffff021916908362ffffff16021790555060208201518160000160036101000a81548165ffffffffffff021916908365ffffffffffff16021790555060408201518160000160096101000a81548173ffffffffffffffffffffffffffffffffffffffff021916908373ffffffffffffffffffffffffffffffffffffffff160217905550905050600081111561299657600a8161298991906152f8565b9050612995858261303f565b5b82156129a7576129a68585613266565b5b7fd8138f8a3f377c5259ca548e70e4c2de94f129f5a11036a15b69513cba2b426a85826040516129d89291906158c1565b60405180910390a15050505050565b612a018282604051806020016040528060008152506134f4565b5050565b60006002600083815260200190815260200160002060009054906101000a900473ffffffffffffffffffffffffffffffffffffffff169050919050565b6000600a60009054906101000a900473ffffffffffffffffffffffffffffffffffffffff16905081600a60006101000a81548173ffffffffffffffffffffffffffffffffffffffff021916908373ffffffffffffffffffffffffffffffffffffffff1602179055508173ffffffffffffffffffffffffffffffffffffffff168173ffffffffffffffffffffffffffffffffffffffff167f8be0079c531659141344cd1fd0a4f28419497f9722a3daafe3b4186f6b6457e060405160405180910390a35050565b8173ffffffffffffffffffffffffffffffffffffffff168373ffffffffffffffffffffffffffffffffffffffff1603612b76576040517f08c379a0000000000000000000000000000000000000000000000000000000008152600401612b6d90615936565b60405180910390fd5b80600560008573ffffffffffffffffffffffffffffffffffffffff1673ffffffffffffffffffffffffffffffffffffffff16815260200190815260200160002060008473ffffffffffffffffffffffffffffffffffffffff1673ffffffffffffffffffffffffffffffffffffffff16815260200190815260200160002060006101000a81548160ff0219169083151502179055508173ffffffffffffffffffffffffffffffffffffffff168373ffffffffffffffffffffffffffffffffffffffff167f17307eab39ab6107e8899845ad3d59bd9653f200f220920489ca2b5937696c3183604051612c679190613f49565b60405180910390a3505050565b612c7f848484612449565b612c8b8484848461354f565b612cca576040517f08c379a0000000000000000000000000000000000000000000000000000000008152600401612cc1906159c8565b60405180910390fd5b50505050565b60008073ffffffffffffffffffffffffffffffffffffffff16612cf283612a05565b73ffffffffffffffffffffffffffffffffffffffff1614159050919050565b6060600b8054612d209061486e565b80601f0160208091040260200160405190810160405280929190818152602001828054612d4c9061486e565b8015612d995780601f10612d6e57610100808354040283529160200191612d99565b820191906000526020600020905b815481529060010190602001808311612d7c57829003601f168201915b5050505050905090565b606060006001612db2846136d6565b01905060008167ffffffffffffffff811115612dd157612dd06143e1565b5b6040519080825280601f01601f191660200182016040528015612e035781602001600182028036833780820191505090505b509050600082602001820190505b600115612e66578080600190039150507f3031323334353637383961626364656600000000000000000000000000000000600a86061a8153600a8581612e5a57612e596152c9565b5b04945060008503612e11575b819350505050919050565b60007f01ffc9a7000000000000000000000000000000000000000000000000000000007bffffffffffffffffffffffffffffffffffffffffffffffffffffffff1916827bffffffffffffffffffffffffffffffffffffffffffffffffffffffff1916149050919050565b612ee784848484613829565b6001811115612f2b576040517f08c379a0000000000000000000000000000000000000000000000000000000008152600401612f2290615a5a565b60405180910390fd5b6000829050600073ffffffffffffffffffffffffffffffffffffffff168573ffffffffffffffffffffffffffffffffffffffff1603612f7257612f6d8161394f565b612fb1565b8373ffffffffffffffffffffffffffffffffffffffff168573ffffffffffffffffffffffffffffffffffffffff1614612fb057612faf8582613998565b5b5b600073ffffffffffffffffffffffffffffffffffffffff168473ffffffffffffffffffffffffffffffffffffffff1603612ff357612fee81613b05565b613032565b8473ffffffffffffffffffffffffffffffffffffffff168473ffffffffffffffffffffffffffffffffffffffff1614613031576130308482613bd6565b5b5b5050505050565b50505050565b6000613049610ffb565b90506000821161308e576040517f08c379a000000000000000000000000000000000000000000000000000000000815260040161308590614c40565b60405180910390fd5b600f548211156130d3576040517f08c379a00000000000000000000000000000000000000000000000000000000081526004016130ca90614cac565b60405180910390fd5b60105460016130e133611775565b6130eb9190614ccc565b111561312c576040517f08c379a000000000000000000000000000000000000000000000000000000000815260040161312390614d4c565b60405180910390fd5b600e54828261313b9190614ccc565b111561317c576040517f08c379a000000000000000000000000000000000000000000000000000000000815260040161317390614db8565b60405180910390fd5b6131846118c6565b73ffffffffffffffffffffffffffffffffffffffff163373ffffffffffffffffffffffffffffffffffffffff161461322a5760011515601260003373ffffffffffffffffffffffffffffffffffffffff1673ffffffffffffffffffffffffffffffffffffffff16815260200190815260200160002060009054906101000a900460ff161515146132295781600d5461321c9190614dd8565b34101561322857600080fd5b5b5b6000600190505b8281116132605761324d8482846132489190614ccc565b6129e7565b808061325890614e1a565b915050613231565b50505050565b6000601660008381526020019081526020016000206040518060600160405290816000820160009054906101000a900462ffffff1662ffffff1662ffffff1681526020016000820160039054906101000a900465ffffffffffff1665ffffffffffff1665ffffffffffff1681526020016000820160099054906101000a900473ffffffffffffffffffffffffffffffffffffffff1673ffffffffffffffffffffffffffffffffffffffff1673ffffffffffffffffffffffffffffffffffffffff168152505090503373ffffffffffffffffffffffffffffffffffffffff16816040015173ffffffffffffffffffffffffffffffffffffffff161461339f576040517f08c379a000000000000000000000000000000000000000000000000000000000815260040161339690615ac6565b60405180910390fd5b60166000838152602001908152602001600020600080820160006101000a81549062ffffff02191690556000820160036101000a81549065ffffffffffff02191690556000820160096101000a81549073ffffffffffffffffffffffffffffffffffffffff021916905550507fc486b9458a8637650d84d262414833a5a457bc91ae86b7da110386c8c3fa255b83834260405161343e9392919061547a565b60405180910390a1601360009054906101000a900473ffffffffffffffffffffffffffffffffffffffff1673ffffffffffffffffffffffffffffffffffffffff166323b872dd3085856040518463ffffffff1660e01b81526004016134a593929190615443565b600060405180830381600087803b1580156134bf57600080fd5b505af11580156134d3573d6000803e3d6000fd5b50505050601460008154809291906134ea90615ae6565b9190505550505050565b6134fe8383613c55565b61350b600084848461354f565b61354a576040517f08c379a0000000000000000000000000000000000000000000000000000000008152600401613541906159c8565b60405180910390fd5b505050565b60006135708473ffffffffffffffffffffffffffffffffffffffff16613e72565b156136c9578373ffffffffffffffffffffffffffffffffffffffff1663150b7a026135996122f3565b8786866040518563ffffffff1660e01b81526004016135bb9493929190615b64565b6020604051808303816000875af19250505080156135f757506040513d601f19601f820116820180604052508101906135f49190615bc5565b60015b613679573d8060008114613627576040519150601f19603f3d011682016040523d82523d6000602084013e61362c565b606091505b506000815103613671576040517f08c379a0000000000000000000000000000000000000000000000000000000008152600401613668906159c8565b60405180910390fd5b805181602001fd5b63150b7a0260e01b7bffffffffffffffffffffffffffffffffffffffffffffffffffffffff1916817bffffffffffffffffffffffffffffffffffffffffffffffffffffffff1916149150506136ce565b600190505b949350505050565b600080600090507a184f03e93ff9f4daa797ed6e38ed64bf6a1f0100000000000000008310613734577a184f03e93ff9f4daa797ed6e38ed64bf6a1f010000000000000000838161372a576137296152c9565b5b0492506040810190505b6d04ee2d6d415b85acef81000000008310613771576d04ee2d6d415b85acef81000000008381613767576137666152c9565b5b0492506020810190505b662386f26fc1000083106137a057662386f26fc100008381613796576137956152c9565b5b0492506010810190505b6305f5e10083106137c9576305f5e10083816137bf576137be6152c9565b5b0492506008810190505b61271083106137ee5761271083816137e4576137e36152c9565b5b0492506004810190505b606483106138115760648381613807576138066152c9565b5b0492506002810190505b600a8310613820576001810190505b80915050919050565b600181111561394957600073ffffffffffffffffffffffffffffffffffffffff168473ffffffffffffffffffffffffffffffffffffffff16146138bd5780600360008673ffffffffffffffffffffffffffffffffffffffff1673ffffffffffffffffffffffffffffffffffffffff16815260200190815260200160002060008282546138b59190615295565b925050819055505b600073ffffffffffffffffffffffffffffffffffffffff168373ffffffffffffffffffffffffffffffffffffffff16146139485780600360008573ffffffffffffffffffffffffffffffffffffffff1673ffffffffffffffffffffffffffffffffffffffff16815260200190815260200160002060008282546139409190614ccc565b925050819055505b5b50505050565b6008805490506009600083815260200190815260200160002081905550600881908060018154018082558091505060019003906000526020600020016000909190919091505550565b600060016139a584611775565b6139af9190615295565b9050600060076000848152602001908152602001600020549050818114613a94576000600660008673ffffffffffffffffffffffffffffffffffffffff1673ffffffffffffffffffffffffffffffffffffffff168152602001908152602001600020600084815260200190815260200160002054905080600660008773ffffffffffffffffffffffffffffffffffffffff1673ffffffffffffffffffffffffffffffffffffffff168152602001908152602001600020600084815260200190815260200160002081905550816007600083815260200190815260200160002081905550505b6007600084815260200190815260200160002060009055600660008573ffffffffffffffffffffffffffffffffffffffff1673ffffffffffffffffffffffffffffffffffffffff16815260200190815260200160002060008381526020019081526020016000206000905550505050565b60006001600880549050613b199190615295565b9050600060096000848152602001908152602001600020549050600060088381548110613b4957613b48614e62565b5b906000526020600020015490508060088381548110613b6b57613b6a614e62565b5b906000526020600020018190555081600960008381526020019081526020016000208190555060096000858152602001908152602001600020600090556008805480613bba57613bb9615bf2565b5b6001900381819060005260206000200160009055905550505050565b6000613be183611775565b905081600660008573ffffffffffffffffffffffffffffffffffffffff1673ffffffffffffffffffffffffffffffffffffffff168152602001908152602001600020600083815260200190815260200160002081905550806007600084815260200190815260200160002081905550505050565b600073ffffffffffffffffffffffffffffffffffffffff168273ffffffffffffffffffffffffffffffffffffffff1603613cc4576040517f08c379a0000000000000000000000000000000000000000000000000000000008152600401613cbb90615c6d565b60405180910390fd5b613ccd81612cd0565b15613d0d576040517f08c379a0000000000000000000000000000000000000000000000000000000008152600401613d0490615cd9565b60405180910390fd5b613d1b600083836001612edb565b613d2481612cd0565b15613d64576040517f08c379a0000000000000000000000000000000000000000000000000000000008152600401613d5b90615cd9565b60405180910390fd5b6001600360008473ffffffffffffffffffffffffffffffffffffffff1673ffffffffffffffffffffffffffffffffffffffff16815260200190815260200160002060008282540192505081905550816002600083815260200190815260200160002060006101000a81548173ffffffffffffffffffffffffffffffffffffffff021916908373ffffffffffffffffffffffffffffffffffffffff160217905550808273ffffffffffffffffffffffffffffffffffffffff16600073ffffffffffffffffffffffffffffffffffffffff167fddf252ad1be2c89b69c2b068fc378daa952ba7f163c4a11628f55a4df523b3ef60405160405180910390a4613e6e600083836001613039565b5050565b6000808273ffffffffffffffffffffffffffffffffffffffff163b119050919050565b6000604051905090565b600080fd5b600080fd5b60007fffffffff0000000000000000000000000000000000000000000000000000000082169050919050565b613ede81613ea9565b8114613ee957600080fd5b50565b600081359050613efb81613ed5565b92915050565b600060208284031215613f1757613f16613e9f565b5b6000613f2584828501613eec565b91505092915050565b60008115159050919050565b613f4381613f2e565b82525050565b6000602082019050613f5e6000830184613f3a565b92915050565b613f6d81613f2e565b8114613f7857600080fd5b50565b600081359050613f8a81613f64565b92915050565b600060208284031215613fa657613fa5613e9f565b5b6000613fb484828501613f7b565b91505092915050565b600081519050919050565b600082825260208201905092915050565b60005b83811015613ff7578082015181840152602081019050613fdc565b60008484015250505050565b6000601f19601f8301169050919050565b600061401f82613fbd565b6140298185613fc8565b9350614039818560208601613fd9565b61404281614003565b840191505092915050565b600060208201905081810360008301526140678184614014565b905092915050565b6000819050919050565b6140828161406f565b811461408d57600080fd5b50565b60008135905061409f81614079565b92915050565b6000602082840312156140bb576140ba613e9f565b5b60006140c984828501614090565b91505092915050565b600073ffffffffffffffffffffffffffffffffffffffff82169050919050565b60006140fd826140d2565b9050919050565b61410d816140f2565b82525050565b60006020820190506141286000830184614104565b92915050565b614137816140f2565b811461414257600080fd5b50565b6000813590506141548161412e565b92915050565b6000806040838503121561417157614170613e9f565b5b600061417f85828601614145565b925050602061419085828601614090565b9150509250929050565b6000602082840312156141b0576141af613e9f565b5b60006141be84828501614145565b91505092915050565b600062ffffff82169050919050565b6141df816141c7565b82525050565b60006020820190506141fa60008301846141d6565b92915050565b6142098161406f565b82525050565b60006020820190506142246000830184614200565b92915050565b6000819050919050565b600061424f61424a614245846140d2565b61422a565b6140d2565b9050919050565b600061426182614234565b9050919050565b600061427382614256565b9050919050565b61428381614268565b82525050565b600060208201905061429e600083018461427a565b92915050565b6000806000606084860312156142bd576142bc613e9f565b5b60006142cb86828701614145565b93505060206142dc86828701614145565b92505060406142ed86828701614090565b9150509250925092565b600081519050919050565b600082825260208201905092915050565b6000819050602082019050919050565b61432c8161406f565b82525050565b600061433e8383614323565b60208301905092915050565b6000602082019050919050565b6000614362826142f7565b61436c8185614302565b935061437783614313565b8060005b838110156143a857815161438f8882614332565b975061439a8361434a565b92505060018101905061437b565b5085935050505092915050565b600060208201905081810360008301526143cf8184614357565b905092915050565b600080fd5b600080fd5b7f4e487b7100000000000000000000000000000000000000000000000000000000600052604160045260246000fd5b61441982614003565b810181811067ffffffffffffffff82111715614438576144376143e1565b5b80604052505050565b600061444b613e95565b90506144578282614410565b919050565b600067ffffffffffffffff821115614477576144766143e1565b5b61448082614003565b9050602081019050919050565b82818337600083830152505050565b60006144af6144aa8461445c565b614441565b9050828152602081018484840111156144cb576144ca6143dc565b5b6144d684828561448d565b509392505050565b600082601f8301126144f3576144f26143d7565b5b813561450384826020860161449c565b91505092915050565b60006020828403121561452257614521613e9f565b5b600082013567ffffffffffffffff8111156145405761453f613ea4565b5b61454c848285016144de565b91505092915050565b600065ffffffffffff82169050919050565b61457081614555565b82525050565b600060608201905061458b60008301866141d6565b6145986020830185614567565b6145a56040830184614104565b949350505050565b600080fd5b6145bb816141c7565b81146145c657600080fd5b50565b6000813590506145d8816145b2565b92915050565b6145e781614555565b81146145f257600080fd5b50565b600081359050614604816145de565b92915050565b6000606082840312156146205761461f6145ad565b5b61462a6060614441565b9050600061463a848285016145c9565b600083015250602061464e848285016145f5565b602083015250604061466284828501614145565b60408301525092915050565b60006060828403121561468457614683613e9f565b5b60006146928482850161460a565b91505092915050565b600080604083850312156146b2576146b1613e9f565b5b60006146c085828601614145565b92505060206146d185828601613f7b565b9150509250929050565b600067ffffffffffffffff8211156146f6576146f56143e1565b5b6146ff82614003565b9050602081019050919050565b600061471f61471a846146db565b614441565b90508281526020810184848401111561473b5761473a6143dc565b5b61474684828561448d565b509392505050565b600082601f830112614763576147626143d7565b5b813561477384826020860161470c565b91505092915050565b6000806000806080858703121561479657614795613e9f565b5b60006147a487828801614145565b94505060206147b587828801614145565b93505060406147c687828801614090565b925050606085013567ffffffffffffffff8111156147e7576147e6613ea4565b5b6147f38782880161474e565b91505092959194509250565b6000806040838503121561481657614815613e9f565b5b600061482485828601614145565b925050602061483585828601614145565b9150509250929050565b7f4e487b7100000000000000000000000000000000000000000000000000000000600052602260045260246000fd5b6000600282049050600182168061488657607f821691505b6020821081036148995761489861483f565b5b50919050565b7f4552433732313a20617070726f76616c20746f2063757272656e74206f776e6560008201527f7200000000000000000000000000000000000000000000000000000000000000602082015250565b60006148fb602183613fc8565b91506149068261489f565b604082019050919050565b6000602082019050818103600083015261492a816148ee565b9050919050565b7f4552433732313a20617070726f76652063616c6c6572206973206e6f7420746f60008201527f6b656e206f776e6572206f7220617070726f76656420666f7220616c6c000000602082015250565b600061498d603d83613fc8565b915061499882614931565b604082019050919050565b600060208201905081810360008301526149bc81614980565b9050919050565b7f4e487b7100000000000000000000000000000000000000000000000000000000600052601160045260246000fd5b60007effffffffffffffffffffffffffffffffffffffffffffffffffffffffffffff82169050919050565b6000614a28826149f2565b91507effffffffffffffffffffffffffffffffffffffffffffffffffffffffffffff8203614a5957614a586149c3565b5b600182019050919050565b7f4552433732313a2063616c6c6572206973206e6f7420746f6b656e206f776e6560008201527f72206f7220617070726f76656400000000000000000000000000000000000000602082015250565b6000614ac0602d83613fc8565b9150614acb82614a64565b604082019050919050565b60006020820190508181036000830152614aef81614ab3565b9050919050565b7f455243373231456e756d657261626c653a206f776e657220696e646578206f7560008201527f74206f6620626f756e6473000000000000000000000000000000000000000000602082015250565b6000614b52602b83613fc8565b9150614b5d82614af6565b604082019050919050565b60006020820190508181036000830152614b8181614b45565b9050919050565b7f4d696e74696e67206e6f7420656e61626c656400000000000000000000000000600082015250565b6000614bbe601383613fc8565b9150614bc982614b88565b602082019050919050565b60006020820190508181036000830152614bed81614bb1565b9050919050565b7f496e76616c6964206d696e7420616d6f756e7400000000000000000000000000600082015250565b6000614c2a601383613fc8565b9150614c3582614bf4565b602082019050919050565b60006020820190508181036000830152614c5981614c1d565b9050919050565b7f457863656564206d617820616d6f756e74000000000000000000000000000000600082015250565b6000614c96601183613fc8565b9150614ca182614c60565b602082019050919050565b60006020820190508181036000830152614cc581614c89565b9050919050565b6000614cd78261406f565b9150614ce28361406f565b9250828201905080821115614cfa57614cf96149c3565b5b92915050565b7f457863656564206d6178207065722077616c6c65740000000000000000000000600082015250565b6000614d36601583613fc8565b9150614d4182614d00565b602082019050919050565b60006020820190508181036000830152614d6581614d29565b9050919050565b7f536f6c64206f7574000000000000000000000000000000000000000000000000600082015250565b6000614da2600883613fc8565b9150614dad82614d6c565b602082019050919050565b60006020820190508181036000830152614dd181614d95565b9050919050565b6000614de38261406f565b9150614dee8361406f565b9250828202614dfc8161406f565b91508282048414831517614e1357614e126149c3565b5b5092915050565b6000614e258261406f565b91507fffffffffffffffffffffffffffffffffffffffffffffffffffffffffffffffff8203614e5757614e566149c3565b5b600182019050919050565b7f4e487b7100000000000000000000000000000000000000000000000000000000600052603260045260246000fd5b7f455243373231456e756d657261626c653a20676c6f62616c20696e646578206f60008201527f7574206f6620626f756e64730000000000000000000000000000000000000000602082015250565b6000614eed602c83613fc8565b9150614ef882614e91565b604082019050919050565b60006020820190508181036000830152614f1c81614ee0565b9050919050565b60008190508160005260206000209050919050565b60006020601f8301049050919050565b600082821b905092915050565b600060088302614f857fffffffffffffffffffffffffffffffffffffffffffffffffffffffffffffffff82614f48565b614f8f8683614f48565b95508019841693508086168417925050509392505050565b6000614fc2614fbd614fb88461406f565b61422a565b61406f565b9050919050565b6000819050919050565b614fdc83614fa7565b614ff0614fe882614fc9565b848454614f55565b825550505050565b600090565b615005614ff8565b615010818484614fd3565b505050565b5b8181101561503457615029600082614ffd565b600181019050615016565b5050565b601f8211156150795761504a81614f23565b61505384614f38565b81016020851015615062578190505b61507661506e85614f38565b830182615015565b50505b505050565b600082821c905092915050565b600061509c6000198460080261507e565b1980831691505092915050565b60006150b5838361508b565b9150826002028217905092915050565b6150ce82613fbd565b67ffffffffffffffff8111156150e7576150e66143e1565b5b6150f1825461486e565b6150fc828285615038565b600060209050601f83116001811461512f576000841561511d578287015190505b61512785826150a9565b86555061518f565b601f19841661513d86614f23565b60005b8281101561516557848901518255600182019150602085019450602081019050615140565b86831015615182578489015161517e601f89168261508b565b8355505b6001600288020188555050505b505050505050565b7f4552433732313a20696e76616c696420746f6b656e2049440000000000000000600082015250565b60006151cd601883613fc8565b91506151d882615197565b602082019050919050565b600060208201905081810360008301526151fc816151c0565b9050919050565b7f4552433732313a2061646472657373207a65726f206973206e6f74206120766160008201527f6c6964206f776e65720000000000000000000000000000000000000000000000602082015250565b600061525f602983613fc8565b915061526a82615203565b604082019050919050565b6000602082019050818103600083015261528e81615252565b9050919050565b60006152a08261406f565b91506152ab8361406f565b92508282039050818111156152c3576152c26149c3565b5b92915050565b7f4e487b7100000000000000000000000000000000000000000000000000000000600052601260045260246000fd5b60006153038261406f565b915061530e8361406f565b92508261531e5761531d6152c9565b5b828204905092915050565b6000815190506153388161412e565b92915050565b60006020828403121561535457615353613e9f565b5b600061536284828501615329565b91505092915050565b7f4e6f7420796f757220746f6b656e000000000000000000000000000000000000600082015250565b60006153a1600e83613fc8565b91506153ac8261536b565b602082019050919050565b600060208201905081810360008301526153d081615394565b9050919050565b7f416c7265616479207374616b6564000000000000000000000000000000000000600082015250565b600061540d600e83613fc8565b9150615418826153d7565b602082019050919050565b6000602082019050818103600083015261543c81615400565b9050919050565b60006060820190506154586000830186614104565b6154656020830185614104565b6154726040830184614200565b949350505050565b600060608201905061548f6000830186614104565b61549c6020830185614200565b6154a96040830184614200565b949350505050565b7f4552433732314d657461646174613a2055524920717565727920666f72206e6f60008201527f6e6578697374656e7420746f6b656e0000000000000000000000000000000000602082015250565b600061550d602f83613fc8565b9150615518826154b1565b604082019050919050565b6000602082019050818103600083015261553c81615500565b9050919050565b600081905092915050565b600061555982613fbd565b6155638185615543565b9350615573818560208601613fd9565b80840191505092915050565b6000815461558c8161486e565b6155968186615543565b945060018216600081146155b157600181146155c6576155f9565b60ff19831686528115158202860193506155f9565b6155cf85614f23565b60005b838110156155f1578154818901526001820191506020810190506155d2565b838801955050505b50505092915050565b600061560e828661554e565b915061561a828561554e565b9150615626828461557f565b9150819050949350505050565b7f4f776e61626c653a206e6577206f776e657220697320746865207a65726f206160008201527f6464726573730000000000000000000000000000000000000000000000000000602082015250565b600061568f602683613fc8565b915061569a82615633565b604082019050919050565b600060208201905081810360008301526156be81615682565b9050919050565b7f4f776e61626c653a2063616c6c6572206973206e6f7420746865206f776e6572600082015250565b60006156fb602083613fc8565b9150615706826156c5565b602082019050919050565b6000602082019050818103600083015261572a816156ee565b9050919050565b7f4552433732313a207472616e736665722066726f6d20696e636f72726563742060008201527f6f776e6572000000000000000000000000000000000000000000000000000000602082015250565b600061578d602583613fc8565b915061579882615731565b604082019050919050565b600060208201905081810360008301526157bc81615780565b9050919050565b7f4552433732313a207472616e7366657220746f20746865207a65726f2061646460008201527f7265737300000000000000000000000000000000000000000000000000000000602082015250565b600061581f602483613fc8565b915061582a826157c3565b604082019050919050565b6000602082019050818103600083015261584e81615812565b9050919050565b7f6e6f7420616e206f776e65720000000000000000000000000000000000000000600082015250565b600061588b600c83613fc8565b915061589682615855565b602082019050919050565b600060208201905081810360008301526158ba8161587e565b9050919050565b60006040820190506158d66000830185614104565b6158e36020830184614200565b9392505050565b7f4552433732313a20617070726f766520746f2063616c6c657200000000000000600082015250565b6000615920601983613fc8565b915061592b826158ea565b602082019050919050565b6000602082019050818103600083015261594f81615913565b9050919050565b7f4552433732313a207472616e7366657220746f206e6f6e20455243373231526560008201527f63656976657220696d706c656d656e7465720000000000000000000000000000602082015250565b60006159b2603283613fc8565b91506159bd82615956565b604082019050919050565b600060208201905081810360008301526159e1816159a5565b9050919050565b7f455243373231456e756d657261626c653a20636f6e736563757469766520747260008201527f616e7366657273206e6f7420737570706f727465640000000000000000000000602082015250565b6000615a44603583613fc8565b9150615a4f826159e8565b604082019050919050565b60006020820190508181036000830152615a7381615a37565b9050919050565b7f4e6f7420616e206f776e65720000000000000000000000000000000000000000600082015250565b6000615ab0600c83613fc8565b9150615abb82615a7a565b602082019050919050565b60006020820190508181036000830152615adf81615aa3565b9050919050565b6000615af18261406f565b915060008203615b0457615b036149c3565b5b600182039050919050565b600081519050919050565b600082825260208201905092915050565b6000615b3682615b0f565b615b408185615b1a565b9350615b50818560208601613fd9565b615b5981614003565b840191505092915050565b6000608082019050615b796000830187614104565b615b866020830186614104565b615b936040830185614200565b8181036060830152615ba58184615b2b565b905095945050505050565b600081519050615bbf81613ed5565b92915050565b600060208284031215615bdb57615bda613e9f565b5b6000615be984828501615bb0565b91505092915050565b7f4e487b7100000000000000000000000000000000000000000000000000000000600052603160045260246000fd5b7f4552433732313a206d696e7420746f20746865207a65726f2061646472657373600082015250565b6000615c57602083613fc8565b9150615c6282615c21565b602082019050919050565b60006020820190508181036000830152615c8681615c4a565b9050919050565b7f4552433732313a20746f6b656e20616c7265616479206d696e74656400000000600082015250565b6000615cc3601c83613fc8565b9150615cce82615c8d565b602082019050919050565b60006020820190508181036000830152615cf281615cb6565b905091905056fea26469706673582212206319442d7cf5100662d5f2eb0855e15daaeb1f7856ec3b79361102b9ee7d522f64736f6c63430008110033",
  "linkReferences": {},
  "deployedLinkReferences": {}
}