{
  "_format": "hh-sol-artifact-1",
  "contractName": "BabyCowz",
  "sourceName": "contracts/BabyCowz.sol",
  "abi": [
    {
      "inputs": [],
      "stateMutability": "nonpayable",
      "type": "constructor"
    },
    {
      "anonymous": false,
      "inputs": [
        {
          "indexed": true,
          "internalType": "address",
          "name": "owner",
          "type": "address"
        },
        {
          "indexed": true,
          "internalType": "address",
          "name": "approved",
          "type": "address"
        },
        {
          "indexed": true,
          "internalType": "uint256",
          "name": "tokenId",
          "type": "uint256"
        }
      ],
      "name": "Approval",
      "type": "event"
    },
    {
      "anonymous": false,
      "inputs": [
        {
          "indexed": true,
          "internalType": "address",
          "name": "owner",
          "type": "address"
        },
        {
          "indexed": true,
          "internalType": "address",
          "name": "operator",
          "type": "address"
        },
        {
          "indexed": false,
          "internalType": "bool",
          "name": "approved",
          "type": "bool"
        }
      ],
      "name": "ApprovalForAll",
      "type": "event"
    },
    {
      "anonymous": false,
      "inputs": [
        {
          "indexed": false,
          "internalType": "address",
          "name": "owner",
          "type": "address"
        },
        {
          "indexed": false,
          "internalType": "uint256",
          "name": "amount",
          "type": "uint256"
        }
      ],
      "name": "Claimed",
      "type": "event"
    },
    {
      "anonymous": false,
      "inputs": [
        {
          "indexed": false,
          "internalType": "address",
          "name": "owner",
          "type": "address"
        },
        {
          "indexed": false,
          "internalType": "uint256",
          "name": "tokenId",
          "type": "uint256"
        },
        {
          "indexed": false,
          "internalType": "uint256",
          "name": "value",
          "type": "uint256"
        }
      ],
      "name": "NFTStaked",
      "type": "event"
    },
    {
      "anonymous": false,
      "inputs": [
        {
          "indexed": false,
          "internalType": "address",
          "name": "owner",
          "type": "address"
        },
        {
          "indexed": false,
          "internalType": "uint256",
          "name": "tokenId",
          "type": "uint256"
        },
        {
          "indexed": false,
          "internalType": "uint256",
          "name": "value",
          "type": "uint256"
        }
      ],
      "name": "NFTUnstaked",
      "type": "event"
    },
    {
      "anonymous": false,
      "inputs": [
        {
          "indexed": true,
          "internalType": "address",
          "name": "previousOwner",
          "type": "address"
        },
        {
          "indexed": true,
          "internalType": "address",
          "name": "newOwner",
          "type": "address"
        }
      ],
      "name": "OwnershipTransferred",
      "type": "event"
    },
    {
      "anonymous": false,
      "inputs": [
        {
          "indexed": true,
          "internalType": "address",
          "name": "from",
          "type": "address"
        },
        {
          "indexed": true,
          "internalType": "address",
          "name": "to",
          "type": "address"
        },
        {
          "indexed": true,
          "internalType": "uint256",
          "name": "tokenId",
          "type": "uint256"
        }
      ],
      "name": "Transfer",
      "type": "event"
    },
    {
      "inputs": [
        {
          "internalType": "address",
          "name": "to",
          "type": "address"
        },
        {
          "internalType": "uint256",
          "name": "tokenId",
          "type": "uint256"
        }
      ],
      "name": "approve",
      "outputs": [],
      "stateMutability": "nonpayable",
      "type": "function"
    },
    {
      "inputs": [
        {
          "internalType": "address",
          "name": "owner",
          "type": "address"
        }
      ],
      "name": "balanceOf",
      "outputs": [
        {
          "internalType": "uint256",
          "name": "",
          "type": "uint256"
        }
      ],
      "stateMutability": "view",
      "type": "function"
    },
    {
      "inputs": [],
      "name": "baseExtension",
      "outputs": [
        {
          "internalType": "string",
          "name": "",
          "type": "string"
        }
      ],
      "stateMutability": "view",
      "type": "function"
    },
    {
      "inputs": [],
      "name": "baseURI",
      "outputs": [
        {
          "internalType": "string",
          "name": "",
          "type": "string"
        }
      ],
      "stateMutability": "view",
      "type": "function"
    },
    {
      "inputs": [
        {
          "internalType": "uint256",
          "name": "_tokenId",
          "type": "uint256"
        }
      ],
      "name": "claim",
      "outputs": [],
      "stateMutability": "nonpayable",
      "type": "function"
    },
    {
      "inputs": [
        {
          "internalType": "address",
          "name": "account",
          "type": "address"
        },
        {
          "internalType": "uint256",
          "name": "_tokenId",
          "type": "uint256"
        }
      ],
      "name": "claimForAddress",
      "outputs": [],
      "stateMutability": "nonpayable",
      "type": "function"
    },
    {
      "inputs": [],
      "name": "cost",
      "outputs": [
        {
          "internalType": "uint256",
          "name": "",
          "type": "uint256"
        }
      ],
      "stateMutability": "view",
      "type": "function"
    },
    {
      "inputs": [
        {
          "internalType": "uint256",
          "name": "_tokenId",
          "type": "uint256"
        }
      ],
      "name": "earningInfo",
      "outputs": [
        {
          "internalType": "uint256",
          "name": "info",
          "type": "uint256"
        }
      ],
      "stateMutability": "view",
      "type": "function"
    },
    {
      "inputs": [
        {
          "internalType": "uint256",
          "name": "tokenId",
          "type": "uint256"
        }
      ],
      "name": "getApproved",
      "outputs": [
        {
          "internalType": "address",
          "name": "",
          "type": "address"
        }
      ],
      "stateMutability": "view",
      "type": "function"
    },
    {
      "inputs": [
        {
          "internalType": "address",
          "name": "owner",
          "type": "address"
        },
        {
          "internalType": "address",
          "name": "operator",
          "type": "address"
        }
      ],
      "name": "isApprovedForAll",
      "outputs": [
        {
          "internalType": "bool",
          "name": "",
          "type": "bool"
        }
      ],
      "stateMutability": "view",
      "type": "function"
    },
    {
      "inputs": [],
      "name": "maxMintAmount",
      "outputs": [
        {
          "internalType": "uint256",
          "name": "",
          "type": "uint256"
        }
      ],
      "stateMutability": "view",
      "type": "function"
    },
    {
      "inputs": [],
      "name": "maxPerWallet",
      "outputs": [
        {
          "internalType": "uint256",
          "name": "",
          "type": "uint256"
        }
      ],
      "stateMutability": "view",
      "type": "function"
    },
    {
      "inputs": [],
      "name": "maxSupply",
      "outputs": [
        {
          "internalType": "uint256",
          "name": "",
          "type": "uint256"
        }
      ],
      "stateMutability": "view",
      "type": "function"
    },
    {
      "inputs": [
        {
          "internalType": "address",
          "name": "_to",
          "type": "address"
        },
        {
          "internalType": "uint256",
          "name": "_mintAmount",
          "type": "uint256"
        }
      ],
      "name": "mint",
      "outputs": [],
      "stateMutability": "payable",
      "type": "function"
    },
    {
      "inputs": [],
      "name": "name",
      "outputs": [
        {
          "internalType": "string",
          "name": "",
          "type": "string"
        }
      ],
      "stateMutability": "view",
      "type": "function"
    },
    {
      "inputs": [],
      "name": "notFoundIndex",
      "outputs": [
        {
          "internalType": "uint24",
          "name": "",
          "type": "uint24"
        }
      ],
      "stateMutability": "view",
      "type": "function"
    },
    {
      "inputs": [],
      "name": "owner",
      "outputs": [
        {
          "internalType": "address",
          "name": "",
          "type": "address"
        }
      ],
      "stateMutability": "view",
      "type": "function"
    },
    {
      "inputs": [
        {
          "internalType": "uint256",
          "name": "tokenId",
          "type": "uint256"
        }
      ],
      "name": "ownerOf",
      "outputs": [
        {
          "internalType": "address",
          "name": "",
          "type": "address"
        }
      ],
      "stateMutability": "view",
      "type": "function"
    },
    {
      "inputs": [
        {
          "internalType": "address",
          "name": "_account",
          "type": "address"
        }
      ],
      "name": "ownersCow",
      "outputs": [
        {
          "internalType": "uint24",
          "name": "",
          "type": "uint24"
        }
      ],
      "stateMutability": "view",
      "type": "function"
    },
    {
      "inputs": [],
      "name": "parentContract",
      "outputs": [
        {
          "internalType": "contract IERC721",
          "name": "",
          "type": "address"
        }
      ],
      "stateMutability": "view",
      "type": "function"
    },
    {
      "inputs": [
        {
          "internalType": "bool",
          "name": "_state",
          "type": "bool"
        }
      ],
      "name": "pause",
      "outputs": [],
      "stateMutability": "nonpayable",
      "type": "function"
    },
    {
      "inputs": [],
      "name": "paused",
      "outputs": [
        {
          "internalType": "bool",
          "name": "",
          "type": "bool"
        }
      ],
      "stateMutability": "view",
      "type": "function"
    },
    {
      "inputs": [
        {
          "internalType": "address",
          "name": "_user",
          "type": "address"
        }
      ],
      "name": "removeWhitelistUser",
      "outputs": [],
      "stateMutability": "nonpayable",
      "type": "function"
    },
    {
      "inputs": [],
      "name": "renounceOwnership",
      "outputs": [],
      "stateMutability": "nonpayable",
      "type": "function"
    },
    {
      "inputs": [
        {
          "internalType": "address",
          "name": "from",
          "type": "address"
        },
        {
          "internalType": "address",
          "name": "to",
          "type": "address"
        },
        {
          "internalType": "uint256",
          "name": "tokenId",
          "type": "uint256"
        }
      ],
      "name": "safeTransferFrom",
      "outputs": [],
      "stateMutability": "nonpayable",
      "type": "function"
    },
    {
      "inputs": [
        {
          "internalType": "address",
          "name": "from",
          "type": "address"
        },
        {
          "internalType": "address",
          "name": "to",
          "type": "address"
        },
        {
          "internalType": "uint256",
          "name": "tokenId",
          "type": "uint256"
        },
        {
          "internalType": "bytes",
          "name": "data",
          "type": "bytes"
        }
      ],
      "name": "safeTransferFrom",
      "outputs": [],
      "stateMutability": "nonpayable",
      "type": "function"
    },
    {
      "inputs": [
        {
          "internalType": "address",
          "name": "operator",
          "type": "address"
        },
        {
          "internalType": "bool",
          "name": "approved",
          "type": "bool"
        }
      ],
      "name": "setApprovalForAll",
      "outputs": [],
      "stateMutability": "nonpayable",
      "type": "function"
    },
    {
      "inputs": [
        {
          "internalType": "string",
          "name": "_newBaseExtension",
          "type": "string"
        }
      ],
      "name": "setBaseExtension",
      "outputs": [],
      "stateMutability": "nonpayable",
      "type": "function"
    },
    {
      "inputs": [
        {
          "internalType": "string",
          "name": "_newBaseURI",
          "type": "string"
        }
      ],
      "name": "setBaseURI",
      "outputs": [],
      "stateMutability": "nonpayable",
      "type": "function"
    },
    {
      "inputs": [
        {
          "internalType": "uint256",
          "name": "_newCost",
          "type": "uint256"
        }
      ],
      "name": "setCost",
      "outputs": [],
      "stateMutability": "nonpayable",
      "type": "function"
    },
    {
      "inputs": [
        {
          "internalType": "uint256",
          "name": "_newMaxMintAmount",
          "type": "uint256"
        }
      ],
      "name": "setMaxMintAmount",
      "outputs": [],
      "stateMutability": "nonpayable",
      "type": "function"
    },
    {
      "inputs": [
        {
          "internalType": "uint256",
          "name": "_newMaxPerWallet",
          "type": "uint256"
        }
      ],
      "name": "setMaxPerWallet",
      "outputs": [],
      "stateMutability": "nonpayable",
      "type": "function"
    },
    {
      "inputs": [
        {
          "internalType": "address",
          "name": "_parentAddress",
          "type": "address"
        }
      ],
      "name": "setParentAddress",
      "outputs": [],
      "stateMutability": "nonpayable",
      "type": "function"
    },
    {
      "inputs": [
        {
          "internalType": "uint256",
          "name": "_tokenId",
          "type": "uint256"
        }
      ],
      "name": "stake",
      "outputs": [],
      "stateMutability": "nonpayable",
      "type": "function"
    },
    {
      "inputs": [
        {
          "internalType": "bytes4",
          "name": "interfaceId",
          "type": "bytes4"
        }
      ],
      "name": "supportsInterface",
      "outputs": [
        {
          "internalType": "bool",
          "name": "",
          "type": "bool"
        }
      ],
      "stateMutability": "view",
      "type": "function"
    },
    {
      "inputs": [],
      "name": "symbol",
      "outputs": [
        {
          "internalType": "string",
          "name": "",
          "type": "string"
        }
      ],
      "stateMutability": "view",
      "type": "function"
    },
    {
      "inputs": [
        {
          "internalType": "uint256",
          "name": "index",
          "type": "uint256"
        }
      ],
      "name": "tokenByIndex",
      "outputs": [
        {
          "internalType": "uint256",
          "name": "",
          "type": "uint256"
        }
      ],
      "stateMutability": "view",
      "type": "function"
    },
    {
      "inputs": [
        {
          "internalType": "address",
          "name": "owner",
          "type": "address"
        },
        {
          "internalType": "uint256",
          "name": "index",
          "type": "uint256"
        }
      ],
      "name": "tokenOfOwnerByIndex",
      "outputs": [
        {
          "internalType": "uint256",
          "name": "",
          "type": "uint256"
        }
      ],
      "stateMutability": "view",
      "type": "function"
    },
    {
      "inputs": [
        {
          "internalType": "uint256",
          "name": "tokenId",
          "type": "uint256"
        }
      ],
      "name": "tokenURI",
      "outputs": [
        {
          "internalType": "string",
          "name": "",
          "type": "string"
        }
      ],
      "stateMutability": "view",
      "type": "function"
    },
    {
      "inputs": [],
      "name": "totalStaked",
      "outputs": [
        {
          "internalType": "uint256",
          "name": "",
          "type": "uint256"
        }
      ],
      "stateMutability": "view",
      "type": "function"
    },
    {
      "inputs": [],
      "name": "totalSupply",
      "outputs": [
        {
          "internalType": "uint256",
          "name": "",
          "type": "uint256"
        }
      ],
      "stateMutability": "view",
      "type": "function"
    },
    {
      "inputs": [
        {
          "internalType": "address",
          "name": "from",
          "type": "address"
        },
        {
          "internalType": "address",
          "name": "to",
          "type": "address"
        },
        {
          "internalType": "uint256",
          "name": "tokenId",
          "type": "uint256"
        }
      ],
      "name": "transferFrom",
      "outputs": [],
      "stateMutability": "nonpayable",
      "type": "function"
    },
    {
      "inputs": [
        {
          "internalType": "address",
          "name": "newOwner",
          "type": "address"
        }
      ],
      "name": "transferOwnership",
      "outputs": [],
      "stateMutability": "nonpayable",
      "type": "function"
    },
    {
      "inputs": [
        {
          "internalType": "uint256",
          "name": "_tokenId",
          "type": "uint256"
        }
      ],
      "name": "unstake",
      "outputs": [],
      "stateMutability": "nonpayable",
      "type": "function"
    },
    {
      "inputs": [
        {
          "internalType": "uint256",
          "name": "",
          "type": "uint256"
        }
      ],
      "name": "vault",
      "outputs": [
        {
          "internalType": "uint24",
          "name": "tokenId",
          "type": "uint24"
        },
        {
          "internalType": "uint48",
          "name": "timestamp",
          "type": "uint48"
        },
        {
          "internalType": "address",
          "name": "owner",
          "type": "address"
        }
      ],
      "stateMutability": "view",
      "type": "function"
    },
    {
      "inputs": [
        {
          "internalType": "address",
          "name": "_owner",
          "type": "address"
        }
      ],
      "name": "walletOfOwner",
      "outputs": [
        {
          "internalType": "uint256[]",
          "name": "",
          "type": "uint256[]"
        }
      ],
      "stateMutability": "view",
      "type": "function"
    },
    {
      "inputs": [
        {
          "internalType": "address",
          "name": "_user",
          "type": "address"
        }
      ],
      "name": "whitelistUser",
      "outputs": [],
      "stateMutability": "nonpayable",
      "type": "function"
    },
    {
      "inputs": [
        {
          "internalType": "address",
          "name": "",
          "type": "address"
        }
      ],
      "name": "whitelisted",
      "outputs": [
        {
          "internalType": "bool",
          "name": "",
          "type": "bool"
        }
      ],
      "stateMutability": "view",
      "type": "function"
    },
    {
      "inputs": [],
      "name": "withdraw",
      "outputs": [],
      "stateMutability": "payable",
      "type": "function"
    }
  ],
  "bytecode": "0x60806040526040518060400160405280600581526020017f2e6a736f6e000000000000000000000000000000000000000000000000000000815250600c90816200004a9190620004a9565b506000600d556107d0600e556001600f5560016010556001601160006101000a81548160ff0219169083151502179055506000601560006101000a81548162ffffff021916908362ffffff160217905550348015620000a857600080fd5b506040518060400160405280600881526020017f42616279436f777a0000000000000000000000000000000000000000000000008152506040518060400160405280600581526020017f62434f575a0000000000000000000000000000000000000000000000000000008152508160009081620001269190620004a9565b508060019081620001389190620004a9565b5050506200015b6200014f6200016160201b60201c565b6200016960201b60201c565b62000590565b600033905090565b6000600a60009054906101000a900473ffffffffffffffffffffffffffffffffffffffff16905081600a60006101000a81548173ffffffffffffffffffffffffffffffffffffffff021916908373ffffffffffffffffffffffffffffffffffffffff1602179055508173ffffffffffffffffffffffffffffffffffffffff168173ffffffffffffffffffffffffffffffffffffffff167f8be0079c531659141344cd1fd0a4f28419497f9722a3daafe3b4186f6b6457e060405160405180910390a35050565b600081519050919050565b7f4e487b7100000000000000000000000000000000000000000000000000000000600052604160045260246000fd5b7f4e487b7100000000000000000000000000000000000000000000000000000000600052602260045260246000fd5b60006002820490506001821680620002b157607f821691505b602082108103620002c757620002c662000269565b5b50919050565b60008190508160005260206000209050919050565b60006020601f8301049050919050565b600082821b905092915050565b600060088302620003317fffffffffffffffffffffffffffffffffffffffffffffffffffffffffffffffff82620002f2565b6200033d8683620002f2565b95508019841693508086168417925050509392505050565b6000819050919050565b6000819050919050565b60006200038a620003846200037e8462000355565b6200035f565b62000355565b9050919050565b6000819050919050565b620003a68362000369565b620003be620003b58262000391565b848454620002ff565b825550505050565b600090565b620003d5620003c6565b620003e28184846200039b565b505050565b5b818110156200040a57620003fe600082620003cb565b600181019050620003e8565b5050565b601f82111562000459576200042381620002cd565b6200042e84620002e2565b810160208510156200043e578190505b620004566200044d85620002e2565b830182620003e7565b50505b505050565b600082821c905092915050565b60006200047e600019846008026200045e565b1980831691505092915050565b60006200049983836200046b565b9150826002028217905092915050565b620004b4826200022f565b67ffffffffffffffff811115620004d057620004cf6200023a565b5b620004dc825462000298565b620004e98282856200040e565b600060209050601f8311600181146200052157600084156200050c578287015190505b6200051885826200048b565b86555062000588565b601f1984166200053186620002cd565b60005b828110156200055b5784890151825560018201915060208501945060208101905062000534565b868310156200057b578489015162000577601f8916826200046b565b8355505b6001600288020188555050505b505050505050565b615c8b80620005a06000396000f3fe6080604052600436106102ae5760003560e01c806355f804b311610175578063a22cb465116100dc578063d936547e11610095578063e268e4d31161006f578063e268e4d314610ab8578063e985e9c514610ae1578063f2fde38b14610b1e578063fa5afe4014610b47576102ae565b8063d936547e14610a29578063da3ef23f14610a66578063db82655314610a8f576102ae565b8063a22cb4651461091b578063a694fc3a14610944578063b88d4fde1461096d578063c668286214610996578063c87b56dd146109c1578063d5abeb01146109fe576102ae565b8063817b1cd21161012e578063817b1cd2146107f357806381a36fb61461081e57806382bb48171461085d5780638da5cb5b1461088857806395d89b41146108b3578063987e6595146108de576102ae565b806355f804b3146106e35780635c975abb1461070c5780636352211e146107375780636c0360eb1461077457806370a082311461079f578063715018a6146107dc576102ae565b80632e17de781161021957806342842e0e116101d257806342842e0e146105c3578063438b6300146105ec57806344a0d68a14610629578063453c2310146106525780634a4c560d1461067d5780634f6ccce7146106a6576102ae565b80632e17de78146104e55780632f745c591461050e57806330cc7ae01461054b578063379607f5146105745780633ccfd60b1461059d57806340c10f19146105a7576102ae565b80630d1f01751161026b5780630d1f0175146103d357806313faede61461041057806318160ddd1461043b578063230b9da314610466578063239c70ae1461049157806323b872dd146104bc576102ae565b806301ffc9a7146102b357806302329a29146102f057806306fdde0314610319578063081812fc14610344578063088a4ed014610381578063095ea7b3146103aa575b600080fd5b3480156102bf57600080fd5b506102da60048036038101906102d59190613f4b565b610b70565b6040516102e79190613f93565b60405180910390f35b3480156102fc57600080fd5b5061031760048036038101906103129190613fda565b610bea565b005b34801561032557600080fd5b5061032e610c0f565b60405161033b9190614097565b60405180910390f35b34801561035057600080fd5b5061036b600480360381019061036691906140ef565b610ca1565b604051610378919061415d565b60405180910390f35b34801561038d57600080fd5b506103a860048036038101906103a391906140ef565b610ce7565b005b3480156103b657600080fd5b506103d160048036038101906103cc91906141a4565b610cf9565b005b3480156103df57600080fd5b506103fa60048036038101906103f591906141e4565b610e10565b604051610407919061422f565b60405180910390f35b34801561041c57600080fd5b50610425610f9d565b6040516104329190614259565b60405180910390f35b34801561044757600080fd5b50610450610fa3565b60405161045d9190614259565b60405180910390f35b34801561047257600080fd5b5061047b610fb0565b60405161048891906142d3565b60405180910390f35b34801561049d57600080fd5b506104a6610fd6565b6040516104b39190614259565b60405180910390f35b3480156104c857600080fd5b506104e360048036038101906104de91906142ee565b610fdc565b005b3480156104f157600080fd5b5061050c600480360381019061050791906140ef565b61103c565b005b34801561051a57600080fd5b50610535600480360381019061053091906141a4565b61104b565b6040516105429190614259565b60405180910390f35b34801561055757600080fd5b50610572600480360381019061056d91906141e4565b6110f0565b005b34801561058057600080fd5b5061059b600480360381019061059691906140ef565b611153565b005b6105a5611162565b005b6105c160048036038101906105bc91906141a4565b6111aa565b005b3480156105cf57600080fd5b506105ea60048036038101906105e591906142ee565b611421565b005b3480156105f857600080fd5b50610613600480360381019061060e91906141e4565b611441565b60405161062091906143ff565b60405180910390f35b34801561063557600080fd5b50610650600480360381019061064b91906140ef565b6114ef565b005b34801561065e57600080fd5b50610667611501565b6040516106749190614259565b60405180910390f35b34801561068957600080fd5b506106a4600480360381019061069f91906141e4565b611507565b005b3480156106b257600080fd5b506106cd60048036038101906106c891906140ef565b61156a565b6040516106da9190614259565b60405180910390f35b3480156106ef57600080fd5b5061070a60048036038101906107059190614556565b6115db565b005b34801561071857600080fd5b506107216115f6565b60405161072e9190613f93565b60405180910390f35b34801561074357600080fd5b5061075e600480360381019061075991906140ef565b611609565b60405161076b919061415d565b60405180910390f35b34801561078057600080fd5b5061078961168f565b6040516107969190614097565b60405180910390f35b3480156107ab57600080fd5b506107c660048036038101906107c191906141e4565b61171d565b6040516107d39190614259565b60405180910390f35b3480156107e857600080fd5b506107f16117d4565b005b3480156107ff57600080fd5b506108086117e8565b6040516108159190614259565b60405180910390f35b34801561082a57600080fd5b50610845600480360381019061084091906140ef565b6117ee565b604051610854939291906145c0565b60405180910390f35b34801561086957600080fd5b50610872611859565b60405161087f919061422f565b60405180910390f35b34801561089457600080fd5b5061089d61186e565b6040516108aa919061415d565b60405180910390f35b3480156108bf57600080fd5b506108c8611898565b6040516108d59190614097565b60405180910390f35b3480156108ea57600080fd5b50610905600480360381019061090091906140ef565b61192a565b6040516109129190614259565b60405180910390f35b34801561092757600080fd5b50610942600480360381019061093d91906145f7565b611a49565b005b34801561095057600080fd5b5061096b600480360381019061096691906140ef565b611a5f565b005b34801561097957600080fd5b50610994600480360381019061098f91906146d8565b611da7565b005b3480156109a257600080fd5b506109ab611e09565b6040516109b89190614097565b60405180910390f35b3480156109cd57600080fd5b506109e860048036038101906109e391906140ef565b611e97565b6040516109f59190614097565b60405180910390f35b348015610a0a57600080fd5b50610a13611f41565b604051610a209190614259565b60405180910390f35b348015610a3557600080fd5b50610a506004803603810190610a4b91906141e4565b611f47565b604051610a5d9190613f93565b60405180910390f35b348015610a7257600080fd5b50610a8d6004803603810190610a889190614556565b611f67565b005b348015610a9b57600080fd5b50610ab66004803603810190610ab191906141a4565b611f82565b005b348015610ac457600080fd5b50610adf6004803603810190610ada91906140ef565b611f92565b005b348015610aed57600080fd5b50610b086004803603810190610b03919061475b565b611fa4565b604051610b159190613f93565b60405180910390f35b348015610b2a57600080fd5b50610b456004803603810190610b4091906141e4565b612038565b005b348015610b5357600080fd5b50610b6e6004803603810190610b6991906141e4565b6120bb565b005b60007f780e9d63000000000000000000000000000000000000000000000000000000007bffffffffffffffffffffffffffffffffffffffffffffffffffffffff1916827bffffffffffffffffffffffffffffffffffffffffffffffffffffffff19161480610be35750610be282612107565b5b9050919050565b610bf26121e9565b80601160006101000a81548160ff02191690831515021790555050565b606060008054610c1e906147ca565b80601f0160208091040260200160405190810160405280929190818152602001828054610c4a906147ca565b8015610c975780601f10610c6c57610100808354040283529160200191610c97565b820191906000526020600020905b815481529060010190602001808311610c7a57829003601f168201915b5050505050905090565b6000610cac82612267565b6004600083815260200190815260200160002060009054906101000a900473ffffffffffffffffffffffffffffffffffffffff169050919050565b610cef6121e9565b80600f8190555050565b6000610d0482611609565b90508073ffffffffffffffffffffffffffffffffffffffff168373ffffffffffffffffffffffffffffffffffffffff1603610d74576040517f08c379a0000000000000000000000000000000000000000000000000000000008152600401610d6b9061486d565b60405180910390fd5b8073ffffffffffffffffffffffffffffffffffffffff16610d936122b2565b73ffffffffffffffffffffffffffffffffffffffff161480610dc25750610dc181610dbc6122b2565b611fa4565b5b610e01576040517f08c379a0000000000000000000000000000000000000000000000000000000008152600401610df8906148ff565b60405180910390fd5b610e0b83836122ba565b505050565b600080600190505b60c8817effffffffffffffffffffffffffffffffffffffffffffffffffffffffffffff1611610f8257600060166000837effffffffffffffffffffffffffffffffffffffffffffffffffffffffffffff1681526020019081526020016000206040518060600160405290816000820160009054906101000a900462ffffff1662ffffff1662ffffff1681526020016000820160039054906101000a900465ffffffffffff1665ffffffffffff1665ffffffffffff1681526020016000820160099054906101000a900473ffffffffffffffffffffffffffffffffffffffff1673ffffffffffffffffffffffffffffffffffffffff1673ffffffffffffffffffffffffffffffffffffffff168152505090508373ffffffffffffffffffffffffffffffffffffffff16816040015173ffffffffffffffffffffffffffffffffffffffff1603610f6e57806000015192505050610f98565b508080610f7a90614979565b915050610e18565b50601560009054906101000a900462ffffff1690505b919050565b600d5481565b6000600880549050905090565b601360009054906101000a900473ffffffffffffffffffffffffffffffffffffffff1681565b600f5481565b610fed610fe76122b2565b82612373565b61102c576040517f08c379a000000000000000000000000000000000000000000000000000000000815260040161102390614a32565b60405180910390fd5b611037838383612408565b505050565b61104833826001612701565b50565b60006110568361171d565b8210611097576040517f08c379a000000000000000000000000000000000000000000000000000000000815260040161108e90614ac4565b60405180910390fd5b600660008473ffffffffffffffffffffffffffffffffffffffff1673ffffffffffffffffffffffffffffffffffffffff168152602001908152602001600020600083815260200190815260200160002054905092915050565b6110f86121e9565b6000601260008373ffffffffffffffffffffffffffffffffffffffff1673ffffffffffffffffffffffffffffffffffffffff16815260200190815260200160002060006101000a81548160ff02191690831515021790555050565b61115f33826000612701565b50565b61116a6121e9565b3373ffffffffffffffffffffffffffffffffffffffff166108fc479081150290604051600060405180830381858888f193505050506111a857600080fd5b565b60006111b4610fa3565b9050601160009054906101000a900460ff1615611206576040517f08c379a00000000000000000000000000000000000000000000000000000000081526004016111fd90614b30565b60405180910390fd5b60008211611249576040517f08c379a000000000000000000000000000000000000000000000000000000000815260040161124090614b9c565b60405180910390fd5b600f5482111561128e576040517f08c379a000000000000000000000000000000000000000000000000000000000815260040161128590614c08565b60405180910390fd5b601054600161129c3361171d565b6112a69190614c28565b11156112e7576040517f08c379a00000000000000000000000000000000000000000000000000000000081526004016112de90614ca8565b60405180910390fd5b600e5482826112f69190614c28565b1115611337576040517f08c379a000000000000000000000000000000000000000000000000000000000815260040161132e90614d14565b60405180910390fd5b61133f61186e565b73ffffffffffffffffffffffffffffffffffffffff163373ffffffffffffffffffffffffffffffffffffffff16146113e55760011515601260003373ffffffffffffffffffffffffffffffffffffffff1673ffffffffffffffffffffffffffffffffffffffff16815260200190815260200160002060009054906101000a900460ff161515146113e45781600d546113d79190614d34565b3410156113e357600080fd5b5b5b6000600190505b82811161141b576114088482846114039190614c28565b6129e1565b808061141390614d76565b9150506113ec565b50505050565b61143c83838360405180602001604052806000815250611da7565b505050565b6060600061144e8361171d565b905060008167ffffffffffffffff81111561146c5761146b61442b565b5b60405190808252806020026020018201604052801561149a5781602001602082028036833780820191505090505b50905060005b828110156114e4576114b2858261104b565b8282815181106114c5576114c4614dbe565b5b60200260200101818152505080806114dc90614d76565b9150506114a0565b508092505050919050565b6114f76121e9565b80600d8190555050565b60105481565b61150f6121e9565b6001601260008373ffffffffffffffffffffffffffffffffffffffff1673ffffffffffffffffffffffffffffffffffffffff16815260200190815260200160002060006101000a81548160ff02191690831515021790555050565b6000611574610fa3565b82106115b5576040517f08c379a00000000000000000000000000000000000000000000000000000000081526004016115ac90614e5f565b60405180910390fd5b600882815481106115c9576115c8614dbe565b5b90600052602060002001549050919050565b6115e36121e9565b80600b90816115f29190615021565b5050565b601160009054906101000a900460ff1681565b600080611615836129ff565b9050600073ffffffffffffffffffffffffffffffffffffffff168173ffffffffffffffffffffffffffffffffffffffff1603611686576040517f08c379a000000000000000000000000000000000000000000000000000000000815260040161167d9061513f565b60405180910390fd5b80915050919050565b600b805461169c906147ca565b80601f01602080910402602001604051908101604052809291908181526020018280546116c8906147ca565b80156117155780601f106116ea57610100808354040283529160200191611715565b820191906000526020600020905b8154815290600101906020018083116116f857829003601f168201915b505050505081565b60008073ffffffffffffffffffffffffffffffffffffffff168273ffffffffffffffffffffffffffffffffffffffff160361178d576040517f08c379a0000000000000000000000000000000000000000000000000000000008152600401611784906151d1565b60405180910390fd5b600360008373ffffffffffffffffffffffffffffffffffffffff1673ffffffffffffffffffffffffffffffffffffffff168152602001908152602001600020549050919050565b6117dc6121e9565b6117e66000612a3c565b565b60145481565b60166020528060005260406000206000915090508060000160009054906101000a900462ffffff16908060000160039054906101000a900465ffffffffffff16908060000160099054906101000a900473ffffffffffffffffffffffffffffffffffffffff16905083565b601560009054906101000a900462ffffff1681565b6000600a60009054906101000a900473ffffffffffffffffffffffffffffffffffffffff16905090565b6060600180546118a7906147ca565b80601f01602080910402602001604051908101604052809291908181526020018280546118d3906147ca565b80156119205780601f106118f557610100808354040283529160200191611920565b820191906000526020600020905b81548152906001019060200180831161190357829003601f168201915b5050505050905090565b600080600090506000601660008581526020019081526020016000206040518060600160405290816000820160009054906101000a900462ffffff1662ffffff1662ffffff1681526020016000820160039054906101000a900465ffffffffffff1665ffffffffffff1665ffffffffffff1681526020016000820160099054906101000a900473ffffffffffffffffffffffffffffffffffffffff1673ffffffffffffffffffffffffffffffffffffffff1673ffffffffffffffffffffffffffffffffffffffff1681525050905062278d00816020015165ffffffffffff1642611a1491906151f1565b68056bc75e2d63100000611a289190614d34565b611a329190615254565b82611a3d9190614c28565b91508192505050919050565b611a5b611a546122b2565b8383612b02565b5050565b3373ffffffffffffffffffffffffffffffffffffffff16601360009054906101000a900473ffffffffffffffffffffffffffffffffffffffff1673ffffffffffffffffffffffffffffffffffffffff16636352211e836040518263ffffffff1660e01b8152600401611ad19190614259565b602060405180830381865afa158015611aee573d6000803e3d6000fd5b505050506040513d601f19601f82011682018060405250810190611b12919061529a565b73ffffffffffffffffffffffffffffffffffffffff1614611b68576040517f08c379a0000000000000000000000000000000000000000000000000000000008152600401611b5f90615313565b60405180910390fd5b60006016600083815260200190815260200160002060000160009054906101000a900462ffffff1662ffffff1614611bd5576040517f08c379a0000000000000000000000000000000000000000000000000000000008152600401611bcc9061537f565b60405180910390fd5b601360009054906101000a900473ffffffffffffffffffffffffffffffffffffffff1673ffffffffffffffffffffffffffffffffffffffff166323b872dd3330846040518463ffffffff1660e01b8152600401611c349392919061539f565b600060405180830381600087803b158015611c4e57600080fd5b505af1158015611c62573d6000803e3d6000fd5b505050507f36b3725f1783bad4ff05b7f4c077c3aa68eeb23a4d054ba189db4d01ac278d39338242604051611c99939291906153d6565b60405180910390a160405180606001604052808262ffffff1681526020014265ffffffffffff1681526020013373ffffffffffffffffffffffffffffffffffffffff168152506016600083815260200190815260200160002060008201518160000160006101000a81548162ffffff021916908362ffffff16021790555060208201518160000160036101000a81548165ffffffffffff021916908365ffffffffffff16021790555060408201518160000160096101000a81548173ffffffffffffffffffffffffffffffffffffffff021916908373ffffffffffffffffffffffffffffffffffffffff16021790555090505060146000815480929190611d9f90614d76565b919050555050565b611db8611db26122b2565b83612373565b611df7576040517f08c379a0000000000000000000000000000000000000000000000000000000008152600401611dee90614a32565b60405180910390fd5b611e0384848484612c6e565b50505050565b600c8054611e16906147ca565b80601f0160208091040260200160405190810160405280929190818152602001828054611e42906147ca565b8015611e8f5780601f10611e6457610100808354040283529160200191611e8f565b820191906000526020600020905b815481529060010190602001808311611e7257829003601f168201915b505050505081565b6060611ea282612cca565b611ee1576040517f08c379a0000000000000000000000000000000000000000000000000000000008152600401611ed89061547f565b60405180910390fd5b6000611eeb612d0b565b90506000815111611f0b5760405180602001604052806000815250611f39565b80611f1584612d9d565b600c604051602001611f299392919061555e565b6040516020818303038152906040525b915050919050565b600e5481565b60126020528060005260406000206000915054906101000a900460ff1681565b611f6f6121e9565b80600c9081611f7e9190615021565b5050565b611f8e82826000612701565b5050565b611f9a6121e9565b8060108190555050565b6000600560008473ffffffffffffffffffffffffffffffffffffffff1673ffffffffffffffffffffffffffffffffffffffff16815260200190815260200160002060008373ffffffffffffffffffffffffffffffffffffffff1673ffffffffffffffffffffffffffffffffffffffff16815260200190815260200160002060009054906101000a900460ff16905092915050565b6120406121e9565b600073ffffffffffffffffffffffffffffffffffffffff168173ffffffffffffffffffffffffffffffffffffffff16036120af576040517f08c379a00000000000000000000000000000000000000000000000000000000081526004016120a690615601565b60405180910390fd5b6120b881612a3c565b50565b6120c36121e9565b80601360006101000a81548173ffffffffffffffffffffffffffffffffffffffff021916908373ffffffffffffffffffffffffffffffffffffffff16021790555050565b60007f80ac58cd000000000000000000000000000000000000000000000000000000007bffffffffffffffffffffffffffffffffffffffffffffffffffffffff1916827bffffffffffffffffffffffffffffffffffffffffffffffffffffffff191614806121d257507f5b5e139f000000000000000000000000000000000000000000000000000000007bffffffffffffffffffffffffffffffffffffffffffffffffffffffff1916827bffffffffffffffffffffffffffffffffffffffffffffffffffffffff1916145b806121e257506121e182612e6b565b5b9050919050565b6121f16122b2565b73ffffffffffffffffffffffffffffffffffffffff1661220f61186e565b73ffffffffffffffffffffffffffffffffffffffff1614612265576040517f08c379a000000000000000000000000000000000000000000000000000000000815260040161225c9061566d565b60405180910390fd5b565b61227081612cca565b6122af576040517f08c379a00000000000000000000000000000000000000000000000000000000081526004016122a69061513f565b60405180910390fd5b50565b600033905090565b816004600083815260200190815260200160002060006101000a81548173ffffffffffffffffffffffffffffffffffffffff021916908373ffffffffffffffffffffffffffffffffffffffff160217905550808273ffffffffffffffffffffffffffffffffffffffff1661232d83611609565b73ffffffffffffffffffffffffffffffffffffffff167f8c5be1e5ebec7d5bd14f71427d1e84f3dd0314c0f7b2291e5b200ac8c7c3b92560405160405180910390a45050565b60008061237f83611609565b90508073ffffffffffffffffffffffffffffffffffffffff168473ffffffffffffffffffffffffffffffffffffffff1614806123c157506123c08185611fa4565b5b806123ff57508373ffffffffffffffffffffffffffffffffffffffff166123e784610ca1565b73ffffffffffffffffffffffffffffffffffffffff16145b91505092915050565b8273ffffffffffffffffffffffffffffffffffffffff1661242882611609565b73ffffffffffffffffffffffffffffffffffffffff161461247e576040517f08c379a0000000000000000000000000000000000000000000000000000000008152600401612475906156ff565b60405180910390fd5b600073ffffffffffffffffffffffffffffffffffffffff168273ffffffffffffffffffffffffffffffffffffffff16036124ed576040517f08c379a00000000000000000000000000000000000000000000000000000000081526004016124e490615791565b60405180910390fd5b6124fa8383836001612ed5565b8273ffffffffffffffffffffffffffffffffffffffff1661251a82611609565b73ffffffffffffffffffffffffffffffffffffffff1614612570576040517f08c379a0000000000000000000000000000000000000000000000000000000008152600401612567906156ff565b60405180910390fd5b6004600082815260200190815260200160002060006101000a81549073ffffffffffffffffffffffffffffffffffffffff02191690556001600360008573ffffffffffffffffffffffffffffffffffffffff1673ffffffffffffffffffffffffffffffffffffffff168152602001908152602001600020600082825403925050819055506001600360008473ffffffffffffffffffffffffffffffffffffffff1673ffffffffffffffffffffffffffffffffffffffff16815260200190815260200160002060008282540192505081905550816002600083815260200190815260200160002060006101000a81548173ffffffffffffffffffffffffffffffffffffffff021916908373ffffffffffffffffffffffffffffffffffffffff160217905550808273ffffffffffffffffffffffffffffffffffffffff168473ffffffffffffffffffffffffffffffffffffffff167fddf252ad1be2c89b69c2b068fc378daa952ba7f163c4a11628f55a4df523b3ef60405160405180910390a46126fc8383836001613033565b505050565b600080601660008581526020019081526020016000206040518060600160405290816000820160009054906101000a900462ffffff1662ffffff1662ffffff1681526020016000820160039054906101000a900465ffffffffffff1665ffffffffffff1665ffffffffffff1681526020016000820160099054906101000a900473ffffffffffffffffffffffffffffffffffffffff1673ffffffffffffffffffffffffffffffffffffffff1673ffffffffffffffffffffffffffffffffffffffff168152505090508473ffffffffffffffffffffffffffffffffffffffff16816040015173ffffffffffffffffffffffffffffffffffffffff161461283b576040517f08c379a0000000000000000000000000000000000000000000000000000000008152600401612832906157fd565b60405180910390fd5b62278d00816020015165ffffffffffff164261285791906151f1565b68056bc75e2d6310000061286b9190614d34565b6128759190615254565b826128809190614c28565b915060405180606001604052808562ffffff1681526020014265ffffffffffff1681526020018673ffffffffffffffffffffffffffffffffffffffff168152506016600086815260200190815260200160002060008201518160000160006101000a81548162ffffff021916908362ffffff16021790555060208201518160000160036101000a81548165ffffffffffff021916908365ffffffffffff16021790555060408201518160000160096101000a81548173ffffffffffffffffffffffffffffffffffffffff021916908373ffffffffffffffffffffffffffffffffffffffff160217905550905050600082111561299057600a826129839190615254565b915061298f8583613039565b5b82156129a1576129a085856132b0565b5b7fd8138f8a3f377c5259ca548e70e4c2de94f129f5a11036a15b69513cba2b426a85836040516129d292919061581d565b60405180910390a15050505050565b6129fb82826040518060200160405280600081525061353e565b5050565b60006002600083815260200190815260200160002060009054906101000a900473ffffffffffffffffffffffffffffffffffffffff169050919050565b6000600a60009054906101000a900473ffffffffffffffffffffffffffffffffffffffff16905081600a60006101000a81548173ffffffffffffffffffffffffffffffffffffffff021916908373ffffffffffffffffffffffffffffffffffffffff1602179055508173ffffffffffffffffffffffffffffffffffffffff168173ffffffffffffffffffffffffffffffffffffffff167f8be0079c531659141344cd1fd0a4f28419497f9722a3daafe3b4186f6b6457e060405160405180910390a35050565b8173ffffffffffffffffffffffffffffffffffffffff168373ffffffffffffffffffffffffffffffffffffffff1603612b70576040517f08c379a0000000000000000000000000000000000000000000000000000000008152600401612b6790615892565b60405180910390fd5b80600560008573ffffffffffffffffffffffffffffffffffffffff1673ffffffffffffffffffffffffffffffffffffffff16815260200190815260200160002060008473ffffffffffffffffffffffffffffffffffffffff1673ffffffffffffffffffffffffffffffffffffffff16815260200190815260200160002060006101000a81548160ff0219169083151502179055508173ffffffffffffffffffffffffffffffffffffffff168373ffffffffffffffffffffffffffffffffffffffff167f17307eab39ab6107e8899845ad3d59bd9653f200f220920489ca2b5937696c3183604051612c619190613f93565b60405180910390a3505050565b612c79848484612408565b612c8584848484613599565b612cc4576040517f08c379a0000000000000000000000000000000000000000000000000000000008152600401612cbb90615924565b60405180910390fd5b50505050565b60008073ffffffffffffffffffffffffffffffffffffffff16612cec836129ff565b73ffffffffffffffffffffffffffffffffffffffff1614159050919050565b6060600b8054612d1a906147ca565b80601f0160208091040260200160405190810160405280929190818152602001828054612d46906147ca565b8015612d935780601f10612d6857610100808354040283529160200191612d93565b820191906000526020600020905b815481529060010190602001808311612d7657829003601f168201915b5050505050905090565b606060006001612dac84613720565b01905060008167ffffffffffffffff811115612dcb57612dca61442b565b5b6040519080825280601f01601f191660200182016040528015612dfd5781602001600182028036833780820191505090505b509050600082602001820190505b600115612e60578080600190039150507f3031323334353637383961626364656600000000000000000000000000000000600a86061a8153600a8581612e5457612e53615225565b5b04945060008503612e0b575b819350505050919050565b60007f01ffc9a7000000000000000000000000000000000000000000000000000000007bffffffffffffffffffffffffffffffffffffffffffffffffffffffff1916827bffffffffffffffffffffffffffffffffffffffffffffffffffffffff1916149050919050565b612ee184848484613873565b6001811115612f25576040517f08c379a0000000000000000000000000000000000000000000000000000000008152600401612f1c906159b6565b60405180910390fd5b6000829050600073ffffffffffffffffffffffffffffffffffffffff168573ffffffffffffffffffffffffffffffffffffffff1603612f6c57612f6781613999565b612fab565b8373ffffffffffffffffffffffffffffffffffffffff168573ffffffffffffffffffffffffffffffffffffffff1614612faa57612fa985826139e2565b5b5b600073ffffffffffffffffffffffffffffffffffffffff168473ffffffffffffffffffffffffffffffffffffffff1603612fed57612fe881613b4f565b61302c565b8473ffffffffffffffffffffffffffffffffffffffff168473ffffffffffffffffffffffffffffffffffffffff161461302b5761302a8482613c20565b5b5b5050505050565b50505050565b6000613043610fa3565b9050601160009054906101000a900460ff1615613095576040517f08c379a000000000000000000000000000000000000000000000000000000000815260040161308c90614b30565b60405180910390fd5b600082116130d8576040517f08c379a00000000000000000000000000000000000000000000000000000000081526004016130cf90614b9c565b60405180910390fd5b600f5482111561311d576040517f08c379a000000000000000000000000000000000000000000000000000000000815260040161311490614c08565b60405180910390fd5b601054600161312b3361171d565b6131359190614c28565b1115613176576040517f08c379a000000000000000000000000000000000000000000000000000000000815260040161316d90614ca8565b60405180910390fd5b600e5482826131859190614c28565b11156131c6576040517f08c379a00000000000000000000000000000000000000000000000000000000081526004016131bd90614d14565b60405180910390fd5b6131ce61186e565b73ffffffffffffffffffffffffffffffffffffffff163373ffffffffffffffffffffffffffffffffffffffff16146132745760011515601260003373ffffffffffffffffffffffffffffffffffffffff1673ffffffffffffffffffffffffffffffffffffffff16815260200190815260200160002060009054906101000a900460ff161515146132735781600d546132669190614d34565b34101561327257600080fd5b5b5b6000600190505b8281116132aa576132978482846132929190614c28565b6129e1565b80806132a290614d76565b91505061327b565b50505050565b6000601660008381526020019081526020016000206040518060600160405290816000820160009054906101000a900462ffffff1662ffffff1662ffffff1681526020016000820160039054906101000a900465ffffffffffff1665ffffffffffff1665ffffffffffff1681526020016000820160099054906101000a900473ffffffffffffffffffffffffffffffffffffffff1673ffffffffffffffffffffffffffffffffffffffff1673ffffffffffffffffffffffffffffffffffffffff168152505090503373ffffffffffffffffffffffffffffffffffffffff16816040015173ffffffffffffffffffffffffffffffffffffffff16146133e9576040517f08c379a00000000000000000000000000000000000000000000000000000000081526004016133e090615a22565b60405180910390fd5b60166000838152602001908152602001600020600080820160006101000a81549062ffffff02191690556000820160036101000a81549065ffffffffffff02191690556000820160096101000a81549073ffffffffffffffffffffffffffffffffffffffff021916905550507fc486b9458a8637650d84d262414833a5a457bc91ae86b7da110386c8c3fa255b838342604051613488939291906153d6565b60405180910390a1601360009054906101000a900473ffffffffffffffffffffffffffffffffffffffff1673ffffffffffffffffffffffffffffffffffffffff166323b872dd3085856040518463ffffffff1660e01b81526004016134ef9392919061539f565b600060405180830381600087803b15801561350957600080fd5b505af115801561351d573d6000803e3d6000fd5b505050506014600081548092919061353490615a42565b9190505550505050565b6135488383613c9f565b6135556000848484613599565b613594576040517f08c379a000000000000000000000000000000000000000000000000000000000815260040161358b90615924565b60405180910390fd5b505050565b60006135ba8473ffffffffffffffffffffffffffffffffffffffff16613ebc565b15613713578373ffffffffffffffffffffffffffffffffffffffff1663150b7a026135e36122b2565b8786866040518563ffffffff1660e01b81526004016136059493929190615ac0565b6020604051808303816000875af192505050801561364157506040513d601f19601f8201168201806040525081019061363e9190615b21565b60015b6136c3573d8060008114613671576040519150601f19603f3d011682016040523d82523d6000602084013e613676565b606091505b5060008151036136bb576040517f08c379a00000000000000000000000000000000000000000000000000000000081526004016136b290615924565b60405180910390fd5b805181602001fd5b63150b7a0260e01b7bffffffffffffffffffffffffffffffffffffffffffffffffffffffff1916817bffffffffffffffffffffffffffffffffffffffffffffffffffffffff191614915050613718565b600190505b949350505050565b600080600090507a184f03e93ff9f4daa797ed6e38ed64bf6a1f010000000000000000831061377e577a184f03e93ff9f4daa797ed6e38ed64bf6a1f010000000000000000838161377457613773615225565b5b0492506040810190505b6d04ee2d6d415b85acef810000000083106137bb576d04ee2d6d415b85acef810000000083816137b1576137b0615225565b5b0492506020810190505b662386f26fc1000083106137ea57662386f26fc1000083816137e0576137df615225565b5b0492506010810190505b6305f5e1008310613813576305f5e100838161380957613808615225565b5b0492506008810190505b612710831061383857612710838161382e5761382d615225565b5b0492506004810190505b6064831061385b576064838161385157613850615225565b5b0492506002810190505b600a831061386a576001810190505b80915050919050565b600181111561399357600073ffffffffffffffffffffffffffffffffffffffff168473ffffffffffffffffffffffffffffffffffffffff16146139075780600360008673ffffffffffffffffffffffffffffffffffffffff1673ffffffffffffffffffffffffffffffffffffffff16815260200190815260200160002060008282546138ff91906151f1565b925050819055505b600073ffffffffffffffffffffffffffffffffffffffff168373ffffffffffffffffffffffffffffffffffffffff16146139925780600360008573ffffffffffffffffffffffffffffffffffffffff1673ffffffffffffffffffffffffffffffffffffffff168152602001908152602001600020600082825461398a9190614c28565b925050819055505b5b50505050565b6008805490506009600083815260200190815260200160002081905550600881908060018154018082558091505060019003906000526020600020016000909190919091505550565b600060016139ef8461171d565b6139f991906151f1565b9050600060076000848152602001908152602001600020549050818114613ade576000600660008673ffffffffffffffffffffffffffffffffffffffff1673ffffffffffffffffffffffffffffffffffffffff168152602001908152602001600020600084815260200190815260200160002054905080600660008773ffffffffffffffffffffffffffffffffffffffff1673ffffffffffffffffffffffffffffffffffffffff168152602001908152602001600020600084815260200190815260200160002081905550816007600083815260200190815260200160002081905550505b6007600084815260200190815260200160002060009055600660008573ffffffffffffffffffffffffffffffffffffffff1673ffffffffffffffffffffffffffffffffffffffff16815260200190815260200160002060008381526020019081526020016000206000905550505050565b60006001600880549050613b6391906151f1565b9050600060096000848152602001908152602001600020549050600060088381548110613b9357613b92614dbe565b5b906000526020600020015490508060088381548110613bb557613bb4614dbe565b5b906000526020600020018190555081600960008381526020019081526020016000208190555060096000858152602001908152602001600020600090556008805480613c0457613c03615b4e565b5b6001900381819060005260206000200160009055905550505050565b6000613c2b8361171d565b905081600660008573ffffffffffffffffffffffffffffffffffffffff1673ffffffffffffffffffffffffffffffffffffffff168152602001908152602001600020600083815260200190815260200160002081905550806007600084815260200190815260200160002081905550505050565b600073ffffffffffffffffffffffffffffffffffffffff168273ffffffffffffffffffffffffffffffffffffffff1603613d0e576040517f08c379a0000000000000000000000000000000000000000000000000000000008152600401613d0590615bc9565b60405180910390fd5b613d1781612cca565b15613d57576040517f08c379a0000000000000000000000000000000000000000000000000000000008152600401613d4e90615c35565b60405180910390fd5b613d65600083836001612ed5565b613d6e81612cca565b15613dae576040517f08c379a0000000000000000000000000000000000000000000000000000000008152600401613da590615c35565b60405180910390fd5b6001600360008473ffffffffffffffffffffffffffffffffffffffff1673ffffffffffffffffffffffffffffffffffffffff16815260200190815260200160002060008282540192505081905550816002600083815260200190815260200160002060006101000a81548173ffffffffffffffffffffffffffffffffffffffff021916908373ffffffffffffffffffffffffffffffffffffffff160217905550808273ffffffffffffffffffffffffffffffffffffffff16600073ffffffffffffffffffffffffffffffffffffffff167fddf252ad1be2c89b69c2b068fc378daa952ba7f163c4a11628f55a4df523b3ef60405160405180910390a4613eb8600083836001613033565b5050565b6000808273ffffffffffffffffffffffffffffffffffffffff163b119050919050565b6000604051905090565b600080fd5b600080fd5b60007fffffffff0000000000000000000000000000000000000000000000000000000082169050919050565b613f2881613ef3565b8114613f3357600080fd5b50565b600081359050613f4581613f1f565b92915050565b600060208284031215613f6157613f60613ee9565b5b6000613f6f84828501613f36565b91505092915050565b60008115159050919050565b613f8d81613f78565b82525050565b6000602082019050613fa86000830184613f84565b92915050565b613fb781613f78565b8114613fc257600080fd5b50565b600081359050613fd481613fae565b92915050565b600060208284031215613ff057613fef613ee9565b5b6000613ffe84828501613fc5565b91505092915050565b600081519050919050565b600082825260208201905092915050565b60005b83811015614041578082015181840152602081019050614026565b60008484015250505050565b6000601f19601f8301169050919050565b600061406982614007565b6140738185614012565b9350614083818560208601614023565b61408c8161404d565b840191505092915050565b600060208201905081810360008301526140b1818461405e565b905092915050565b6000819050919050565b6140cc816140b9565b81146140d757600080fd5b50565b6000813590506140e9816140c3565b92915050565b60006020828403121561410557614104613ee9565b5b6000614113848285016140da565b91505092915050565b600073ffffffffffffffffffffffffffffffffffffffff82169050919050565b60006141478261411c565b9050919050565b6141578161413c565b82525050565b6000602082019050614172600083018461414e565b92915050565b6141818161413c565b811461418c57600080fd5b50565b60008135905061419e81614178565b92915050565b600080604083850312156141bb576141ba613ee9565b5b60006141c98582860161418f565b92505060206141da858286016140da565b9150509250929050565b6000602082840312156141fa576141f9613ee9565b5b60006142088482850161418f565b91505092915050565b600062ffffff82169050919050565b61422981614211565b82525050565b60006020820190506142446000830184614220565b92915050565b614253816140b9565b82525050565b600060208201905061426e600083018461424a565b92915050565b6000819050919050565b600061429961429461428f8461411c565b614274565b61411c565b9050919050565b60006142ab8261427e565b9050919050565b60006142bd826142a0565b9050919050565b6142cd816142b2565b82525050565b60006020820190506142e860008301846142c4565b92915050565b60008060006060848603121561430757614306613ee9565b5b60006143158682870161418f565b93505060206143268682870161418f565b9250506040614337868287016140da565b9150509250925092565b600081519050919050565b600082825260208201905092915050565b6000819050602082019050919050565b614376816140b9565b82525050565b6000614388838361436d565b60208301905092915050565b6000602082019050919050565b60006143ac82614341565b6143b6818561434c565b93506143c18361435d565b8060005b838110156143f25781516143d9888261437c565b97506143e483614394565b9250506001810190506143c5565b5085935050505092915050565b6000602082019050818103600083015261441981846143a1565b905092915050565b600080fd5b600080fd5b7f4e487b7100000000000000000000000000000000000000000000000000000000600052604160045260246000fd5b6144638261404d565b810181811067ffffffffffffffff821117156144825761448161442b565b5b80604052505050565b6000614495613edf565b90506144a1828261445a565b919050565b600067ffffffffffffffff8211156144c1576144c061442b565b5b6144ca8261404d565b9050602081019050919050565b82818337600083830152505050565b60006144f96144f4846144a6565b61448b565b90508281526020810184848401111561451557614514614426565b5b6145208482856144d7565b509392505050565b600082601f83011261453d5761453c614421565b5b813561454d8482602086016144e6565b91505092915050565b60006020828403121561456c5761456b613ee9565b5b600082013567ffffffffffffffff81111561458a57614589613eee565b5b61459684828501614528565b91505092915050565b600065ffffffffffff82169050919050565b6145ba8161459f565b82525050565b60006060820190506145d56000830186614220565b6145e260208301856145b1565b6145ef604083018461414e565b949350505050565b6000806040838503121561460e5761460d613ee9565b5b600061461c8582860161418f565b925050602061462d85828601613fc5565b9150509250929050565b600067ffffffffffffffff8211156146525761465161442b565b5b61465b8261404d565b9050602081019050919050565b600061467b61467684614637565b61448b565b90508281526020810184848401111561469757614696614426565b5b6146a28482856144d7565b509392505050565b600082601f8301126146bf576146be614421565b5b81356146cf848260208601614668565b91505092915050565b600080600080608085870312156146f2576146f1613ee9565b5b60006147008782880161418f565b94505060206147118782880161418f565b9350506040614722878288016140da565b925050606085013567ffffffffffffffff81111561474357614742613eee565b5b61474f878288016146aa565b91505092959194509250565b6000806040838503121561477257614771613ee9565b5b60006147808582860161418f565b92505060206147918582860161418f565b9150509250929050565b7f4e487b7100000000000000000000000000000000000000000000000000000000600052602260045260246000fd5b600060028204905060018216806147e257607f821691505b6020821081036147f5576147f461479b565b5b50919050565b7f4552433732313a20617070726f76616c20746f2063757272656e74206f776e6560008201527f7200000000000000000000000000000000000000000000000000000000000000602082015250565b6000614857602183614012565b9150614862826147fb565b604082019050919050565b600060208201905081810360008301526148868161484a565b9050919050565b7f4552433732313a20617070726f76652063616c6c6572206973206e6f7420746f60008201527f6b656e206f776e6572206f7220617070726f76656420666f7220616c6c000000602082015250565b60006148e9603d83614012565b91506148f48261488d565b604082019050919050565b60006020820190508181036000830152614918816148dc565b9050919050565b7f4e487b7100000000000000000000000000000000000000000000000000000000600052601160045260246000fd5b60007effffffffffffffffffffffffffffffffffffffffffffffffffffffffffffff82169050919050565b60006149848261494e565b91507effffffffffffffffffffffffffffffffffffffffffffffffffffffffffffff82036149b5576149b461491f565b5b600182019050919050565b7f4552433732313a2063616c6c6572206973206e6f7420746f6b656e206f776e6560008201527f72206f7220617070726f76656400000000000000000000000000000000000000602082015250565b6000614a1c602d83614012565b9150614a27826149c0565b604082019050919050565b60006020820190508181036000830152614a4b81614a0f565b9050919050565b7f455243373231456e756d657261626c653a206f776e657220696e646578206f7560008201527f74206f6620626f756e6473000000000000000000000000000000000000000000602082015250565b6000614aae602b83614012565b9150614ab982614a52565b604082019050919050565b60006020820190508181036000830152614add81614aa1565b9050919050565b7f4d696e74696e67206e6f7420656e61626c656400000000000000000000000000600082015250565b6000614b1a601383614012565b9150614b2582614ae4565b602082019050919050565b60006020820190508181036000830152614b4981614b0d565b9050919050565b7f496e76616c6964206d696e7420616d6f756e7400000000000000000000000000600082015250565b6000614b86601383614012565b9150614b9182614b50565b602082019050919050565b60006020820190508181036000830152614bb581614b79565b9050919050565b7f457863656564206d617820616d6f756e74000000000000000000000000000000600082015250565b6000614bf2601183614012565b9150614bfd82614bbc565b602082019050919050565b60006020820190508181036000830152614c2181614be5565b9050919050565b6000614c33826140b9565b9150614c3e836140b9565b9250828201905080821115614c5657614c5561491f565b5b92915050565b7f457863656564206d61782077616c6c6574000000000000000000000000000000600082015250565b6000614c92601183614012565b9150614c9d82614c5c565b602082019050919050565b60006020820190508181036000830152614cc181614c85565b9050919050565b7f536f6c64206f7574000000000000000000000000000000000000000000000000600082015250565b6000614cfe600883614012565b9150614d0982614cc8565b602082019050919050565b60006020820190508181036000830152614d2d81614cf1565b9050919050565b6000614d3f826140b9565b9150614d4a836140b9565b9250828202614d58816140b9565b91508282048414831517614d6f57614d6e61491f565b5b5092915050565b6000614d81826140b9565b91507fffffffffffffffffffffffffffffffffffffffffffffffffffffffffffffffff8203614db357614db261491f565b5b600182019050919050565b7f4e487b7100000000000000000000000000000000000000000000000000000000600052603260045260246000fd5b7f455243373231456e756d657261626c653a20676c6f62616c20696e646578206f60008201527f7574206f6620626f756e64730000000000000000000000000000000000000000602082015250565b6000614e49602c83614012565b9150614e5482614ded565b604082019050919050565b60006020820190508181036000830152614e7881614e3c565b9050919050565b60008190508160005260206000209050919050565b60006020601f8301049050919050565b600082821b905092915050565b600060088302614ee17fffffffffffffffffffffffffffffffffffffffffffffffffffffffffffffffff82614ea4565b614eeb8683614ea4565b95508019841693508086168417925050509392505050565b6000614f1e614f19614f14846140b9565b614274565b6140b9565b9050919050565b6000819050919050565b614f3883614f03565b614f4c614f4482614f25565b848454614eb1565b825550505050565b600090565b614f61614f54565b614f6c818484614f2f565b505050565b5b81811015614f9057614f85600082614f59565b600181019050614f72565b5050565b601f821115614fd557614fa681614e7f565b614faf84614e94565b81016020851015614fbe578190505b614fd2614fca85614e94565b830182614f71565b50505b505050565b600082821c905092915050565b6000614ff860001984600802614fda565b1980831691505092915050565b60006150118383614fe7565b9150826002028217905092915050565b61502a82614007565b67ffffffffffffffff8111156150435761504261442b565b5b61504d82546147ca565b615058828285614f94565b600060209050601f83116001811461508b5760008415615079578287015190505b6150838582615005565b8655506150eb565b601f19841661509986614e7f565b60005b828110156150c15784890151825560018201915060208501945060208101905061509c565b868310156150de57848901516150da601f891682614fe7565b8355505b6001600288020188555050505b505050505050565b7f4552433732313a20696e76616c696420746f6b656e2049440000000000000000600082015250565b6000615129601883614012565b9150615134826150f3565b602082019050919050565b600060208201905081810360008301526151588161511c565b9050919050565b7f4552433732313a2061646472657373207a65726f206973206e6f74206120766160008201527f6c6964206f776e65720000000000000000000000000000000000000000000000602082015250565b60006151bb602983614012565b91506151c68261515f565b604082019050919050565b600060208201905081810360008301526151ea816151ae565b9050919050565b60006151fc826140b9565b9150615207836140b9565b925082820390508181111561521f5761521e61491f565b5b92915050565b7f4e487b7100000000000000000000000000000000000000000000000000000000600052601260045260246000fd5b600061525f826140b9565b915061526a836140b9565b92508261527a57615279615225565b5b828204905092915050565b60008151905061529481614178565b92915050565b6000602082840312156152b0576152af613ee9565b5b60006152be84828501615285565b91505092915050565b7f4e6f7420796f757220746f6b656e000000000000000000000000000000000000600082015250565b60006152fd600e83614012565b9150615308826152c7565b602082019050919050565b6000602082019050818103600083015261532c816152f0565b9050919050565b7f416c7265616479207374616b6564000000000000000000000000000000000000600082015250565b6000615369600e83614012565b915061537482615333565b602082019050919050565b600060208201905081810360008301526153988161535c565b9050919050565b60006060820190506153b4600083018661414e565b6153c1602083018561414e565b6153ce604083018461424a565b949350505050565b60006060820190506153eb600083018661414e565b6153f8602083018561424a565b615405604083018461424a565b949350505050565b7f4552433732314d657461646174613a2055524920717565727920666f72206e6f60008201527f6e6578697374656e7420746f6b656e0000000000000000000000000000000000602082015250565b6000615469602f83614012565b91506154748261540d565b604082019050919050565b600060208201905081810360008301526154988161545c565b9050919050565b600081905092915050565b60006154b582614007565b6154bf818561549f565b93506154cf818560208601614023565b80840191505092915050565b600081546154e8816147ca565b6154f2818661549f565b9450600182166000811461550d576001811461552257615555565b60ff1983168652811515820286019350615555565b61552b85614e7f565b60005b8381101561554d5781548189015260018201915060208101905061552e565b838801955050505b50505092915050565b600061556a82866154aa565b915061557682856154aa565b915061558282846154db565b9150819050949350505050565b7f4f776e61626c653a206e6577206f776e657220697320746865207a65726f206160008201527f6464726573730000000000000000000000000000000000000000000000000000602082015250565b60006155eb602683614012565b91506155f68261558f565b604082019050919050565b6000602082019050818103600083015261561a816155de565b9050919050565b7f4f776e61626c653a2063616c6c6572206973206e6f7420746865206f776e6572600082015250565b6000615657602083614012565b915061566282615621565b602082019050919050565b600060208201905081810360008301526156868161564a565b9050919050565b7f4552433732313a207472616e736665722066726f6d20696e636f72726563742060008201527f6f776e6572000000000000000000000000000000000000000000000000000000602082015250565b60006156e9602583614012565b91506156f48261568d565b604082019050919050565b60006020820190508181036000830152615718816156dc565b9050919050565b7f4552433732313a207472616e7366657220746f20746865207a65726f2061646460008201527f7265737300000000000000000000000000000000000000000000000000000000602082015250565b600061577b602483614012565b91506157868261571f565b604082019050919050565b600060208201905081810360008301526157aa8161576e565b9050919050565b7f6e6f7420616e206f776e65720000000000000000000000000000000000000000600082015250565b60006157e7600c83614012565b91506157f2826157b1565b602082019050919050565b60006020820190508181036000830152615816816157da565b9050919050565b6000604082019050615832600083018561414e565b61583f602083018461424a565b9392505050565b7f4552433732313a20617070726f766520746f2063616c6c657200000000000000600082015250565b600061587c601983614012565b915061588782615846565b602082019050919050565b600060208201905081810360008301526158ab8161586f565b9050919050565b7f4552433732313a207472616e7366657220746f206e6f6e20455243373231526560008201527f63656976657220696d706c656d656e7465720000000000000000000000000000602082015250565b600061590e603283614012565b9150615919826158b2565b604082019050919050565b6000602082019050818103600083015261593d81615901565b9050919050565b7f455243373231456e756d657261626c653a20636f6e736563757469766520747260008201527f616e7366657273206e6f7420737570706f727465640000000000000000000000602082015250565b60006159a0603583614012565b91506159ab82615944565b604082019050919050565b600060208201905081810360008301526159cf81615993565b9050919050565b7f4e6f7420616e206f776e65720000000000000000000000000000000000000000600082015250565b6000615a0c600c83614012565b9150615a17826159d6565b602082019050919050565b60006020820190508181036000830152615a3b816159ff565b9050919050565b6000615a4d826140b9565b915060008203615a6057615a5f61491f565b5b600182039050919050565b600081519050919050565b600082825260208201905092915050565b6000615a9282615a6b565b615a9c8185615a76565b9350615aac818560208601614023565b615ab58161404d565b840191505092915050565b6000608082019050615ad5600083018761414e565b615ae2602083018661414e565b615aef604083018561424a565b8181036060830152615b018184615a87565b905095945050505050565b600081519050615b1b81613f1f565b92915050565b600060208284031215615b3757615b36613ee9565b5b6000615b4584828501615b0c565b91505092915050565b7f4e487b7100000000000000000000000000000000000000000000000000000000600052603160045260246000fd5b7f4552433732313a206d696e7420746f20746865207a65726f2061646472657373600082015250565b6000615bb3602083614012565b9150615bbe82615b7d565b602082019050919050565b60006020820190508181036000830152615be281615ba6565b9050919050565b7f4552433732313a20746f6b656e20616c7265616479206d696e74656400000000600082015250565b6000615c1f601c83614012565b9150615c2a82615be9565b602082019050919050565b60006020820190508181036000830152615c4e81615c12565b905091905056fea2646970667358221220e76f5636b9e71437d4072b046b042272eaa4897d9b4a06eb6e609a1f8f8a75b164736f6c63430008110033",
  "linkReferences": {},
  "deployedLinkReferences": {}
}