{
  "_format": "hh-sol-artifact-1",
  "contractName": "Cowz",
  "sourceName": "contracts/Cowz.sol",
  "abi": [
    {
      "inputs": [
        {
          "internalType": "string",
          "name": "_name",
          "type": "string"
        },
        {
          "internalType": "string",
          "name": "_symbol",
          "type": "string"
        },
        {
          "internalType": "string",
          "name": "_initBaseURI",
          "type": "string"
        }
      ],
      "stateMutability": "nonpayable",
      "type": "constructor"
    },
    {
      "anonymous": false,
      "inputs": [
        {
          "indexed": true,
          "internalType": "address",
          "name": "owner",
          "type": "address"
        },
        {
          "indexed": true,
          "internalType": "address",
          "name": "approved",
          "type": "address"
        },
        {
          "indexed": true,
          "internalType": "uint256",
          "name": "tokenId",
          "type": "uint256"
        }
      ],
      "name": "Approval",
      "type": "event"
    },
    {
      "anonymous": false,
      "inputs": [
        {
          "indexed": true,
          "internalType": "address",
          "name": "owner",
          "type": "address"
        },
        {
          "indexed": true,
          "internalType": "address",
          "name": "operator",
          "type": "address"
        },
        {
          "indexed": false,
          "internalType": "bool",
          "name": "approved",
          "type": "bool"
        }
      ],
      "name": "ApprovalForAll",
      "type": "event"
    },
    {
      "anonymous": false,
      "inputs": [
        {
          "indexed": true,
          "internalType": "address",
          "name": "previousOwner",
          "type": "address"
        },
        {
          "indexed": true,
          "internalType": "address",
          "name": "newOwner",
          "type": "address"
        }
      ],
      "name": "OwnershipTransferred",
      "type": "event"
    },
    {
      "anonymous": false,
      "inputs": [
        {
          "indexed": true,
          "internalType": "address",
          "name": "from",
          "type": "address"
        },
        {
          "indexed": true,
          "internalType": "address",
          "name": "to",
          "type": "address"
        },
        {
          "indexed": true,
          "internalType": "uint256",
          "name": "tokenId",
          "type": "uint256"
        }
      ],
      "name": "Transfer",
      "type": "event"
    },
    {
      "inputs": [
        {
          "internalType": "address",
          "name": "to",
          "type": "address"
        },
        {
          "internalType": "uint256",
          "name": "tokenId",
          "type": "uint256"
        }
      ],
      "name": "approve",
      "outputs": [],
      "stateMutability": "nonpayable",
      "type": "function"
    },
    {
      "inputs": [
        {
          "internalType": "address",
          "name": "owner",
          "type": "address"
        }
      ],
      "name": "balanceOf",
      "outputs": [
        {
          "internalType": "uint256",
          "name": "",
          "type": "uint256"
        }
      ],
      "stateMutability": "view",
      "type": "function"
    },
    {
      "inputs": [],
      "name": "baseExtension",
      "outputs": [
        {
          "internalType": "string",
          "name": "",
          "type": "string"
        }
      ],
      "stateMutability": "view",
      "type": "function"
    },
    {
      "inputs": [],
      "name": "baseURI",
      "outputs": [
        {
          "internalType": "string",
          "name": "",
          "type": "string"
        }
      ],
      "stateMutability": "view",
      "type": "function"
    },
    {
      "inputs": [],
      "name": "cost",
      "outputs": [
        {
          "internalType": "uint256",
          "name": "",
          "type": "uint256"
        }
      ],
      "stateMutability": "view",
      "type": "function"
    },
    {
      "inputs": [
        {
          "internalType": "uint256",
          "name": "tokenId",
          "type": "uint256"
        }
      ],
      "name": "getApproved",
      "outputs": [
        {
          "internalType": "address",
          "name": "",
          "type": "address"
        }
      ],
      "stateMutability": "view",
      "type": "function"
    },
    {
      "inputs": [
        {
          "internalType": "address",
          "name": "owner",
          "type": "address"
        },
        {
          "internalType": "address",
          "name": "operator",
          "type": "address"
        }
      ],
      "name": "isApprovedForAll",
      "outputs": [
        {
          "internalType": "bool",
          "name": "",
          "type": "bool"
        }
      ],
      "stateMutability": "view",
      "type": "function"
    },
    {
      "inputs": [],
      "name": "maxMintAmount",
      "outputs": [
        {
          "internalType": "uint256",
          "name": "",
          "type": "uint256"
        }
      ],
      "stateMutability": "view",
      "type": "function"
    },
    {
      "inputs": [],
      "name": "maxSupply",
      "outputs": [
        {
          "internalType": "uint256",
          "name": "",
          "type": "uint256"
        }
      ],
      "stateMutability": "view",
      "type": "function"
    },
    {
      "inputs": [
        {
          "internalType": "address",
          "name": "_to",
          "type": "address"
        },
        {
          "internalType": "uint256",
          "name": "_mintAmount",
          "type": "uint256"
        }
      ],
      "name": "mint",
      "outputs": [],
      "stateMutability": "payable",
      "type": "function"
    },
    {
      "inputs": [],
      "name": "name",
      "outputs": [
        {
          "internalType": "string",
          "name": "",
          "type": "string"
        }
      ],
      "stateMutability": "view",
      "type": "function"
    },
    {
      "inputs": [],
      "name": "owner",
      "outputs": [
        {
          "internalType": "address",
          "name": "",
          "type": "address"
        }
      ],
      "stateMutability": "view",
      "type": "function"
    },
    {
      "inputs": [
        {
          "internalType": "uint256",
          "name": "tokenId",
          "type": "uint256"
        }
      ],
      "name": "ownerOf",
      "outputs": [
        {
          "internalType": "address",
          "name": "",
          "type": "address"
        }
      ],
      "stateMutability": "view",
      "type": "function"
    },
    {
      "inputs": [
        {
          "internalType": "bool",
          "name": "_state",
          "type": "bool"
        }
      ],
      "name": "pause",
      "outputs": [],
      "stateMutability": "nonpayable",
      "type": "function"
    },
    {
      "inputs": [],
      "name": "paused",
      "outputs": [
        {
          "internalType": "bool",
          "name": "",
          "type": "bool"
        }
      ],
      "stateMutability": "view",
      "type": "function"
    },
    {
      "inputs": [
        {
          "internalType": "address",
          "name": "_user",
          "type": "address"
        }
      ],
      "name": "removeWhitelistUser",
      "outputs": [],
      "stateMutability": "nonpayable",
      "type": "function"
    },
    {
      "inputs": [],
      "name": "renounceOwnership",
      "outputs": [],
      "stateMutability": "nonpayable",
      "type": "function"
    },
    {
      "inputs": [
        {
          "internalType": "address",
          "name": "from",
          "type": "address"
        },
        {
          "internalType": "address",
          "name": "to",
          "type": "address"
        },
        {
          "internalType": "uint256",
          "name": "tokenId",
          "type": "uint256"
        }
      ],
      "name": "safeTransferFrom",
      "outputs": [],
      "stateMutability": "nonpayable",
      "type": "function"
    },
    {
      "inputs": [
        {
          "internalType": "address",
          "name": "from",
          "type": "address"
        },
        {
          "internalType": "address",
          "name": "to",
          "type": "address"
        },
        {
          "internalType": "uint256",
          "name": "tokenId",
          "type": "uint256"
        },
        {
          "internalType": "bytes",
          "name": "data",
          "type": "bytes"
        }
      ],
      "name": "safeTransferFrom",
      "outputs": [],
      "stateMutability": "nonpayable",
      "type": "function"
    },
    {
      "inputs": [
        {
          "internalType": "address",
          "name": "operator",
          "type": "address"
        },
        {
          "internalType": "bool",
          "name": "approved",
          "type": "bool"
        }
      ],
      "name": "setApprovalForAll",
      "outputs": [],
      "stateMutability": "nonpayable",
      "type": "function"
    },
    {
      "inputs": [
        {
          "internalType": "string",
          "name": "_newBaseExtension",
          "type": "string"
        }
      ],
      "name": "setBaseExtension",
      "outputs": [],
      "stateMutability": "nonpayable",
      "type": "function"
    },
    {
      "inputs": [
        {
          "internalType": "string",
          "name": "_newBaseURI",
          "type": "string"
        }
      ],
      "name": "setBaseURI",
      "outputs": [],
      "stateMutability": "nonpayable",
      "type": "function"
    },
    {
      "inputs": [
        {
          "internalType": "uint256",
          "name": "_newCost",
          "type": "uint256"
        }
      ],
      "name": "setCost",
      "outputs": [],
      "stateMutability": "nonpayable",
      "type": "function"
    },
    {
      "inputs": [
        {
          "internalType": "uint256",
          "name": "_newmaxMintAmount",
          "type": "uint256"
        }
      ],
      "name": "setmaxMintAmount",
      "outputs": [],
      "stateMutability": "nonpayable",
      "type": "function"
    },
    {
      "inputs": [
        {
          "internalType": "bytes4",
          "name": "interfaceId",
          "type": "bytes4"
        }
      ],
      "name": "supportsInterface",
      "outputs": [
        {
          "internalType": "bool",
          "name": "",
          "type": "bool"
        }
      ],
      "stateMutability": "view",
      "type": "function"
    },
    {
      "inputs": [],
      "name": "symbol",
      "outputs": [
        {
          "internalType": "string",
          "name": "",
          "type": "string"
        }
      ],
      "stateMutability": "view",
      "type": "function"
    },
    {
      "inputs": [
        {
          "internalType": "uint256",
          "name": "index",
          "type": "uint256"
        }
      ],
      "name": "tokenByIndex",
      "outputs": [
        {
          "internalType": "uint256",
          "name": "",
          "type": "uint256"
        }
      ],
      "stateMutability": "view",
      "type": "function"
    },
    {
      "inputs": [
        {
          "internalType": "address",
          "name": "owner",
          "type": "address"
        },
        {
          "internalType": "uint256",
          "name": "index",
          "type": "uint256"
        }
      ],
      "name": "tokenOfOwnerByIndex",
      "outputs": [
        {
          "internalType": "uint256",
          "name": "",
          "type": "uint256"
        }
      ],
      "stateMutability": "view",
      "type": "function"
    },
    {
      "inputs": [
        {
          "internalType": "uint256",
          "name": "tokenId",
          "type": "uint256"
        }
      ],
      "name": "tokenURI",
      "outputs": [
        {
          "internalType": "string",
          "name": "",
          "type": "string"
        }
      ],
      "stateMutability": "view",
      "type": "function"
    },
    {
      "inputs": [],
      "name": "totalSupply",
      "outputs": [
        {
          "internalType": "uint256",
          "name": "",
          "type": "uint256"
        }
      ],
      "stateMutability": "view",
      "type": "function"
    },
    {
      "inputs": [
        {
          "internalType": "address",
          "name": "from",
          "type": "address"
        },
        {
          "internalType": "address",
          "name": "to",
          "type": "address"
        },
        {
          "internalType": "uint256",
          "name": "tokenId",
          "type": "uint256"
        }
      ],
      "name": "transferFrom",
      "outputs": [],
      "stateMutability": "nonpayable",
      "type": "function"
    },
    {
      "inputs": [
        {
          "internalType": "address",
          "name": "newOwner",
          "type": "address"
        }
      ],
      "name": "transferOwnership",
      "outputs": [],
      "stateMutability": "nonpayable",
      "type": "function"
    },
    {
      "inputs": [
        {
          "internalType": "address",
          "name": "_owner",
          "type": "address"
        }
      ],
      "name": "walletOfOwner",
      "outputs": [
        {
          "internalType": "uint256[]",
          "name": "",
          "type": "uint256[]"
        }
      ],
      "stateMutability": "view",
      "type": "function"
    },
    {
      "inputs": [
        {
          "internalType": "address",
          "name": "_user",
          "type": "address"
        }
      ],
      "name": "whitelistUser",
      "outputs": [],
      "stateMutability": "nonpayable",
      "type": "function"
    },
    {
      "inputs": [
        {
          "internalType": "address",
          "name": "",
          "type": "address"
        }
      ],
      "name": "whitelisted",
      "outputs": [
        {
          "internalType": "bool",
          "name": "",
          "type": "bool"
        }
      ],
      "stateMutability": "view",
      "type": "function"
    },
    {
      "inputs": [],
      "name": "withdraw",
      "outputs": [],
      "stateMutability": "payable",
      "type": "function"
    }
  ],
  "bytecode": "0x60806040526040518060400160405280600581526020017f2e6a736f6e000000000000000000000000000000000000000000000000000000815250600c90816200004a919062000532565b506000600d5560c8600e556001600f556000601060006101000a81548160ff0219169083151502179055503480156200008257600080fd5b5060405162004ba038038062004ba08339818101604052810190620000a891906200077d565b82828160009081620000bb919062000532565b508060019081620000cd919062000532565b505050620000f0620000e46200010a60201b60201c565b6200011260201b60201c565b6200010181620001d860201b60201c565b505050620008b9565b600033905090565b6000600a60009054906101000a900473ffffffffffffffffffffffffffffffffffffffff16905081600a60006101000a81548173ffffffffffffffffffffffffffffffffffffffff021916908373ffffffffffffffffffffffffffffffffffffffff1602179055508173ffffffffffffffffffffffffffffffffffffffff168173ffffffffffffffffffffffffffffffffffffffff167f8be0079c531659141344cd1fd0a4f28419497f9722a3daafe3b4186f6b6457e060405160405180910390a35050565b620001e8620001fd60201b60201c565b80600b9081620001f9919062000532565b5050565b6200020d6200010a60201b60201c565b73ffffffffffffffffffffffffffffffffffffffff16620002336200028e60201b60201c565b73ffffffffffffffffffffffffffffffffffffffff16146200028c576040517f08c379a0000000000000000000000000000000000000000000000000000000008152600401620002839062000897565b60405180910390fd5b565b6000600a60009054906101000a900473ffffffffffffffffffffffffffffffffffffffff16905090565b600081519050919050565b7f4e487b7100000000000000000000000000000000000000000000000000000000600052604160045260246000fd5b7f4e487b7100000000000000000000000000000000000000000000000000000000600052602260045260246000fd5b600060028204905060018216806200033a57607f821691505b60208210810362000350576200034f620002f2565b5b50919050565b60008190508160005260206000209050919050565b60006020601f8301049050919050565b600082821b905092915050565b600060088302620003ba7fffffffffffffffffffffffffffffffffffffffffffffffffffffffffffffffff826200037b565b620003c686836200037b565b95508019841693508086168417925050509392505050565b6000819050919050565b6000819050919050565b6000620004136200040d6200040784620003de565b620003e8565b620003de565b9050919050565b6000819050919050565b6200042f83620003f2565b620004476200043e826200041a565b84845462000388565b825550505050565b600090565b6200045e6200044f565b6200046b81848462000424565b505050565b5b8181101562000493576200048760008262000454565b60018101905062000471565b5050565b601f821115620004e257620004ac8162000356565b620004b7846200036b565b81016020851015620004c7578190505b620004df620004d6856200036b565b83018262000470565b50505b505050565b600082821c905092915050565b60006200050760001984600802620004e7565b1980831691505092915050565b6000620005228383620004f4565b9150826002028217905092915050565b6200053d82620002b8565b67ffffffffffffffff811115620005595762000558620002c3565b5b62000565825462000321565b6200057282828562000497565b600060209050601f831160018114620005aa576000841562000595578287015190505b620005a1858262000514565b86555062000611565b601f198416620005ba8662000356565b60005b82811015620005e457848901518255600182019150602085019450602081019050620005bd565b8683101562000604578489015162000600601f891682620004f4565b8355505b6001600288020188555050505b505050505050565b6000604051905090565b600080fd5b600080fd5b600080fd5b600080fd5b6000601f19601f8301169050919050565b620006538262000637565b810181811067ffffffffffffffff82111715620006755762000674620002c3565b5b80604052505050565b60006200068a62000619565b905062000698828262000648565b919050565b600067ffffffffffffffff821115620006bb57620006ba620002c3565b5b620006c68262000637565b9050602081019050919050565b60005b83811015620006f3578082015181840152602081019050620006d6565b60008484015250505050565b60006200071662000710846200069d565b6200067e565b90508281526020810184848401111562000735576200073462000632565b5b62000742848285620006d3565b509392505050565b600082601f8301126200076257620007616200062d565b5b815162000774848260208601620006ff565b91505092915050565b60008060006060848603121562000799576200079862000623565b5b600084015167ffffffffffffffff811115620007ba57620007b962000628565b5b620007c8868287016200074a565b935050602084015167ffffffffffffffff811115620007ec57620007eb62000628565b5b620007fa868287016200074a565b925050604084015167ffffffffffffffff8111156200081e576200081d62000628565b5b6200082c868287016200074a565b9150509250925092565b600082825260208201905092915050565b7f4f776e61626c653a2063616c6c6572206973206e6f7420746865206f776e6572600082015250565b60006200087f60208362000836565b91506200088c8262000847565b602082019050919050565b60006020820190508181036000830152620008b28162000870565b9050919050565b6142d780620008c96000396000f3fe60806040526004361061020f5760003560e01c806355f804b311610118578063a22cb465116100a0578063d5abeb011161006f578063d5abeb011461077f578063d936547e146107aa578063da3ef23f146107e7578063e985e9c514610810578063f2fde38b1461084d5761020f565b8063a22cb465146106c5578063b88d4fde146106ee578063c668286214610717578063c87b56dd146107425761020f565b806370a08231116100e757806370a08231146105f2578063715018a61461062f5780637f00c7a6146106465780638da5cb5b1461066f57806395d89b411461069a5761020f565b806355f804b3146105365780635c975abb1461055f5780636352211e1461058a5780636c0360eb146105c75761020f565b80632f745c591161019b57806342842e0e1161016a57806342842e0e14610441578063438b63001461046a57806344a0d68a146104a75780634a4c560d146104d05780634f6ccce7146104f95761020f565b80632f745c59146103b557806330cc7ae0146103f25780633ccfd60b1461041b57806340c10f19146104255761020f565b8063095ea7b3116101e2578063095ea7b3146102e257806313faede61461030b57806318160ddd14610336578063239c70ae1461036157806323b872dd1461038c5761020f565b806301ffc9a71461021457806302329a291461025157806306fdde031461027a578063081812fc146102a5575b600080fd5b34801561022057600080fd5b5061023b60048036038101906102369190612c09565b610876565b6040516102489190612c51565b60405180910390f35b34801561025d57600080fd5b5061027860048036038101906102739190612c98565b6108f0565b005b34801561028657600080fd5b5061028f610915565b60405161029c9190612d55565b60405180910390f35b3480156102b157600080fd5b506102cc60048036038101906102c79190612dad565b6109a7565b6040516102d99190612e1b565b60405180910390f35b3480156102ee57600080fd5b5061030960048036038101906103049190612e62565b6109ed565b005b34801561031757600080fd5b50610320610b04565b60405161032d9190612eb1565b60405180910390f35b34801561034257600080fd5b5061034b610b0a565b6040516103589190612eb1565b60405180910390f35b34801561036d57600080fd5b50610376610b17565b6040516103839190612eb1565b60405180910390f35b34801561039857600080fd5b506103b360048036038101906103ae9190612ecc565b610b1d565b005b3480156103c157600080fd5b506103dc60048036038101906103d79190612e62565b610b7d565b6040516103e99190612eb1565b60405180910390f35b3480156103fe57600080fd5b5061041960048036038101906104149190612f1f565b610c22565b005b610423610c85565b005b61043f600480360381019061043a9190612e62565b610ccd565b005b34801561044d57600080fd5b5061046860048036038101906104639190612ecc565b610e13565b005b34801561047657600080fd5b50610491600480360381019061048c9190612f1f565b610e33565b60405161049e919061300a565b60405180910390f35b3480156104b357600080fd5b506104ce60048036038101906104c99190612dad565b610ee1565b005b3480156104dc57600080fd5b506104f760048036038101906104f29190612f1f565b610ef3565b005b34801561050557600080fd5b50610520600480360381019061051b9190612dad565b610f56565b60405161052d9190612eb1565b60405180910390f35b34801561054257600080fd5b5061055d60048036038101906105589190613161565b610fc7565b005b34801561056b57600080fd5b50610574610fe2565b6040516105819190612c51565b60405180910390f35b34801561059657600080fd5b506105b160048036038101906105ac9190612dad565b610ff5565b6040516105be9190612e1b565b60405180910390f35b3480156105d357600080fd5b506105dc61107b565b6040516105e99190612d55565b60405180910390f35b3480156105fe57600080fd5b5061061960048036038101906106149190612f1f565b611109565b6040516106269190612eb1565b60405180910390f35b34801561063b57600080fd5b506106446111c0565b005b34801561065257600080fd5b5061066d60048036038101906106689190612dad565b6111d4565b005b34801561067b57600080fd5b506106846111e6565b6040516106919190612e1b565b60405180910390f35b3480156106a657600080fd5b506106af611210565b6040516106bc9190612d55565b60405180910390f35b3480156106d157600080fd5b506106ec60048036038101906106e791906131aa565b6112a2565b005b3480156106fa57600080fd5b506107156004803603810190610710919061328b565b6112b8565b005b34801561072357600080fd5b5061072c61131a565b6040516107399190612d55565b60405180910390f35b34801561074e57600080fd5b5061076960048036038101906107649190612dad565b6113a8565b6040516107769190612d55565b60405180910390f35b34801561078b57600080fd5b50610794611452565b6040516107a19190612eb1565b60405180910390f35b3480156107b657600080fd5b506107d160048036038101906107cc9190612f1f565b611458565b6040516107de9190612c51565b60405180910390f35b3480156107f357600080fd5b5061080e60048036038101906108099190613161565b611478565b005b34801561081c57600080fd5b506108376004803603810190610832919061330e565b611493565b6040516108449190612c51565b60405180910390f35b34801561085957600080fd5b50610874600480360381019061086f9190612f1f565b611527565b005b60007f780e9d63000000000000000000000000000000000000000000000000000000007bffffffffffffffffffffffffffffffffffffffffffffffffffffffff1916827bffffffffffffffffffffffffffffffffffffffffffffffffffffffff191614806108e957506108e8826115aa565b5b9050919050565b6108f861168c565b80601060006101000a81548160ff02191690831515021790555050565b6060600080546109249061337d565b80601f01602080910402602001604051908101604052809291908181526020018280546109509061337d565b801561099d5780601f106109725761010080835404028352916020019161099d565b820191906000526020600020905b81548152906001019060200180831161098057829003601f168201915b5050505050905090565b60006109b28261170a565b6004600083815260200190815260200160002060009054906101000a900473ffffffffffffffffffffffffffffffffffffffff169050919050565b60006109f882610ff5565b90508073ffffffffffffffffffffffffffffffffffffffff168373ffffffffffffffffffffffffffffffffffffffff1603610a68576040517f08c379a0000000000000000000000000000000000000000000000000000000008152600401610a5f90613420565b60405180910390fd5b8073ffffffffffffffffffffffffffffffffffffffff16610a87611755565b73ffffffffffffffffffffffffffffffffffffffff161480610ab65750610ab581610ab0611755565b611493565b5b610af5576040517f08c379a0000000000000000000000000000000000000000000000000000000008152600401610aec906134b2565b60405180910390fd5b610aff838361175d565b505050565b600d5481565b6000600880549050905090565b600f5481565b610b2e610b28611755565b82611816565b610b6d576040517f08c379a0000000000000000000000000000000000000000000000000000000008152600401610b6490613544565b60405180910390fd5b610b788383836118ab565b505050565b6000610b8883611109565b8210610bc9576040517f08c379a0000000000000000000000000000000000000000000000000000000008152600401610bc0906135d6565b60405180910390fd5b600660008473ffffffffffffffffffffffffffffffffffffffff1673ffffffffffffffffffffffffffffffffffffffff168152602001908152602001600020600083815260200190815260200160002054905092915050565b610c2a61168c565b6000601160008373ffffffffffffffffffffffffffffffffffffffff1673ffffffffffffffffffffffffffffffffffffffff16815260200190815260200160002060006101000a81548160ff02191690831515021790555050565b610c8d61168c565b3373ffffffffffffffffffffffffffffffffffffffff166108fc479081150290604051600060405180830381858888f19350505050610ccb57600080fd5b565b6000610cd7610b0a565b9050601060009054906101000a900460ff1615610cf357600080fd5b60008211610d0057600080fd5b600f54821115610d0f57600080fd5b600e548282610d1e9190613625565b1115610d2957600080fd5b610d316111e6565b73ffffffffffffffffffffffffffffffffffffffff163373ffffffffffffffffffffffffffffffffffffffff1614610dd75760011515601160003373ffffffffffffffffffffffffffffffffffffffff1673ffffffffffffffffffffffffffffffffffffffff16815260200190815260200160002060009054906101000a900460ff16151514610dd65781600d54610dc99190613659565b341015610dd557600080fd5b5b5b6000600190505b828111610e0d57610dfa848284610df59190613625565b611ba4565b8080610e059061369b565b915050610dde565b50505050565b610e2e838383604051806020016040528060008152506112b8565b505050565b60606000610e4083611109565b905060008167ffffffffffffffff811115610e5e57610e5d613036565b5b604051908082528060200260200182016040528015610e8c5781602001602082028036833780820191505090505b50905060005b82811015610ed657610ea48582610b7d565b828281518110610eb757610eb66136e3565b5b6020026020010181815250508080610ece9061369b565b915050610e92565b508092505050919050565b610ee961168c565b80600d8190555050565b610efb61168c565b6001601160008373ffffffffffffffffffffffffffffffffffffffff1673ffffffffffffffffffffffffffffffffffffffff16815260200190815260200160002060006101000a81548160ff02191690831515021790555050565b6000610f60610b0a565b8210610fa1576040517f08c379a0000000000000000000000000000000000000000000000000000000008152600401610f9890613784565b60405180910390fd5b60088281548110610fb557610fb46136e3565b5b90600052602060002001549050919050565b610fcf61168c565b80600b9081610fde9190613950565b5050565b601060009054906101000a900460ff1681565b60008061100183611bc2565b9050600073ffffffffffffffffffffffffffffffffffffffff168173ffffffffffffffffffffffffffffffffffffffff1603611072576040517f08c379a000000000000000000000000000000000000000000000000000000000815260040161106990613a6e565b60405180910390fd5b80915050919050565b600b80546110889061337d565b80601f01602080910402602001604051908101604052809291908181526020018280546110b49061337d565b80156111015780601f106110d657610100808354040283529160200191611101565b820191906000526020600020905b8154815290600101906020018083116110e457829003601f168201915b505050505081565b60008073ffffffffffffffffffffffffffffffffffffffff168273ffffffffffffffffffffffffffffffffffffffff1603611179576040517f08c379a000000000000000000000000000000000000000000000000000000000815260040161117090613b00565b60405180910390fd5b600360008373ffffffffffffffffffffffffffffffffffffffff1673ffffffffffffffffffffffffffffffffffffffff168152602001908152602001600020549050919050565b6111c861168c565b6111d26000611bff565b565b6111dc61168c565b80600f8190555050565b6000600a60009054906101000a900473ffffffffffffffffffffffffffffffffffffffff16905090565b60606001805461121f9061337d565b80601f016020809104026020016040519081016040528092919081815260200182805461124b9061337d565b80156112985780601f1061126d57610100808354040283529160200191611298565b820191906000526020600020905b81548152906001019060200180831161127b57829003601f168201915b5050505050905090565b6112b46112ad611755565b8383611cc5565b5050565b6112c96112c3611755565b83611816565b611308576040517f08c379a00000000000000000000000000000000000000000000000000000000081526004016112ff90613544565b60405180910390fd5b61131484848484611e31565b50505050565b600c80546113279061337d565b80601f01602080910402602001604051908101604052809291908181526020018280546113539061337d565b80156113a05780601f10611375576101008083540402835291602001916113a0565b820191906000526020600020905b81548152906001019060200180831161138357829003601f168201915b505050505081565b60606113b382611e8d565b6113f2576040517f08c379a00000000000000000000000000000000000000000000000000000000081526004016113e990613b92565b60405180910390fd5b60006113fc611ece565b9050600081511161141c576040518060200160405280600081525061144a565b8061142684611f60565b600c60405160200161143a93929190613c71565b6040516020818303038152906040525b915050919050565b600e5481565b60116020528060005260406000206000915054906101000a900460ff1681565b61148061168c565b80600c908161148f9190613950565b5050565b6000600560008473ffffffffffffffffffffffffffffffffffffffff1673ffffffffffffffffffffffffffffffffffffffff16815260200190815260200160002060008373ffffffffffffffffffffffffffffffffffffffff1673ffffffffffffffffffffffffffffffffffffffff16815260200190815260200160002060009054906101000a900460ff16905092915050565b61152f61168c565b600073ffffffffffffffffffffffffffffffffffffffff168173ffffffffffffffffffffffffffffffffffffffff160361159e576040517f08c379a000000000000000000000000000000000000000000000000000000000815260040161159590613d14565b60405180910390fd5b6115a781611bff565b50565b60007f80ac58cd000000000000000000000000000000000000000000000000000000007bffffffffffffffffffffffffffffffffffffffffffffffffffffffff1916827bffffffffffffffffffffffffffffffffffffffffffffffffffffffff1916148061167557507f5b5e139f000000000000000000000000000000000000000000000000000000007bffffffffffffffffffffffffffffffffffffffffffffffffffffffff1916827bffffffffffffffffffffffffffffffffffffffffffffffffffffffff1916145b8061168557506116848261202e565b5b9050919050565b611694611755565b73ffffffffffffffffffffffffffffffffffffffff166116b26111e6565b73ffffffffffffffffffffffffffffffffffffffff1614611708576040517f08c379a00000000000000000000000000000000000000000000000000000000081526004016116ff90613d80565b60405180910390fd5b565b61171381611e8d565b611752576040517f08c379a000000000000000000000000000000000000000000000000000000000815260040161174990613a6e565b60405180910390fd5b50565b600033905090565b816004600083815260200190815260200160002060006101000a81548173ffffffffffffffffffffffffffffffffffffffff021916908373ffffffffffffffffffffffffffffffffffffffff160217905550808273ffffffffffffffffffffffffffffffffffffffff166117d083610ff5565b73ffffffffffffffffffffffffffffffffffffffff167f8c5be1e5ebec7d5bd14f71427d1e84f3dd0314c0f7b2291e5b200ac8c7c3b92560405160405180910390a45050565b60008061182283610ff5565b90508073ffffffffffffffffffffffffffffffffffffffff168473ffffffffffffffffffffffffffffffffffffffff16148061186457506118638185611493565b5b806118a257508373ffffffffffffffffffffffffffffffffffffffff1661188a846109a7565b73ffffffffffffffffffffffffffffffffffffffff16145b91505092915050565b8273ffffffffffffffffffffffffffffffffffffffff166118cb82610ff5565b73ffffffffffffffffffffffffffffffffffffffff1614611921576040517f08c379a000000000000000000000000000000000000000000000000000000000815260040161191890613e12565b60405180910390fd5b600073ffffffffffffffffffffffffffffffffffffffff168273ffffffffffffffffffffffffffffffffffffffff1603611990576040517f08c379a000000000000000000000000000000000000000000000000000000000815260040161198790613ea4565b60405180910390fd5b61199d8383836001612098565b8273ffffffffffffffffffffffffffffffffffffffff166119bd82610ff5565b73ffffffffffffffffffffffffffffffffffffffff1614611a13576040517f08c379a0000000000000000000000000000000000000000000000000000000008152600401611a0a90613e12565b60405180910390fd5b6004600082815260200190815260200160002060006101000a81549073ffffffffffffffffffffffffffffffffffffffff02191690556001600360008573ffffffffffffffffffffffffffffffffffffffff1673ffffffffffffffffffffffffffffffffffffffff168152602001908152602001600020600082825403925050819055506001600360008473ffffffffffffffffffffffffffffffffffffffff1673ffffffffffffffffffffffffffffffffffffffff16815260200190815260200160002060008282540192505081905550816002600083815260200190815260200160002060006101000a81548173ffffffffffffffffffffffffffffffffffffffff021916908373ffffffffffffffffffffffffffffffffffffffff160217905550808273ffffffffffffffffffffffffffffffffffffffff168473ffffffffffffffffffffffffffffffffffffffff167fddf252ad1be2c89b69c2b068fc378daa952ba7f163c4a11628f55a4df523b3ef60405160405180910390a4611b9f83838360016121f6565b505050565b611bbe8282604051806020016040528060008152506121fc565b5050565b60006002600083815260200190815260200160002060009054906101000a900473ffffffffffffffffffffffffffffffffffffffff169050919050565b6000600a60009054906101000a900473ffffffffffffffffffffffffffffffffffffffff16905081600a60006101000a81548173ffffffffffffffffffffffffffffffffffffffff021916908373ffffffffffffffffffffffffffffffffffffffff1602179055508173ffffffffffffffffffffffffffffffffffffffff168173ffffffffffffffffffffffffffffffffffffffff167f8be0079c531659141344cd1fd0a4f28419497f9722a3daafe3b4186f6b6457e060405160405180910390a35050565b8173ffffffffffffffffffffffffffffffffffffffff168373ffffffffffffffffffffffffffffffffffffffff1603611d33576040517f08c379a0000000000000000000000000000000000000000000000000000000008152600401611d2a90613f10565b60405180910390fd5b80600560008573ffffffffffffffffffffffffffffffffffffffff1673ffffffffffffffffffffffffffffffffffffffff16815260200190815260200160002060008473ffffffffffffffffffffffffffffffffffffffff1673ffffffffffffffffffffffffffffffffffffffff16815260200190815260200160002060006101000a81548160ff0219169083151502179055508173ffffffffffffffffffffffffffffffffffffffff168373ffffffffffffffffffffffffffffffffffffffff167f17307eab39ab6107e8899845ad3d59bd9653f200f220920489ca2b5937696c3183604051611e249190612c51565b60405180910390a3505050565b611e3c8484846118ab565b611e4884848484612257565b611e87576040517f08c379a0000000000000000000000000000000000000000000000000000000008152600401611e7e90613fa2565b60405180910390fd5b50505050565b60008073ffffffffffffffffffffffffffffffffffffffff16611eaf83611bc2565b73ffffffffffffffffffffffffffffffffffffffff1614159050919050565b6060600b8054611edd9061337d565b80601f0160208091040260200160405190810160405280929190818152602001828054611f099061337d565b8015611f565780601f10611f2b57610100808354040283529160200191611f56565b820191906000526020600020905b815481529060010190602001808311611f3957829003601f168201915b5050505050905090565b606060006001611f6f846123de565b01905060008167ffffffffffffffff811115611f8e57611f8d613036565b5b6040519080825280601f01601f191660200182016040528015611fc05781602001600182028036833780820191505090505b509050600082602001820190505b600115612023578080600190039150507f3031323334353637383961626364656600000000000000000000000000000000600a86061a8153600a858161201757612016613fc2565b5b04945060008503611fce575b819350505050919050565b60007f01ffc9a7000000000000000000000000000000000000000000000000000000007bffffffffffffffffffffffffffffffffffffffffffffffffffffffff1916827bffffffffffffffffffffffffffffffffffffffffffffffffffffffff1916149050919050565b6120a484848484612531565b60018111156120e8576040517f08c379a00000000000000000000000000000000000000000000000000000000081526004016120df90614063565b60405180910390fd5b6000829050600073ffffffffffffffffffffffffffffffffffffffff168573ffffffffffffffffffffffffffffffffffffffff160361212f5761212a81612657565b61216e565b8373ffffffffffffffffffffffffffffffffffffffff168573ffffffffffffffffffffffffffffffffffffffff161461216d5761216c85826126a0565b5b5b600073ffffffffffffffffffffffffffffffffffffffff168473ffffffffffffffffffffffffffffffffffffffff16036121b0576121ab8161280d565b6121ef565b8473ffffffffffffffffffffffffffffffffffffffff168473ffffffffffffffffffffffffffffffffffffffff16146121ee576121ed84826128de565b5b5b5050505050565b50505050565b612206838361295d565b6122136000848484612257565b612252576040517f08c379a000000000000000000000000000000000000000000000000000000000815260040161224990613fa2565b60405180910390fd5b505050565b60006122788473ffffffffffffffffffffffffffffffffffffffff16612b7a565b156123d1578373ffffffffffffffffffffffffffffffffffffffff1663150b7a026122a1611755565b8786866040518563ffffffff1660e01b81526004016122c394939291906140d8565b6020604051808303816000875af19250505080156122ff57506040513d601f19601f820116820180604052508101906122fc9190614139565b60015b612381573d806000811461232f576040519150601f19603f3d011682016040523d82523d6000602084013e612334565b606091505b506000815103612379576040517f08c379a000000000000000000000000000000000000000000000000000000000815260040161237090613fa2565b60405180910390fd5b805181602001fd5b63150b7a0260e01b7bffffffffffffffffffffffffffffffffffffffffffffffffffffffff1916817bffffffffffffffffffffffffffffffffffffffffffffffffffffffff1916149150506123d6565b600190505b949350505050565b600080600090507a184f03e93ff9f4daa797ed6e38ed64bf6a1f010000000000000000831061243c577a184f03e93ff9f4daa797ed6e38ed64bf6a1f010000000000000000838161243257612431613fc2565b5b0492506040810190505b6d04ee2d6d415b85acef81000000008310612479576d04ee2d6d415b85acef8100000000838161246f5761246e613fc2565b5b0492506020810190505b662386f26fc1000083106124a857662386f26fc10000838161249e5761249d613fc2565b5b0492506010810190505b6305f5e10083106124d1576305f5e10083816124c7576124c6613fc2565b5b0492506008810190505b61271083106124f65761271083816124ec576124eb613fc2565b5b0492506004810190505b60648310612519576064838161250f5761250e613fc2565b5b0492506002810190505b600a8310612528576001810190505b80915050919050565b600181111561265157600073ffffffffffffffffffffffffffffffffffffffff168473ffffffffffffffffffffffffffffffffffffffff16146125c55780600360008673ffffffffffffffffffffffffffffffffffffffff1673ffffffffffffffffffffffffffffffffffffffff16815260200190815260200160002060008282546125bd9190614166565b925050819055505b600073ffffffffffffffffffffffffffffffffffffffff168373ffffffffffffffffffffffffffffffffffffffff16146126505780600360008573ffffffffffffffffffffffffffffffffffffffff1673ffffffffffffffffffffffffffffffffffffffff16815260200190815260200160002060008282546126489190613625565b925050819055505b5b50505050565b6008805490506009600083815260200190815260200160002081905550600881908060018154018082558091505060019003906000526020600020016000909190919091505550565b600060016126ad84611109565b6126b79190614166565b905060006007600084815260200190815260200160002054905081811461279c576000600660008673ffffffffffffffffffffffffffffffffffffffff1673ffffffffffffffffffffffffffffffffffffffff168152602001908152602001600020600084815260200190815260200160002054905080600660008773ffffffffffffffffffffffffffffffffffffffff1673ffffffffffffffffffffffffffffffffffffffff168152602001908152602001600020600084815260200190815260200160002081905550816007600083815260200190815260200160002081905550505b6007600084815260200190815260200160002060009055600660008573ffffffffffffffffffffffffffffffffffffffff1673ffffffffffffffffffffffffffffffffffffffff16815260200190815260200160002060008381526020019081526020016000206000905550505050565b600060016008805490506128219190614166565b9050600060096000848152602001908152602001600020549050600060088381548110612851576128506136e3565b5b906000526020600020015490508060088381548110612873576128726136e3565b5b9060005260206000200181905550816009600083815260200190815260200160002081905550600960008581526020019081526020016000206000905560088054806128c2576128c161419a565b5b6001900381819060005260206000200160009055905550505050565b60006128e983611109565b905081600660008573ffffffffffffffffffffffffffffffffffffffff1673ffffffffffffffffffffffffffffffffffffffff168152602001908152602001600020600083815260200190815260200160002081905550806007600084815260200190815260200160002081905550505050565b600073ffffffffffffffffffffffffffffffffffffffff168273ffffffffffffffffffffffffffffffffffffffff16036129cc576040517f08c379a00000000000000000000000000000000000000000000000000000000081526004016129c390614215565b60405180910390fd5b6129d581611e8d565b15612a15576040517f08c379a0000000000000000000000000000000000000000000000000000000008152600401612a0c90614281565b60405180910390fd5b612a23600083836001612098565b612a2c81611e8d565b15612a6c576040517f08c379a0000000000000000000000000000000000000000000000000000000008152600401612a6390614281565b60405180910390fd5b6001600360008473ffffffffffffffffffffffffffffffffffffffff1673ffffffffffffffffffffffffffffffffffffffff16815260200190815260200160002060008282540192505081905550816002600083815260200190815260200160002060006101000a81548173ffffffffffffffffffffffffffffffffffffffff021916908373ffffffffffffffffffffffffffffffffffffffff160217905550808273ffffffffffffffffffffffffffffffffffffffff16600073ffffffffffffffffffffffffffffffffffffffff167fddf252ad1be2c89b69c2b068fc378daa952ba7f163c4a11628f55a4df523b3ef60405160405180910390a4612b766000838360016121f6565b5050565b6000808273ffffffffffffffffffffffffffffffffffffffff163b119050919050565b6000604051905090565b600080fd5b600080fd5b60007fffffffff0000000000000000000000000000000000000000000000000000000082169050919050565b612be681612bb1565b8114612bf157600080fd5b50565b600081359050612c0381612bdd565b92915050565b600060208284031215612c1f57612c1e612ba7565b5b6000612c2d84828501612bf4565b91505092915050565b60008115159050919050565b612c4b81612c36565b82525050565b6000602082019050612c666000830184612c42565b92915050565b612c7581612c36565b8114612c8057600080fd5b50565b600081359050612c9281612c6c565b92915050565b600060208284031215612cae57612cad612ba7565b5b6000612cbc84828501612c83565b91505092915050565b600081519050919050565b600082825260208201905092915050565b60005b83811015612cff578082015181840152602081019050612ce4565b60008484015250505050565b6000601f19601f8301169050919050565b6000612d2782612cc5565b612d318185612cd0565b9350612d41818560208601612ce1565b612d4a81612d0b565b840191505092915050565b60006020820190508181036000830152612d6f8184612d1c565b905092915050565b6000819050919050565b612d8a81612d77565b8114612d9557600080fd5b50565b600081359050612da781612d81565b92915050565b600060208284031215612dc357612dc2612ba7565b5b6000612dd184828501612d98565b91505092915050565b600073ffffffffffffffffffffffffffffffffffffffff82169050919050565b6000612e0582612dda565b9050919050565b612e1581612dfa565b82525050565b6000602082019050612e306000830184612e0c565b92915050565b612e3f81612dfa565b8114612e4a57600080fd5b50565b600081359050612e5c81612e36565b92915050565b60008060408385031215612e7957612e78612ba7565b5b6000612e8785828601612e4d565b9250506020612e9885828601612d98565b9150509250929050565b612eab81612d77565b82525050565b6000602082019050612ec66000830184612ea2565b92915050565b600080600060608486031215612ee557612ee4612ba7565b5b6000612ef386828701612e4d565b9350506020612f0486828701612e4d565b9250506040612f1586828701612d98565b9150509250925092565b600060208284031215612f3557612f34612ba7565b5b6000612f4384828501612e4d565b91505092915050565b600081519050919050565b600082825260208201905092915050565b6000819050602082019050919050565b612f8181612d77565b82525050565b6000612f938383612f78565b60208301905092915050565b6000602082019050919050565b6000612fb782612f4c565b612fc18185612f57565b9350612fcc83612f68565b8060005b83811015612ffd578151612fe48882612f87565b9750612fef83612f9f565b925050600181019050612fd0565b5085935050505092915050565b600060208201905081810360008301526130248184612fac565b905092915050565b600080fd5b600080fd5b7f4e487b7100000000000000000000000000000000000000000000000000000000600052604160045260246000fd5b61306e82612d0b565b810181811067ffffffffffffffff8211171561308d5761308c613036565b5b80604052505050565b60006130a0612b9d565b90506130ac8282613065565b919050565b600067ffffffffffffffff8211156130cc576130cb613036565b5b6130d582612d0b565b9050602081019050919050565b82818337600083830152505050565b60006131046130ff846130b1565b613096565b9050828152602081018484840111156131205761311f613031565b5b61312b8482856130e2565b509392505050565b600082601f8301126131485761314761302c565b5b81356131588482602086016130f1565b91505092915050565b60006020828403121561317757613176612ba7565b5b600082013567ffffffffffffffff81111561319557613194612bac565b5b6131a184828501613133565b91505092915050565b600080604083850312156131c1576131c0612ba7565b5b60006131cf85828601612e4d565b92505060206131e085828601612c83565b9150509250929050565b600067ffffffffffffffff82111561320557613204613036565b5b61320e82612d0b565b9050602081019050919050565b600061322e613229846131ea565b613096565b90508281526020810184848401111561324a57613249613031565b5b6132558482856130e2565b509392505050565b600082601f8301126132725761327161302c565b5b813561328284826020860161321b565b91505092915050565b600080600080608085870312156132a5576132a4612ba7565b5b60006132b387828801612e4d565b94505060206132c487828801612e4d565b93505060406132d587828801612d98565b925050606085013567ffffffffffffffff8111156132f6576132f5612bac565b5b6133028782880161325d565b91505092959194509250565b6000806040838503121561332557613324612ba7565b5b600061333385828601612e4d565b925050602061334485828601612e4d565b9150509250929050565b7f4e487b7100000000000000000000000000000000000000000000000000000000600052602260045260246000fd5b6000600282049050600182168061339557607f821691505b6020821081036133a8576133a761334e565b5b50919050565b7f4552433732313a20617070726f76616c20746f2063757272656e74206f776e6560008201527f7200000000000000000000000000000000000000000000000000000000000000602082015250565b600061340a602183612cd0565b9150613415826133ae565b604082019050919050565b60006020820190508181036000830152613439816133fd565b9050919050565b7f4552433732313a20617070726f76652063616c6c6572206973206e6f7420746f60008201527f6b656e206f776e6572206f7220617070726f76656420666f7220616c6c000000602082015250565b600061349c603d83612cd0565b91506134a782613440565b604082019050919050565b600060208201905081810360008301526134cb8161348f565b9050919050565b7f4552433732313a2063616c6c6572206973206e6f7420746f6b656e206f776e6560008201527f72206f7220617070726f76656400000000000000000000000000000000000000602082015250565b600061352e602d83612cd0565b9150613539826134d2565b604082019050919050565b6000602082019050818103600083015261355d81613521565b9050919050565b7f455243373231456e756d657261626c653a206f776e657220696e646578206f7560008201527f74206f6620626f756e6473000000000000000000000000000000000000000000602082015250565b60006135c0602b83612cd0565b91506135cb82613564565b604082019050919050565b600060208201905081810360008301526135ef816135b3565b9050919050565b7f4e487b7100000000000000000000000000000000000000000000000000000000600052601160045260246000fd5b600061363082612d77565b915061363b83612d77565b9250828201905080821115613653576136526135f6565b5b92915050565b600061366482612d77565b915061366f83612d77565b925082820261367d81612d77565b91508282048414831517613694576136936135f6565b5b5092915050565b60006136a682612d77565b91507fffffffffffffffffffffffffffffffffffffffffffffffffffffffffffffffff82036136d8576136d76135f6565b5b600182019050919050565b7f4e487b7100000000000000000000000000000000000000000000000000000000600052603260045260246000fd5b7f455243373231456e756d657261626c653a20676c6f62616c20696e646578206f60008201527f7574206f6620626f756e64730000000000000000000000000000000000000000602082015250565b600061376e602c83612cd0565b915061377982613712565b604082019050919050565b6000602082019050818103600083015261379d81613761565b9050919050565b60008190508160005260206000209050919050565b60006020601f8301049050919050565b600082821b905092915050565b6000600883026138067fffffffffffffffffffffffffffffffffffffffffffffffffffffffffffffffff826137c9565b61381086836137c9565b95508019841693508086168417925050509392505050565b6000819050919050565b600061384d61384861384384612d77565b613828565b612d77565b9050919050565b6000819050919050565b61386783613832565b61387b61387382613854565b8484546137d6565b825550505050565b600090565b613890613883565b61389b81848461385e565b505050565b5b818110156138bf576138b4600082613888565b6001810190506138a1565b5050565b601f821115613904576138d5816137a4565b6138de846137b9565b810160208510156138ed578190505b6139016138f9856137b9565b8301826138a0565b50505b505050565b600082821c905092915050565b600061392760001984600802613909565b1980831691505092915050565b60006139408383613916565b9150826002028217905092915050565b61395982612cc5565b67ffffffffffffffff81111561397257613971613036565b5b61397c825461337d565b6139878282856138c3565b600060209050601f8311600181146139ba57600084156139a8578287015190505b6139b28582613934565b865550613a1a565b601f1984166139c8866137a4565b60005b828110156139f0578489015182556001820191506020850194506020810190506139cb565b86831015613a0d5784890151613a09601f891682613916565b8355505b6001600288020188555050505b505050505050565b7f4552433732313a20696e76616c696420746f6b656e2049440000000000000000600082015250565b6000613a58601883612cd0565b9150613a6382613a22565b602082019050919050565b60006020820190508181036000830152613a8781613a4b565b9050919050565b7f4552433732313a2061646472657373207a65726f206973206e6f74206120766160008201527f6c6964206f776e65720000000000000000000000000000000000000000000000602082015250565b6000613aea602983612cd0565b9150613af582613a8e565b604082019050919050565b60006020820190508181036000830152613b1981613add565b9050919050565b7f4552433732314d657461646174613a2055524920717565727920666f72206e6f60008201527f6e6578697374656e7420746f6b656e0000000000000000000000000000000000602082015250565b6000613b7c602f83612cd0565b9150613b8782613b20565b604082019050919050565b60006020820190508181036000830152613bab81613b6f565b9050919050565b600081905092915050565b6000613bc882612cc5565b613bd28185613bb2565b9350613be2818560208601612ce1565b80840191505092915050565b60008154613bfb8161337d565b613c058186613bb2565b94506001821660008114613c205760018114613c3557613c68565b60ff1983168652811515820286019350613c68565b613c3e856137a4565b60005b83811015613c6057815481890152600182019150602081019050613c41565b838801955050505b50505092915050565b6000613c7d8286613bbd565b9150613c898285613bbd565b9150613c958284613bee565b9150819050949350505050565b7f4f776e61626c653a206e6577206f776e657220697320746865207a65726f206160008201527f6464726573730000000000000000000000000000000000000000000000000000602082015250565b6000613cfe602683612cd0565b9150613d0982613ca2565b604082019050919050565b60006020820190508181036000830152613d2d81613cf1565b9050919050565b7f4f776e61626c653a2063616c6c6572206973206e6f7420746865206f776e6572600082015250565b6000613d6a602083612cd0565b9150613d7582613d34565b602082019050919050565b60006020820190508181036000830152613d9981613d5d565b9050919050565b7f4552433732313a207472616e736665722066726f6d20696e636f72726563742060008201527f6f776e6572000000000000000000000000000000000000000000000000000000602082015250565b6000613dfc602583612cd0565b9150613e0782613da0565b604082019050919050565b60006020820190508181036000830152613e2b81613def565b9050919050565b7f4552433732313a207472616e7366657220746f20746865207a65726f2061646460008201527f7265737300000000000000000000000000000000000000000000000000000000602082015250565b6000613e8e602483612cd0565b9150613e9982613e32565b604082019050919050565b60006020820190508181036000830152613ebd81613e81565b9050919050565b7f4552433732313a20617070726f766520746f2063616c6c657200000000000000600082015250565b6000613efa601983612cd0565b9150613f0582613ec4565b602082019050919050565b60006020820190508181036000830152613f2981613eed565b9050919050565b7f4552433732313a207472616e7366657220746f206e6f6e20455243373231526560008201527f63656976657220696d706c656d656e7465720000000000000000000000000000602082015250565b6000613f8c603283612cd0565b9150613f9782613f30565b604082019050919050565b60006020820190508181036000830152613fbb81613f7f565b9050919050565b7f4e487b7100000000000000000000000000000000000000000000000000000000600052601260045260246000fd5b7f455243373231456e756d657261626c653a20636f6e736563757469766520747260008201527f616e7366657273206e6f7420737570706f727465640000000000000000000000602082015250565b600061404d603583612cd0565b915061405882613ff1565b604082019050919050565b6000602082019050818103600083015261407c81614040565b9050919050565b600081519050919050565b600082825260208201905092915050565b60006140aa82614083565b6140b4818561408e565b93506140c4818560208601612ce1565b6140cd81612d0b565b840191505092915050565b60006080820190506140ed6000830187612e0c565b6140fa6020830186612e0c565b6141076040830185612ea2565b8181036060830152614119818461409f565b905095945050505050565b60008151905061413381612bdd565b92915050565b60006020828403121561414f5761414e612ba7565b5b600061415d84828501614124565b91505092915050565b600061417182612d77565b915061417c83612d77565b9250828203905081811115614194576141936135f6565b5b92915050565b7f4e487b7100000000000000000000000000000000000000000000000000000000600052603160045260246000fd5b7f4552433732313a206d696e7420746f20746865207a65726f2061646472657373600082015250565b60006141ff602083612cd0565b915061420a826141c9565b602082019050919050565b6000602082019050818103600083015261422e816141f2565b9050919050565b7f4552433732313a20746f6b656e20616c7265616479206d696e74656400000000600082015250565b600061426b601c83612cd0565b915061427682614235565b602082019050919050565b6000602082019050818103600083015261429a8161425e565b905091905056fea264697066735822122081f90009c7d206c3f9bee2b920cfba7659febdc2208b40a7b1aa77b604f3e96c64736f6c63430008110033",
  "linkReferences": {},
  "deployedLinkReferences": {}
}