{
  "_format": "hh-sol-artifact-1",
  "contractName": "Cowz",
  "sourceName": "contracts/Cowz.sol",
  "abi": [
    {
      "inputs": [],
      "stateMutability": "nonpayable",
      "type": "constructor"
    },
    {
      "anonymous": false,
      "inputs": [
        {
          "indexed": true,
          "internalType": "address",
          "name": "owner",
          "type": "address"
        },
        {
          "indexed": true,
          "internalType": "address",
          "name": "approved",
          "type": "address"
        },
        {
          "indexed": true,
          "internalType": "uint256",
          "name": "tokenId",
          "type": "uint256"
        }
      ],
      "name": "Approval",
      "type": "event"
    },
    {
      "anonymous": false,
      "inputs": [
        {
          "indexed": true,
          "internalType": "address",
          "name": "owner",
          "type": "address"
        },
        {
          "indexed": true,
          "internalType": "address",
          "name": "operator",
          "type": "address"
        },
        {
          "indexed": false,
          "internalType": "bool",
          "name": "approved",
          "type": "bool"
        }
      ],
      "name": "ApprovalForAll",
      "type": "event"
    },
    {
      "anonymous": false,
      "inputs": [
        {
          "indexed": true,
          "internalType": "address",
          "name": "previousOwner",
          "type": "address"
        },
        {
          "indexed": true,
          "internalType": "address",
          "name": "newOwner",
          "type": "address"
        }
      ],
      "name": "OwnershipTransferred",
      "type": "event"
    },
    {
      "anonymous": false,
      "inputs": [
        {
          "indexed": true,
          "internalType": "address",
          "name": "from",
          "type": "address"
        },
        {
          "indexed": true,
          "internalType": "address",
          "name": "to",
          "type": "address"
        },
        {
          "indexed": true,
          "internalType": "uint256",
          "name": "tokenId",
          "type": "uint256"
        }
      ],
      "name": "Transfer",
      "type": "event"
    },
    {
      "inputs": [
        {
          "internalType": "address",
          "name": "to",
          "type": "address"
        },
        {
          "internalType": "uint256",
          "name": "tokenId",
          "type": "uint256"
        }
      ],
      "name": "approve",
      "outputs": [],
      "stateMutability": "nonpayable",
      "type": "function"
    },
    {
      "inputs": [
        {
          "internalType": "address",
          "name": "owner",
          "type": "address"
        }
      ],
      "name": "balanceOf",
      "outputs": [
        {
          "internalType": "uint256",
          "name": "",
          "type": "uint256"
        }
      ],
      "stateMutability": "view",
      "type": "function"
    },
    {
      "inputs": [],
      "name": "baseExtension",
      "outputs": [
        {
          "internalType": "string",
          "name": "",
          "type": "string"
        }
      ],
      "stateMutability": "view",
      "type": "function"
    },
    {
      "inputs": [],
      "name": "baseURI",
      "outputs": [
        {
          "internalType": "string",
          "name": "",
          "type": "string"
        }
      ],
      "stateMutability": "view",
      "type": "function"
    },
    {
      "inputs": [],
      "name": "cost",
      "outputs": [
        {
          "internalType": "uint256",
          "name": "",
          "type": "uint256"
        }
      ],
      "stateMutability": "view",
      "type": "function"
    },
    {
      "inputs": [
        {
          "internalType": "uint256",
          "name": "tokenId",
          "type": "uint256"
        }
      ],
      "name": "getApproved",
      "outputs": [
        {
          "internalType": "address",
          "name": "",
          "type": "address"
        }
      ],
      "stateMutability": "view",
      "type": "function"
    },
    {
      "inputs": [
        {
          "internalType": "address",
          "name": "owner",
          "type": "address"
        },
        {
          "internalType": "address",
          "name": "operator",
          "type": "address"
        }
      ],
      "name": "isApprovedForAll",
      "outputs": [
        {
          "internalType": "bool",
          "name": "",
          "type": "bool"
        }
      ],
      "stateMutability": "view",
      "type": "function"
    },
    {
      "inputs": [],
      "name": "maxMintAmount",
      "outputs": [
        {
          "internalType": "uint256",
          "name": "",
          "type": "uint256"
        }
      ],
      "stateMutability": "view",
      "type": "function"
    },
    {
      "inputs": [],
      "name": "maxPerWallet",
      "outputs": [
        {
          "internalType": "uint256",
          "name": "",
          "type": "uint256"
        }
      ],
      "stateMutability": "view",
      "type": "function"
    },
    {
      "inputs": [],
      "name": "maxSupply",
      "outputs": [
        {
          "internalType": "uint256",
          "name": "",
          "type": "uint256"
        }
      ],
      "stateMutability": "view",
      "type": "function"
    },
    {
      "inputs": [
        {
          "internalType": "address",
          "name": "_to",
          "type": "address"
        },
        {
          "internalType": "uint256",
          "name": "_mintAmount",
          "type": "uint256"
        }
      ],
      "name": "mint",
      "outputs": [],
      "stateMutability": "payable",
      "type": "function"
    },
    {
      "inputs": [],
      "name": "name",
      "outputs": [
        {
          "internalType": "string",
          "name": "",
          "type": "string"
        }
      ],
      "stateMutability": "view",
      "type": "function"
    },
    {
      "inputs": [],
      "name": "owner",
      "outputs": [
        {
          "internalType": "address",
          "name": "",
          "type": "address"
        }
      ],
      "stateMutability": "view",
      "type": "function"
    },
    {
      "inputs": [
        {
          "internalType": "uint256",
          "name": "tokenId",
          "type": "uint256"
        }
      ],
      "name": "ownerOf",
      "outputs": [
        {
          "internalType": "address",
          "name": "",
          "type": "address"
        }
      ],
      "stateMutability": "view",
      "type": "function"
    },
    {
      "inputs": [
        {
          "internalType": "bool",
          "name": "_state",
          "type": "bool"
        }
      ],
      "name": "pause",
      "outputs": [],
      "stateMutability": "nonpayable",
      "type": "function"
    },
    {
      "inputs": [],
      "name": "paused",
      "outputs": [
        {
          "internalType": "bool",
          "name": "",
          "type": "bool"
        }
      ],
      "stateMutability": "view",
      "type": "function"
    },
    {
      "inputs": [
        {
          "internalType": "address",
          "name": "_user",
          "type": "address"
        }
      ],
      "name": "removeWhitelistUser",
      "outputs": [],
      "stateMutability": "nonpayable",
      "type": "function"
    },
    {
      "inputs": [],
      "name": "renounceOwnership",
      "outputs": [],
      "stateMutability": "nonpayable",
      "type": "function"
    },
    {
      "inputs": [
        {
          "internalType": "address",
          "name": "from",
          "type": "address"
        },
        {
          "internalType": "address",
          "name": "to",
          "type": "address"
        },
        {
          "internalType": "uint256",
          "name": "tokenId",
          "type": "uint256"
        }
      ],
      "name": "safeTransferFrom",
      "outputs": [],
      "stateMutability": "nonpayable",
      "type": "function"
    },
    {
      "inputs": [
        {
          "internalType": "address",
          "name": "from",
          "type": "address"
        },
        {
          "internalType": "address",
          "name": "to",
          "type": "address"
        },
        {
          "internalType": "uint256",
          "name": "tokenId",
          "type": "uint256"
        },
        {
          "internalType": "bytes",
          "name": "data",
          "type": "bytes"
        }
      ],
      "name": "safeTransferFrom",
      "outputs": [],
      "stateMutability": "nonpayable",
      "type": "function"
    },
    {
      "inputs": [
        {
          "internalType": "address",
          "name": "operator",
          "type": "address"
        },
        {
          "internalType": "bool",
          "name": "approved",
          "type": "bool"
        }
      ],
      "name": "setApprovalForAll",
      "outputs": [],
      "stateMutability": "nonpayable",
      "type": "function"
    },
    {
      "inputs": [
        {
          "internalType": "string",
          "name": "_newBaseExtension",
          "type": "string"
        }
      ],
      "name": "setBaseExtension",
      "outputs": [],
      "stateMutability": "nonpayable",
      "type": "function"
    },
    {
      "inputs": [
        {
          "internalType": "string",
          "name": "_newBaseURI",
          "type": "string"
        }
      ],
      "name": "setBaseURI",
      "outputs": [],
      "stateMutability": "nonpayable",
      "type": "function"
    },
    {
      "inputs": [
        {
          "internalType": "uint256",
          "name": "_newCost",
          "type": "uint256"
        }
      ],
      "name": "setCost",
      "outputs": [],
      "stateMutability": "nonpayable",
      "type": "function"
    },
    {
      "inputs": [
        {
          "internalType": "uint256",
          "name": "_newMaxMintAmount",
          "type": "uint256"
        }
      ],
      "name": "setMaxMintAmount",
      "outputs": [],
      "stateMutability": "nonpayable",
      "type": "function"
    },
    {
      "inputs": [
        {
          "internalType": "uint256",
          "name": "_newMaxPerWallet",
          "type": "uint256"
        }
      ],
      "name": "setMaxPerWallet",
      "outputs": [],
      "stateMutability": "nonpayable",
      "type": "function"
    },
    {
      "inputs": [
        {
          "internalType": "bytes4",
          "name": "interfaceId",
          "type": "bytes4"
        }
      ],
      "name": "supportsInterface",
      "outputs": [
        {
          "internalType": "bool",
          "name": "",
          "type": "bool"
        }
      ],
      "stateMutability": "view",
      "type": "function"
    },
    {
      "inputs": [],
      "name": "symbol",
      "outputs": [
        {
          "internalType": "string",
          "name": "",
          "type": "string"
        }
      ],
      "stateMutability": "view",
      "type": "function"
    },
    {
      "inputs": [
        {
          "internalType": "uint256",
          "name": "index",
          "type": "uint256"
        }
      ],
      "name": "tokenByIndex",
      "outputs": [
        {
          "internalType": "uint256",
          "name": "",
          "type": "uint256"
        }
      ],
      "stateMutability": "view",
      "type": "function"
    },
    {
      "inputs": [
        {
          "internalType": "address",
          "name": "owner",
          "type": "address"
        },
        {
          "internalType": "uint256",
          "name": "index",
          "type": "uint256"
        }
      ],
      "name": "tokenOfOwnerByIndex",
      "outputs": [
        {
          "internalType": "uint256",
          "name": "",
          "type": "uint256"
        }
      ],
      "stateMutability": "view",
      "type": "function"
    },
    {
      "inputs": [
        {
          "internalType": "uint256",
          "name": "tokenId",
          "type": "uint256"
        }
      ],
      "name": "tokenURI",
      "outputs": [
        {
          "internalType": "string",
          "name": "",
          "type": "string"
        }
      ],
      "stateMutability": "view",
      "type": "function"
    },
    {
      "inputs": [],
      "name": "totalSupply",
      "outputs": [
        {
          "internalType": "uint256",
          "name": "",
          "type": "uint256"
        }
      ],
      "stateMutability": "view",
      "type": "function"
    },
    {
      "inputs": [
        {
          "internalType": "address",
          "name": "from",
          "type": "address"
        },
        {
          "internalType": "address",
          "name": "to",
          "type": "address"
        },
        {
          "internalType": "uint256",
          "name": "tokenId",
          "type": "uint256"
        }
      ],
      "name": "transferFrom",
      "outputs": [],
      "stateMutability": "nonpayable",
      "type": "function"
    },
    {
      "inputs": [
        {
          "internalType": "address",
          "name": "newOwner",
          "type": "address"
        }
      ],
      "name": "transferOwnership",
      "outputs": [],
      "stateMutability": "nonpayable",
      "type": "function"
    },
    {
      "inputs": [
        {
          "internalType": "address",
          "name": "_owner",
          "type": "address"
        }
      ],
      "name": "walletOfOwner",
      "outputs": [
        {
          "internalType": "uint256[]",
          "name": "",
          "type": "uint256[]"
        }
      ],
      "stateMutability": "view",
      "type": "function"
    },
    {
      "inputs": [
        {
          "internalType": "address",
          "name": "_user",
          "type": "address"
        }
      ],
      "name": "whitelistUser",
      "outputs": [],
      "stateMutability": "nonpayable",
      "type": "function"
    },
    {
      "inputs": [
        {
          "internalType": "address",
          "name": "",
          "type": "address"
        }
      ],
      "name": "whitelisted",
      "outputs": [
        {
          "internalType": "bool",
          "name": "",
          "type": "bool"
        }
      ],
      "stateMutability": "view",
      "type": "function"
    },
    {
      "inputs": [],
      "name": "withdraw",
      "outputs": [],
      "stateMutability": "payable",
      "type": "function"
    }
  ],
  "bytecode": "0x60806040526040518060400160405280600581526020017f2e6a736f6e000000000000000000000000000000000000000000000000000000815250600c90816200004a919062001362565b506000600d5560c8600e556001600f5560016010556000601160006101000a81548160ff0219169083151502179055503480156200008757600080fd5b506040518060400160405280600481526020017f436f777a000000000000000000000000000000000000000000000000000000008152506040518060400160405280600481526020017f434f575a00000000000000000000000000000000000000000000000000000000815250816000908162000105919062001362565b50806001908162000117919062001362565b5050506200013a6200012e6200015360201b60201c565b6200015b60201b60201c565b6200014d3360016200022160201b60201c565b62001cb3565b600033905090565b6000600a60009054906101000a900473ffffffffffffffffffffffffffffffffffffffff16905081600a60006101000a81548173ffffffffffffffffffffffffffffffffffffffff021916908373ffffffffffffffffffffffffffffffffffffffff1602179055508173ffffffffffffffffffffffffffffffffffffffff168173ffffffffffffffffffffffffffffffffffffffff167f8be0079c531659141344cd1fd0a4f28419497f9722a3daafe3b4186f6b6457e060405160405180910390a35050565b600062000233620004d660201b60201c565b9050601160009054906101000a900460ff161562000288576040517f08c379a00000000000000000000000000000000000000000000000000000000081526004016200027f90620014aa565b60405180910390fd5b60008211620002ce576040517f08c379a0000000000000000000000000000000000000000000000000000000008152600401620002c5906200151c565b60405180910390fd5b600f5482111562000316576040517f08c379a00000000000000000000000000000000000000000000000000000000081526004016200030d906200158e565b60405180910390fd5b60105460016200032c33620004e360201b60201c565b620003389190620015df565b11156200037c576040517f08c379a000000000000000000000000000000000000000000000000000000000815260040162000373906200166a565b60405180910390fd5b600e5482826200038d9190620015df565b1115620003d1576040517f08c379a0000000000000000000000000000000000000000000000000000000008152600401620003c890620016dc565b60405180910390fd5b620003e16200059d60201b60201c565b73ffffffffffffffffffffffffffffffffffffffff163373ffffffffffffffffffffffffffffffffffffffff16146200048c5760011515601260003373ffffffffffffffffffffffffffffffffffffffff1673ffffffffffffffffffffffffffffffffffffffff16815260200190815260200160002060009054906101000a900460ff161515146200048b5781600d546200047d9190620016fe565b3410156200048a57600080fd5b5b5b6000600190505b828111620004d057620004ba848284620004ae9190620015df565b620005c760201b60201c565b8080620004c79062001749565b91505062000493565b50505050565b6000600880549050905090565b60008073ffffffffffffffffffffffffffffffffffffffff168273ffffffffffffffffffffffffffffffffffffffff160362000556576040517f08c379a00000000000000000000000000000000000000000000000000000000081526004016200054d906200180c565b60405180910390fd5b600360008373ffffffffffffffffffffffffffffffffffffffff1673ffffffffffffffffffffffffffffffffffffffff168152602001908152602001600020549050919050565b6000600a60009054906101000a900473ffffffffffffffffffffffffffffffffffffffff16905090565b620005e9828260405180602001604052806000815250620005ed60201b60201c565b5050565b620005ff83836200065b60201b60201c565b620006146000848484620008a160201b60201c565b62000656576040517f08c379a00000000000000000000000000000000000000000000000000000000081526004016200064d90620018a4565b60405180910390fd5b505050565b600073ffffffffffffffffffffffffffffffffffffffff168273ffffffffffffffffffffffffffffffffffffffff1603620006cd576040517f08c379a0000000000000000000000000000000000000000000000000000000008152600401620006c49062001916565b60405180910390fd5b620006de8162000a4a60201b60201c565b1562000721576040517f08c379a0000000000000000000000000000000000000000000000000000000008152600401620007189062001988565b60405180910390fd5b6200073760008383600162000a9360201b60201c565b620007488162000a4a60201b60201c565b156200078b576040517f08c379a0000000000000000000000000000000000000000000000000000000008152600401620007829062001988565b60405180910390fd5b6001600360008473ffffffffffffffffffffffffffffffffffffffff1673ffffffffffffffffffffffffffffffffffffffff16815260200190815260200160002060008282540192505081905550816002600083815260200190815260200160002060006101000a81548173ffffffffffffffffffffffffffffffffffffffff021916908373ffffffffffffffffffffffffffffffffffffffff160217905550808273ffffffffffffffffffffffffffffffffffffffff16600073ffffffffffffffffffffffffffffffffffffffff167fddf252ad1be2c89b69c2b068fc378daa952ba7f163c4a11628f55a4df523b3ef60405160405180910390a46200089d60008383600162000c2760201b60201c565b5050565b6000620008cf8473ffffffffffffffffffffffffffffffffffffffff1662000c2d60201b6200175d1760201c565b1562000a3d578373ffffffffffffffffffffffffffffffffffffffff1663150b7a02620009016200015360201b60201c565b8786866040518563ffffffff1660e01b815260040162000925949392919062001a9a565b6020604051808303816000875af19250505080156200096457506040513d601f19601f8201168201806040525081019062000961919062001b50565b60015b620009ec573d806000811462000997576040519150601f19603f3d011682016040523d82523d6000602084013e6200099c565b606091505b506000815103620009e4576040517f08c379a0000000000000000000000000000000000000000000000000000000008152600401620009db90620018a4565b60405180910390fd5b805181602001fd5b63150b7a0260e01b7bffffffffffffffffffffffffffffffffffffffffffffffffffffffff1916817bffffffffffffffffffffffffffffffffffffffffffffffffffffffff19161491505062000a42565b600190505b949350505050565b60008073ffffffffffffffffffffffffffffffffffffffff1662000a748362000c5060201b60201c565b73ffffffffffffffffffffffffffffffffffffffff1614159050919050565b62000aac8484848462000c8d60201b620017801760201c565b600181111562000af3576040517f08c379a000000000000000000000000000000000000000000000000000000000815260040162000aea9062001bf8565b60405180910390fd5b6000829050600073ffffffffffffffffffffffffffffffffffffffff168573ffffffffffffffffffffffffffffffffffffffff160362000b445762000b3e8162000dba60201b60201c565b62000b8c565b8373ffffffffffffffffffffffffffffffffffffffff168573ffffffffffffffffffffffffffffffffffffffff161462000b8b5762000b8a858262000e0360201b60201c565b5b5b600073ffffffffffffffffffffffffffffffffffffffff168473ffffffffffffffffffffffffffffffffffffffff160362000bd85762000bd28162000f8060201b60201c565b62000c20565b8473ffffffffffffffffffffffffffffffffffffffff168473ffffffffffffffffffffffffffffffffffffffff161462000c1f5762000c1e84826200105c60201b60201c565b5b5b5050505050565b50505050565b6000808273ffffffffffffffffffffffffffffffffffffffff163b119050919050565b60006002600083815260200190815260200160002060009054906101000a900473ffffffffffffffffffffffffffffffffffffffff169050919050565b600181111562000db457600073ffffffffffffffffffffffffffffffffffffffff168473ffffffffffffffffffffffffffffffffffffffff161462000d255780600360008673ffffffffffffffffffffffffffffffffffffffff1673ffffffffffffffffffffffffffffffffffffffff168152602001908152602001600020600082825462000d1d919062001c1a565b925050819055505b600073ffffffffffffffffffffffffffffffffffffffff168373ffffffffffffffffffffffffffffffffffffffff161462000db35780600360008573ffffffffffffffffffffffffffffffffffffffff1673ffffffffffffffffffffffffffffffffffffffff168152602001908152602001600020600082825462000dab9190620015df565b925050819055505b5b50505050565b6008805490506009600083815260200190815260200160002081905550600881908060018154018082558091505060019003906000526020600020016000909190919091505550565b6000600162000e1d84620004e360201b620012bc1760201c565b62000e29919062001c1a565b905060006007600084815260200190815260200160002054905081811462000f0f576000600660008673ffffffffffffffffffffffffffffffffffffffff1673ffffffffffffffffffffffffffffffffffffffff168152602001908152602001600020600084815260200190815260200160002054905080600660008773ffffffffffffffffffffffffffffffffffffffff1673ffffffffffffffffffffffffffffffffffffffff168152602001908152602001600020600084815260200190815260200160002081905550816007600083815260200190815260200160002081905550505b6007600084815260200190815260200160002060009055600660008573ffffffffffffffffffffffffffffffffffffffff1673ffffffffffffffffffffffffffffffffffffffff16815260200190815260200160002060008381526020019081526020016000206000905550505050565b6000600160088054905062000f96919062001c1a565b905060006009600084815260200190815260200160002054905060006008838154811062000fc95762000fc862001c55565b5b90600052602060002001549050806008838154811062000fee5762000fed62001c55565b5b90600052602060002001819055508160096000838152602001908152602001600020819055506009600085815260200190815260200160002060009055600880548062001040576200103f62001c84565b5b6001900381819060005260206000200160009055905550505050565b60006200107483620004e360201b620012bc1760201c565b905081600660008573ffffffffffffffffffffffffffffffffffffffff1673ffffffffffffffffffffffffffffffffffffffff168152602001908152602001600020600083815260200190815260200160002081905550806007600084815260200190815260200160002081905550505050565b600081519050919050565b7f4e487b7100000000000000000000000000000000000000000000000000000000600052604160045260246000fd5b7f4e487b7100000000000000000000000000000000000000000000000000000000600052602260045260246000fd5b600060028204905060018216806200116a57607f821691505b60208210810362001180576200117f62001122565b5b50919050565b60008190508160005260206000209050919050565b60006020601f8301049050919050565b600082821b905092915050565b600060088302620011ea7fffffffffffffffffffffffffffffffffffffffffffffffffffffffffffffffff82620011ab565b620011f68683620011ab565b95508019841693508086168417925050509392505050565b6000819050919050565b6000819050919050565b6000620012436200123d62001237846200120e565b62001218565b6200120e565b9050919050565b6000819050919050565b6200125f8362001222565b620012776200126e826200124a565b848454620011b8565b825550505050565b600090565b6200128e6200127f565b6200129b81848462001254565b505050565b5b81811015620012c357620012b760008262001284565b600181019050620012a1565b5050565b601f8211156200131257620012dc8162001186565b620012e7846200119b565b81016020851015620012f7578190505b6200130f62001306856200119b565b830182620012a0565b50505b505050565b600082821c905092915050565b6000620013376000198460080262001317565b1980831691505092915050565b600062001352838362001324565b9150826002028217905092915050565b6200136d82620010e8565b67ffffffffffffffff811115620013895762001388620010f3565b5b62001395825462001151565b620013a2828285620012c7565b600060209050601f831160018114620013da5760008415620013c5578287015190505b620013d1858262001344565b86555062001441565b601f198416620013ea8662001186565b60005b828110156200141457848901518255600182019150602085019450602081019050620013ed565b8683101562001434578489015162001430601f89168262001324565b8355505b6001600288020188555050505b505050505050565b600082825260208201905092915050565b7f4d696e74696e67206e6f7420656e61626c656400000000000000000000000000600082015250565b60006200149260138362001449565b91506200149f826200145a565b602082019050919050565b60006020820190508181036000830152620014c58162001483565b9050919050565b7f496e76616c6964206d696e7420616d6f756e7400000000000000000000000000600082015250565b60006200150460138362001449565b91506200151182620014cc565b602082019050919050565b600060208201905081810360008301526200153781620014f5565b9050919050565b7f457863656564206d617820616d6f756e74000000000000000000000000000000600082015250565b60006200157660118362001449565b915062001583826200153e565b602082019050919050565b60006020820190508181036000830152620015a98162001567565b9050919050565b7f4e487b7100000000000000000000000000000000000000000000000000000000600052601160045260246000fd5b6000620015ec826200120e565b9150620015f9836200120e565b9250828201905080821115620016145762001613620015b0565b5b92915050565b7f457863656564206d61782077616c6c6574000000000000000000000000000000600082015250565b60006200165260118362001449565b91506200165f826200161a565b602082019050919050565b60006020820190508181036000830152620016858162001643565b9050919050565b7f536f6c64206f7574000000000000000000000000000000000000000000000000600082015250565b6000620016c460088362001449565b9150620016d1826200168c565b602082019050919050565b60006020820190508181036000830152620016f781620016b5565b9050919050565b60006200170b826200120e565b915062001718836200120e565b925082820262001728816200120e565b91508282048414831517620017425762001741620015b0565b5b5092915050565b600062001756826200120e565b91507fffffffffffffffffffffffffffffffffffffffffffffffffffffffffffffffff82036200178b576200178a620015b0565b5b600182019050919050565b7f4552433732313a2061646472657373207a65726f206973206e6f74206120766160008201527f6c6964206f776e65720000000000000000000000000000000000000000000000602082015250565b6000620017f460298362001449565b9150620018018262001796565b604082019050919050565b600060208201905081810360008301526200182781620017e5565b9050919050565b7f4552433732313a207472616e7366657220746f206e6f6e20455243373231526560008201527f63656976657220696d706c656d656e7465720000000000000000000000000000602082015250565b60006200188c60328362001449565b915062001899826200182e565b604082019050919050565b60006020820190508181036000830152620018bf816200187d565b9050919050565b7f4552433732313a206d696e7420746f20746865207a65726f2061646472657373600082015250565b6000620018fe60208362001449565b91506200190b82620018c6565b602082019050919050565b600060208201905081810360008301526200193181620018ef565b9050919050565b7f4552433732313a20746f6b656e20616c7265616479206d696e74656400000000600082015250565b600062001970601c8362001449565b91506200197d8262001938565b602082019050919050565b60006020820190508181036000830152620019a38162001961565b9050919050565b600073ffffffffffffffffffffffffffffffffffffffff82169050919050565b6000620019d782620019aa565b9050919050565b620019e981620019ca565b82525050565b620019fa816200120e565b82525050565b600081519050919050565b600082825260208201905092915050565b60005b8381101562001a3c57808201518184015260208101905062001a1f565b60008484015250505050565b6000601f19601f8301169050919050565b600062001a668262001a00565b62001a72818562001a0b565b935062001a8481856020860162001a1c565b62001a8f8162001a48565b840191505092915050565b600060808201905062001ab16000830187620019de565b62001ac06020830186620019de565b62001acf6040830185620019ef565b818103606083015262001ae3818462001a59565b905095945050505050565b600080fd5b60007fffffffff0000000000000000000000000000000000000000000000000000000082169050919050565b62001b2a8162001af3565b811462001b3657600080fd5b50565b60008151905062001b4a8162001b1f565b92915050565b60006020828403121562001b695762001b6862001aee565b5b600062001b798482850162001b39565b91505092915050565b7f455243373231456e756d657261626c653a20636f6e736563757469766520747260008201527f616e7366657273206e6f7420737570706f727465640000000000000000000000602082015250565b600062001be060358362001449565b915062001bed8262001b82565b604082019050919050565b6000602082019050818103600083015262001c138162001bd1565b9050919050565b600062001c27826200120e565b915062001c34836200120e565b925082820390508181111562001c4f5762001c4e620015b0565b5b92915050565b7f4e487b7100000000000000000000000000000000000000000000000000000000600052603260045260246000fd5b7f4e487b7100000000000000000000000000000000000000000000000000000000600052603160045260246000fd5b6146a68062001cc36000396000f3fe6080604052600436106102255760003560e01c80634f6ccce711610123578063a22cb465116100ab578063d936547e1161006f578063d936547e146107eb578063da3ef23f14610828578063e268e4d314610851578063e985e9c51461087a578063f2fde38b146108b757610225565b8063a22cb46514610706578063b88d4fde1461072f578063c668286214610758578063c87b56dd14610783578063d5abeb01146107c057610225565b80636c0360eb116100f25780636c0360eb1461063157806370a082311461065c578063715018a6146106995780638da5cb5b146106b057806395d89b41146106db57610225565b80634f6ccce71461056357806355f804b3146105a05780635c975abb146105c95780636352211e146105f457610225565b806323b872dd116101b157806342842e0e1161017557806342842e0e14610480578063438b6300146104a957806344a0d68a146104e6578063453c23101461050f5780634a4c560d1461053a57610225565b806323b872dd146103cb5780632f745c59146103f457806330cc7ae0146104315780633ccfd60b1461045a57806340c10f191461046457610225565b8063088a4ed0116101f8578063088a4ed0146102f8578063095ea7b31461032157806313faede61461034a57806318160ddd14610375578063239c70ae146103a057610225565b806301ffc9a71461022a57806302329a291461026757806306fdde0314610290578063081812fc146102bb575b600080fd5b34801561023657600080fd5b50610251600480360381019061024c9190612dbc565b6108e0565b60405161025e9190612e04565b60405180910390f35b34801561027357600080fd5b5061028e60048036038101906102899190612e4b565b61095a565b005b34801561029c57600080fd5b506102a561097f565b6040516102b29190612f08565b60405180910390f35b3480156102c757600080fd5b506102e260048036038101906102dd9190612f60565b610a11565b6040516102ef9190612fce565b60405180910390f35b34801561030457600080fd5b5061031f600480360381019061031a9190612f60565b610a57565b005b34801561032d57600080fd5b5061034860048036038101906103439190613015565b610a69565b005b34801561035657600080fd5b5061035f610b80565b60405161036c9190613064565b60405180910390f35b34801561038157600080fd5b5061038a610b86565b6040516103979190613064565b60405180910390f35b3480156103ac57600080fd5b506103b5610b93565b6040516103c29190613064565b60405180910390f35b3480156103d757600080fd5b506103f260048036038101906103ed919061307f565b610b99565b005b34801561040057600080fd5b5061041b60048036038101906104169190613015565b610bf9565b6040516104289190613064565b60405180910390f35b34801561043d57600080fd5b50610458600480360381019061045391906130d2565b610c9e565b005b610462610d01565b005b61047e60048036038101906104799190613015565b610d49565b005b34801561048c57600080fd5b506104a760048036038101906104a2919061307f565b610fc0565b005b3480156104b557600080fd5b506104d060048036038101906104cb91906130d2565b610fe0565b6040516104dd91906131bd565b60405180910390f35b3480156104f257600080fd5b5061050d60048036038101906105089190612f60565b61108e565b005b34801561051b57600080fd5b506105246110a0565b6040516105319190613064565b60405180910390f35b34801561054657600080fd5b50610561600480360381019061055c91906130d2565b6110a6565b005b34801561056f57600080fd5b5061058a60048036038101906105859190612f60565b611109565b6040516105979190613064565b60405180910390f35b3480156105ac57600080fd5b506105c760048036038101906105c29190613314565b61117a565b005b3480156105d557600080fd5b506105de611195565b6040516105eb9190612e04565b60405180910390f35b34801561060057600080fd5b5061061b60048036038101906106169190612f60565b6111a8565b6040516106289190612fce565b60405180910390f35b34801561063d57600080fd5b5061064661122e565b6040516106539190612f08565b60405180910390f35b34801561066857600080fd5b50610683600480360381019061067e91906130d2565b6112bc565b6040516106909190613064565b60405180910390f35b3480156106a557600080fd5b506106ae611373565b005b3480156106bc57600080fd5b506106c5611387565b6040516106d29190612fce565b60405180910390f35b3480156106e757600080fd5b506106f06113b1565b6040516106fd9190612f08565b60405180910390f35b34801561071257600080fd5b5061072d6004803603810190610728919061335d565b611443565b005b34801561073b57600080fd5b506107566004803603810190610751919061343e565b611459565b005b34801561076457600080fd5b5061076d6114bb565b60405161077a9190612f08565b60405180910390f35b34801561078f57600080fd5b506107aa60048036038101906107a59190612f60565b611549565b6040516107b79190612f08565b60405180910390f35b3480156107cc57600080fd5b506107d56115f3565b6040516107e29190613064565b60405180910390f35b3480156107f757600080fd5b50610812600480360381019061080d91906130d2565b6115f9565b60405161081f9190612e04565b60405180910390f35b34801561083457600080fd5b5061084f600480360381019061084a9190613314565b611619565b005b34801561085d57600080fd5b5061087860048036038101906108739190612f60565b611634565b005b34801561088657600080fd5b506108a1600480360381019061089c91906134c1565b611646565b6040516108ae9190612e04565b60405180910390f35b3480156108c357600080fd5b506108de60048036038101906108d991906130d2565b6116da565b005b60007f780e9d63000000000000000000000000000000000000000000000000000000007bffffffffffffffffffffffffffffffffffffffffffffffffffffffff1916827bffffffffffffffffffffffffffffffffffffffffffffffffffffffff191614806109535750610952826118a6565b5b9050919050565b610962611988565b80601160006101000a81548160ff02191690831515021790555050565b60606000805461098e90613530565b80601f01602080910402602001604051908101604052809291908181526020018280546109ba90613530565b8015610a075780601f106109dc57610100808354040283529160200191610a07565b820191906000526020600020905b8154815290600101906020018083116109ea57829003601f168201915b5050505050905090565b6000610a1c82611a06565b6004600083815260200190815260200160002060009054906101000a900473ffffffffffffffffffffffffffffffffffffffff169050919050565b610a5f611988565b80600f8190555050565b6000610a74826111a8565b90508073ffffffffffffffffffffffffffffffffffffffff168373ffffffffffffffffffffffffffffffffffffffff1603610ae4576040517f08c379a0000000000000000000000000000000000000000000000000000000008152600401610adb906135d3565b60405180910390fd5b8073ffffffffffffffffffffffffffffffffffffffff16610b03611a51565b73ffffffffffffffffffffffffffffffffffffffff161480610b325750610b3181610b2c611a51565b611646565b5b610b71576040517f08c379a0000000000000000000000000000000000000000000000000000000008152600401610b6890613665565b60405180910390fd5b610b7b8383611a59565b505050565b600d5481565b6000600880549050905090565b600f5481565b610baa610ba4611a51565b82611b12565b610be9576040517f08c379a0000000000000000000000000000000000000000000000000000000008152600401610be0906136f7565b60405180910390fd5b610bf4838383611ba7565b505050565b6000610c04836112bc565b8210610c45576040517f08c379a0000000000000000000000000000000000000000000000000000000008152600401610c3c90613789565b60405180910390fd5b600660008473ffffffffffffffffffffffffffffffffffffffff1673ffffffffffffffffffffffffffffffffffffffff168152602001908152602001600020600083815260200190815260200160002054905092915050565b610ca6611988565b6000601260008373ffffffffffffffffffffffffffffffffffffffff1673ffffffffffffffffffffffffffffffffffffffff16815260200190815260200160002060006101000a81548160ff02191690831515021790555050565b610d09611988565b3373ffffffffffffffffffffffffffffffffffffffff166108fc479081150290604051600060405180830381858888f19350505050610d4757600080fd5b565b6000610d53610b86565b9050601160009054906101000a900460ff1615610da5576040517f08c379a0000000000000000000000000000000000000000000000000000000008152600401610d9c906137f5565b60405180910390fd5b60008211610de8576040517f08c379a0000000000000000000000000000000000000000000000000000000008152600401610ddf90613861565b60405180910390fd5b600f54821115610e2d576040517f08c379a0000000000000000000000000000000000000000000000000000000008152600401610e24906138cd565b60405180910390fd5b6010546001610e3b336112bc565b610e45919061391c565b1115610e86576040517f08c379a0000000000000000000000000000000000000000000000000000000008152600401610e7d9061399c565b60405180910390fd5b600e548282610e95919061391c565b1115610ed6576040517f08c379a0000000000000000000000000000000000000000000000000000000008152600401610ecd90613a08565b60405180910390fd5b610ede611387565b73ffffffffffffffffffffffffffffffffffffffff163373ffffffffffffffffffffffffffffffffffffffff1614610f845760011515601260003373ffffffffffffffffffffffffffffffffffffffff1673ffffffffffffffffffffffffffffffffffffffff16815260200190815260200160002060009054906101000a900460ff16151514610f835781600d54610f769190613a28565b341015610f8257600080fd5b5b5b6000600190505b828111610fba57610fa7848284610fa2919061391c565b611ea0565b8080610fb290613a6a565b915050610f8b565b50505050565b610fdb83838360405180602001604052806000815250611459565b505050565b60606000610fed836112bc565b905060008167ffffffffffffffff81111561100b5761100a6131e9565b5b6040519080825280602002602001820160405280156110395781602001602082028036833780820191505090505b50905060005b82811015611083576110518582610bf9565b82828151811061106457611063613ab2565b5b602002602001018181525050808061107b90613a6a565b91505061103f565b508092505050919050565b611096611988565b80600d8190555050565b60105481565b6110ae611988565b6001601260008373ffffffffffffffffffffffffffffffffffffffff1673ffffffffffffffffffffffffffffffffffffffff16815260200190815260200160002060006101000a81548160ff02191690831515021790555050565b6000611113610b86565b8210611154576040517f08c379a000000000000000000000000000000000000000000000000000000000815260040161114b90613b53565b60405180910390fd5b6008828154811061116857611167613ab2565b5b90600052602060002001549050919050565b611182611988565b80600b90816111919190613d1f565b5050565b601160009054906101000a900460ff1681565b6000806111b483611ebe565b9050600073ffffffffffffffffffffffffffffffffffffffff168173ffffffffffffffffffffffffffffffffffffffff1603611225576040517f08c379a000000000000000000000000000000000000000000000000000000000815260040161121c90613e3d565b60405180910390fd5b80915050919050565b600b805461123b90613530565b80601f016020809104026020016040519081016040528092919081815260200182805461126790613530565b80156112b45780601f10611289576101008083540402835291602001916112b4565b820191906000526020600020905b81548152906001019060200180831161129757829003601f168201915b505050505081565b60008073ffffffffffffffffffffffffffffffffffffffff168273ffffffffffffffffffffffffffffffffffffffff160361132c576040517f08c379a000000000000000000000000000000000000000000000000000000000815260040161132390613ecf565b60405180910390fd5b600360008373ffffffffffffffffffffffffffffffffffffffff1673ffffffffffffffffffffffffffffffffffffffff168152602001908152602001600020549050919050565b61137b611988565b6113856000611efb565b565b6000600a60009054906101000a900473ffffffffffffffffffffffffffffffffffffffff16905090565b6060600180546113c090613530565b80601f01602080910402602001604051908101604052809291908181526020018280546113ec90613530565b80156114395780601f1061140e57610100808354040283529160200191611439565b820191906000526020600020905b81548152906001019060200180831161141c57829003601f168201915b5050505050905090565b61145561144e611a51565b8383611fc1565b5050565b61146a611464611a51565b83611b12565b6114a9576040517f08c379a00000000000000000000000000000000000000000000000000000000081526004016114a0906136f7565b60405180910390fd5b6114b58484848461212d565b50505050565b600c80546114c890613530565b80601f01602080910402602001604051908101604052809291908181526020018280546114f490613530565b80156115415780601f1061151657610100808354040283529160200191611541565b820191906000526020600020905b81548152906001019060200180831161152457829003601f168201915b505050505081565b606061155482612189565b611593576040517f08c379a000000000000000000000000000000000000000000000000000000000815260040161158a90613f61565b60405180910390fd5b600061159d6121ca565b905060008151116115bd57604051806020016040528060008152506115eb565b806115c78461225c565b600c6040516020016115db93929190614040565b6040516020818303038152906040525b915050919050565b600e5481565b60126020528060005260406000206000915054906101000a900460ff1681565b611621611988565b80600c90816116309190613d1f565b5050565b61163c611988565b8060108190555050565b6000600560008473ffffffffffffffffffffffffffffffffffffffff1673ffffffffffffffffffffffffffffffffffffffff16815260200190815260200160002060008373ffffffffffffffffffffffffffffffffffffffff1673ffffffffffffffffffffffffffffffffffffffff16815260200190815260200160002060009054906101000a900460ff16905092915050565b6116e2611988565b600073ffffffffffffffffffffffffffffffffffffffff168173ffffffffffffffffffffffffffffffffffffffff1603611751576040517f08c379a0000000000000000000000000000000000000000000000000000000008152600401611748906140e3565b60405180910390fd5b61175a81611efb565b50565b6000808273ffffffffffffffffffffffffffffffffffffffff163b119050919050565b60018111156118a057600073ffffffffffffffffffffffffffffffffffffffff168473ffffffffffffffffffffffffffffffffffffffff16146118145780600360008673ffffffffffffffffffffffffffffffffffffffff1673ffffffffffffffffffffffffffffffffffffffff168152602001908152602001600020600082825461180c9190614103565b925050819055505b600073ffffffffffffffffffffffffffffffffffffffff168373ffffffffffffffffffffffffffffffffffffffff161461189f5780600360008573ffffffffffffffffffffffffffffffffffffffff1673ffffffffffffffffffffffffffffffffffffffff1681526020019081526020016000206000828254611897919061391c565b925050819055505b5b50505050565b60007f80ac58cd000000000000000000000000000000000000000000000000000000007bffffffffffffffffffffffffffffffffffffffffffffffffffffffff1916827bffffffffffffffffffffffffffffffffffffffffffffffffffffffff1916148061197157507f5b5e139f000000000000000000000000000000000000000000000000000000007bffffffffffffffffffffffffffffffffffffffffffffffffffffffff1916827bffffffffffffffffffffffffffffffffffffffffffffffffffffffff1916145b8061198157506119808261232a565b5b9050919050565b611990611a51565b73ffffffffffffffffffffffffffffffffffffffff166119ae611387565b73ffffffffffffffffffffffffffffffffffffffff1614611a04576040517f08c379a00000000000000000000000000000000000000000000000000000000081526004016119fb90614183565b60405180910390fd5b565b611a0f81612189565b611a4e576040517f08c379a0000000000000000000000000000000000000000000000000000000008152600401611a4590613e3d565b60405180910390fd5b50565b600033905090565b816004600083815260200190815260200160002060006101000a81548173ffffffffffffffffffffffffffffffffffffffff021916908373ffffffffffffffffffffffffffffffffffffffff160217905550808273ffffffffffffffffffffffffffffffffffffffff16611acc836111a8565b73ffffffffffffffffffffffffffffffffffffffff167f8c5be1e5ebec7d5bd14f71427d1e84f3dd0314c0f7b2291e5b200ac8c7c3b92560405160405180910390a45050565b600080611b1e836111a8565b90508073ffffffffffffffffffffffffffffffffffffffff168473ffffffffffffffffffffffffffffffffffffffff161480611b605750611b5f8185611646565b5b80611b9e57508373ffffffffffffffffffffffffffffffffffffffff16611b8684610a11565b73ffffffffffffffffffffffffffffffffffffffff16145b91505092915050565b8273ffffffffffffffffffffffffffffffffffffffff16611bc7826111a8565b73ffffffffffffffffffffffffffffffffffffffff1614611c1d576040517f08c379a0000000000000000000000000000000000000000000000000000000008152600401611c1490614215565b60405180910390fd5b600073ffffffffffffffffffffffffffffffffffffffff168273ffffffffffffffffffffffffffffffffffffffff1603611c8c576040517f08c379a0000000000000000000000000000000000000000000000000000000008152600401611c83906142a7565b60405180910390fd5b611c998383836001612394565b8273ffffffffffffffffffffffffffffffffffffffff16611cb9826111a8565b73ffffffffffffffffffffffffffffffffffffffff1614611d0f576040517f08c379a0000000000000000000000000000000000000000000000000000000008152600401611d0690614215565b60405180910390fd5b6004600082815260200190815260200160002060006101000a81549073ffffffffffffffffffffffffffffffffffffffff02191690556001600360008573ffffffffffffffffffffffffffffffffffffffff1673ffffffffffffffffffffffffffffffffffffffff168152602001908152602001600020600082825403925050819055506001600360008473ffffffffffffffffffffffffffffffffffffffff1673ffffffffffffffffffffffffffffffffffffffff16815260200190815260200160002060008282540192505081905550816002600083815260200190815260200160002060006101000a81548173ffffffffffffffffffffffffffffffffffffffff021916908373ffffffffffffffffffffffffffffffffffffffff160217905550808273ffffffffffffffffffffffffffffffffffffffff168473ffffffffffffffffffffffffffffffffffffffff167fddf252ad1be2c89b69c2b068fc378daa952ba7f163c4a11628f55a4df523b3ef60405160405180910390a4611e9b83838360016124f2565b505050565b611eba8282604051806020016040528060008152506124f8565b5050565b60006002600083815260200190815260200160002060009054906101000a900473ffffffffffffffffffffffffffffffffffffffff169050919050565b6000600a60009054906101000a900473ffffffffffffffffffffffffffffffffffffffff16905081600a60006101000a81548173ffffffffffffffffffffffffffffffffffffffff021916908373ffffffffffffffffffffffffffffffffffffffff1602179055508173ffffffffffffffffffffffffffffffffffffffff168173ffffffffffffffffffffffffffffffffffffffff167f8be0079c531659141344cd1fd0a4f28419497f9722a3daafe3b4186f6b6457e060405160405180910390a35050565b8173ffffffffffffffffffffffffffffffffffffffff168373ffffffffffffffffffffffffffffffffffffffff160361202f576040517f08c379a000000000000000000000000000000000000000000000000000000000815260040161202690614313565b60405180910390fd5b80600560008573ffffffffffffffffffffffffffffffffffffffff1673ffffffffffffffffffffffffffffffffffffffff16815260200190815260200160002060008473ffffffffffffffffffffffffffffffffffffffff1673ffffffffffffffffffffffffffffffffffffffff16815260200190815260200160002060006101000a81548160ff0219169083151502179055508173ffffffffffffffffffffffffffffffffffffffff168373ffffffffffffffffffffffffffffffffffffffff167f17307eab39ab6107e8899845ad3d59bd9653f200f220920489ca2b5937696c31836040516121209190612e04565b60405180910390a3505050565b612138848484611ba7565b61214484848484612553565b612183576040517f08c379a000000000000000000000000000000000000000000000000000000000815260040161217a906143a5565b60405180910390fd5b50505050565b60008073ffffffffffffffffffffffffffffffffffffffff166121ab83611ebe565b73ffffffffffffffffffffffffffffffffffffffff1614159050919050565b6060600b80546121d990613530565b80601f016020809104026020016040519081016040528092919081815260200182805461220590613530565b80156122525780601f1061222757610100808354040283529160200191612252565b820191906000526020600020905b81548152906001019060200180831161223557829003601f168201915b5050505050905090565b60606000600161226b846126da565b01905060008167ffffffffffffffff81111561228a576122896131e9565b5b6040519080825280601f01601f1916602001820160405280156122bc5781602001600182028036833780820191505090505b509050600082602001820190505b60011561231f578080600190039150507f3031323334353637383961626364656600000000000000000000000000000000600a86061a8153600a8581612313576123126143c5565b5b049450600085036122ca575b819350505050919050565b60007f01ffc9a7000000000000000000000000000000000000000000000000000000007bffffffffffffffffffffffffffffffffffffffffffffffffffffffff1916827bffffffffffffffffffffffffffffffffffffffffffffffffffffffff1916149050919050565b6123a084848484611780565b60018111156123e4576040517f08c379a00000000000000000000000000000000000000000000000000000000081526004016123db90614466565b60405180910390fd5b6000829050600073ffffffffffffffffffffffffffffffffffffffff168573ffffffffffffffffffffffffffffffffffffffff160361242b576124268161282d565b61246a565b8373ffffffffffffffffffffffffffffffffffffffff168573ffffffffffffffffffffffffffffffffffffffff1614612469576124688582612876565b5b5b600073ffffffffffffffffffffffffffffffffffffffff168473ffffffffffffffffffffffffffffffffffffffff16036124ac576124a7816129e3565b6124eb565b8473ffffffffffffffffffffffffffffffffffffffff168473ffffffffffffffffffffffffffffffffffffffff16146124ea576124e98482612ab4565b5b5b5050505050565b50505050565b6125028383612b33565b61250f6000848484612553565b61254e576040517f08c379a0000000000000000000000000000000000000000000000000000000008152600401612545906143a5565b60405180910390fd5b505050565b60006125748473ffffffffffffffffffffffffffffffffffffffff1661175d565b156126cd578373ffffffffffffffffffffffffffffffffffffffff1663150b7a0261259d611a51565b8786866040518563ffffffff1660e01b81526004016125bf94939291906144db565b6020604051808303816000875af19250505080156125fb57506040513d601f19601f820116820180604052508101906125f8919061453c565b60015b61267d573d806000811461262b576040519150601f19603f3d011682016040523d82523d6000602084013e612630565b606091505b506000815103612675576040517f08c379a000000000000000000000000000000000000000000000000000000000815260040161266c906143a5565b60405180910390fd5b805181602001fd5b63150b7a0260e01b7bffffffffffffffffffffffffffffffffffffffffffffffffffffffff1916817bffffffffffffffffffffffffffffffffffffffffffffffffffffffff1916149150506126d2565b600190505b949350505050565b600080600090507a184f03e93ff9f4daa797ed6e38ed64bf6a1f0100000000000000008310612738577a184f03e93ff9f4daa797ed6e38ed64bf6a1f010000000000000000838161272e5761272d6143c5565b5b0492506040810190505b6d04ee2d6d415b85acef81000000008310612775576d04ee2d6d415b85acef8100000000838161276b5761276a6143c5565b5b0492506020810190505b662386f26fc1000083106127a457662386f26fc10000838161279a576127996143c5565b5b0492506010810190505b6305f5e10083106127cd576305f5e10083816127c3576127c26143c5565b5b0492506008810190505b61271083106127f25761271083816127e8576127e76143c5565b5b0492506004810190505b60648310612815576064838161280b5761280a6143c5565b5b0492506002810190505b600a8310612824576001810190505b80915050919050565b6008805490506009600083815260200190815260200160002081905550600881908060018154018082558091505060019003906000526020600020016000909190919091505550565b60006001612883846112bc565b61288d9190614103565b9050600060076000848152602001908152602001600020549050818114612972576000600660008673ffffffffffffffffffffffffffffffffffffffff1673ffffffffffffffffffffffffffffffffffffffff168152602001908152602001600020600084815260200190815260200160002054905080600660008773ffffffffffffffffffffffffffffffffffffffff1673ffffffffffffffffffffffffffffffffffffffff168152602001908152602001600020600084815260200190815260200160002081905550816007600083815260200190815260200160002081905550505b6007600084815260200190815260200160002060009055600660008573ffffffffffffffffffffffffffffffffffffffff1673ffffffffffffffffffffffffffffffffffffffff16815260200190815260200160002060008381526020019081526020016000206000905550505050565b600060016008805490506129f79190614103565b9050600060096000848152602001908152602001600020549050600060088381548110612a2757612a26613ab2565b5b906000526020600020015490508060088381548110612a4957612a48613ab2565b5b906000526020600020018190555081600960008381526020019081526020016000208190555060096000858152602001908152602001600020600090556008805480612a9857612a97614569565b5b6001900381819060005260206000200160009055905550505050565b6000612abf836112bc565b905081600660008573ffffffffffffffffffffffffffffffffffffffff1673ffffffffffffffffffffffffffffffffffffffff168152602001908152602001600020600083815260200190815260200160002081905550806007600084815260200190815260200160002081905550505050565b600073ffffffffffffffffffffffffffffffffffffffff168273ffffffffffffffffffffffffffffffffffffffff1603612ba2576040517f08c379a0000000000000000000000000000000000000000000000000000000008152600401612b99906145e4565b60405180910390fd5b612bab81612189565b15612beb576040517f08c379a0000000000000000000000000000000000000000000000000000000008152600401612be290614650565b60405180910390fd5b612bf9600083836001612394565b612c0281612189565b15612c42576040517f08c379a0000000000000000000000000000000000000000000000000000000008152600401612c3990614650565b60405180910390fd5b6001600360008473ffffffffffffffffffffffffffffffffffffffff1673ffffffffffffffffffffffffffffffffffffffff16815260200190815260200160002060008282540192505081905550816002600083815260200190815260200160002060006101000a81548173ffffffffffffffffffffffffffffffffffffffff021916908373ffffffffffffffffffffffffffffffffffffffff160217905550808273ffffffffffffffffffffffffffffffffffffffff16600073ffffffffffffffffffffffffffffffffffffffff167fddf252ad1be2c89b69c2b068fc378daa952ba7f163c4a11628f55a4df523b3ef60405160405180910390a4612d4c6000838360016124f2565b5050565b6000604051905090565b600080fd5b600080fd5b60007fffffffff0000000000000000000000000000000000000000000000000000000082169050919050565b612d9981612d64565b8114612da457600080fd5b50565b600081359050612db681612d90565b92915050565b600060208284031215612dd257612dd1612d5a565b5b6000612de084828501612da7565b91505092915050565b60008115159050919050565b612dfe81612de9565b82525050565b6000602082019050612e196000830184612df5565b92915050565b612e2881612de9565b8114612e3357600080fd5b50565b600081359050612e4581612e1f565b92915050565b600060208284031215612e6157612e60612d5a565b5b6000612e6f84828501612e36565b91505092915050565b600081519050919050565b600082825260208201905092915050565b60005b83811015612eb2578082015181840152602081019050612e97565b60008484015250505050565b6000601f19601f8301169050919050565b6000612eda82612e78565b612ee48185612e83565b9350612ef4818560208601612e94565b612efd81612ebe565b840191505092915050565b60006020820190508181036000830152612f228184612ecf565b905092915050565b6000819050919050565b612f3d81612f2a565b8114612f4857600080fd5b50565b600081359050612f5a81612f34565b92915050565b600060208284031215612f7657612f75612d5a565b5b6000612f8484828501612f4b565b91505092915050565b600073ffffffffffffffffffffffffffffffffffffffff82169050919050565b6000612fb882612f8d565b9050919050565b612fc881612fad565b82525050565b6000602082019050612fe36000830184612fbf565b92915050565b612ff281612fad565b8114612ffd57600080fd5b50565b60008135905061300f81612fe9565b92915050565b6000806040838503121561302c5761302b612d5a565b5b600061303a85828601613000565b925050602061304b85828601612f4b565b9150509250929050565b61305e81612f2a565b82525050565b60006020820190506130796000830184613055565b92915050565b60008060006060848603121561309857613097612d5a565b5b60006130a686828701613000565b93505060206130b786828701613000565b92505060406130c886828701612f4b565b9150509250925092565b6000602082840312156130e8576130e7612d5a565b5b60006130f684828501613000565b91505092915050565b600081519050919050565b600082825260208201905092915050565b6000819050602082019050919050565b61313481612f2a565b82525050565b6000613146838361312b565b60208301905092915050565b6000602082019050919050565b600061316a826130ff565b613174818561310a565b935061317f8361311b565b8060005b838110156131b0578151613197888261313a565b97506131a283613152565b925050600181019050613183565b5085935050505092915050565b600060208201905081810360008301526131d7818461315f565b905092915050565b600080fd5b600080fd5b7f4e487b7100000000000000000000000000000000000000000000000000000000600052604160045260246000fd5b61322182612ebe565b810181811067ffffffffffffffff821117156132405761323f6131e9565b5b80604052505050565b6000613253612d50565b905061325f8282613218565b919050565b600067ffffffffffffffff82111561327f5761327e6131e9565b5b61328882612ebe565b9050602081019050919050565b82818337600083830152505050565b60006132b76132b284613264565b613249565b9050828152602081018484840111156132d3576132d26131e4565b5b6132de848285613295565b509392505050565b600082601f8301126132fb576132fa6131df565b5b813561330b8482602086016132a4565b91505092915050565b60006020828403121561332a57613329612d5a565b5b600082013567ffffffffffffffff81111561334857613347612d5f565b5b613354848285016132e6565b91505092915050565b6000806040838503121561337457613373612d5a565b5b600061338285828601613000565b925050602061339385828601612e36565b9150509250929050565b600067ffffffffffffffff8211156133b8576133b76131e9565b5b6133c182612ebe565b9050602081019050919050565b60006133e16133dc8461339d565b613249565b9050828152602081018484840111156133fd576133fc6131e4565b5b613408848285613295565b509392505050565b600082601f830112613425576134246131df565b5b81356134358482602086016133ce565b91505092915050565b6000806000806080858703121561345857613457612d5a565b5b600061346687828801613000565b945050602061347787828801613000565b935050604061348887828801612f4b565b925050606085013567ffffffffffffffff8111156134a9576134a8612d5f565b5b6134b587828801613410565b91505092959194509250565b600080604083850312156134d8576134d7612d5a565b5b60006134e685828601613000565b92505060206134f785828601613000565b9150509250929050565b7f4e487b7100000000000000000000000000000000000000000000000000000000600052602260045260246000fd5b6000600282049050600182168061354857607f821691505b60208210810361355b5761355a613501565b5b50919050565b7f4552433732313a20617070726f76616c20746f2063757272656e74206f776e6560008201527f7200000000000000000000000000000000000000000000000000000000000000602082015250565b60006135bd602183612e83565b91506135c882613561565b604082019050919050565b600060208201905081810360008301526135ec816135b0565b9050919050565b7f4552433732313a20617070726f76652063616c6c6572206973206e6f7420746f60008201527f6b656e206f776e6572206f7220617070726f76656420666f7220616c6c000000602082015250565b600061364f603d83612e83565b915061365a826135f3565b604082019050919050565b6000602082019050818103600083015261367e81613642565b9050919050565b7f4552433732313a2063616c6c6572206973206e6f7420746f6b656e206f776e6560008201527f72206f7220617070726f76656400000000000000000000000000000000000000602082015250565b60006136e1602d83612e83565b91506136ec82613685565b604082019050919050565b60006020820190508181036000830152613710816136d4565b9050919050565b7f455243373231456e756d657261626c653a206f776e657220696e646578206f7560008201527f74206f6620626f756e6473000000000000000000000000000000000000000000602082015250565b6000613773602b83612e83565b915061377e82613717565b604082019050919050565b600060208201905081810360008301526137a281613766565b9050919050565b7f4d696e74696e67206e6f7420656e61626c656400000000000000000000000000600082015250565b60006137df601383612e83565b91506137ea826137a9565b602082019050919050565b6000602082019050818103600083015261380e816137d2565b9050919050565b7f496e76616c6964206d696e7420616d6f756e7400000000000000000000000000600082015250565b600061384b601383612e83565b915061385682613815565b602082019050919050565b6000602082019050818103600083015261387a8161383e565b9050919050565b7f457863656564206d617820616d6f756e74000000000000000000000000000000600082015250565b60006138b7601183612e83565b91506138c282613881565b602082019050919050565b600060208201905081810360008301526138e6816138aa565b9050919050565b7f4e487b7100000000000000000000000000000000000000000000000000000000600052601160045260246000fd5b600061392782612f2a565b915061393283612f2a565b925082820190508082111561394a576139496138ed565b5b92915050565b7f457863656564206d61782077616c6c6574000000000000000000000000000000600082015250565b6000613986601183612e83565b915061399182613950565b602082019050919050565b600060208201905081810360008301526139b581613979565b9050919050565b7f536f6c64206f7574000000000000000000000000000000000000000000000000600082015250565b60006139f2600883612e83565b91506139fd826139bc565b602082019050919050565b60006020820190508181036000830152613a21816139e5565b9050919050565b6000613a3382612f2a565b9150613a3e83612f2a565b9250828202613a4c81612f2a565b91508282048414831517613a6357613a626138ed565b5b5092915050565b6000613a7582612f2a565b91507fffffffffffffffffffffffffffffffffffffffffffffffffffffffffffffffff8203613aa757613aa66138ed565b5b600182019050919050565b7f4e487b7100000000000000000000000000000000000000000000000000000000600052603260045260246000fd5b7f455243373231456e756d657261626c653a20676c6f62616c20696e646578206f60008201527f7574206f6620626f756e64730000000000000000000000000000000000000000602082015250565b6000613b3d602c83612e83565b9150613b4882613ae1565b604082019050919050565b60006020820190508181036000830152613b6c81613b30565b9050919050565b60008190508160005260206000209050919050565b60006020601f8301049050919050565b600082821b905092915050565b600060088302613bd57fffffffffffffffffffffffffffffffffffffffffffffffffffffffffffffffff82613b98565b613bdf8683613b98565b95508019841693508086168417925050509392505050565b6000819050919050565b6000613c1c613c17613c1284612f2a565b613bf7565b612f2a565b9050919050565b6000819050919050565b613c3683613c01565b613c4a613c4282613c23565b848454613ba5565b825550505050565b600090565b613c5f613c52565b613c6a818484613c2d565b505050565b5b81811015613c8e57613c83600082613c57565b600181019050613c70565b5050565b601f821115613cd357613ca481613b73565b613cad84613b88565b81016020851015613cbc578190505b613cd0613cc885613b88565b830182613c6f565b50505b505050565b600082821c905092915050565b6000613cf660001984600802613cd8565b1980831691505092915050565b6000613d0f8383613ce5565b9150826002028217905092915050565b613d2882612e78565b67ffffffffffffffff811115613d4157613d406131e9565b5b613d4b8254613530565b613d56828285613c92565b600060209050601f831160018114613d895760008415613d77578287015190505b613d818582613d03565b865550613de9565b601f198416613d9786613b73565b60005b82811015613dbf57848901518255600182019150602085019450602081019050613d9a565b86831015613ddc5784890151613dd8601f891682613ce5565b8355505b6001600288020188555050505b505050505050565b7f4552433732313a20696e76616c696420746f6b656e2049440000000000000000600082015250565b6000613e27601883612e83565b9150613e3282613df1565b602082019050919050565b60006020820190508181036000830152613e5681613e1a565b9050919050565b7f4552433732313a2061646472657373207a65726f206973206e6f74206120766160008201527f6c6964206f776e65720000000000000000000000000000000000000000000000602082015250565b6000613eb9602983612e83565b9150613ec482613e5d565b604082019050919050565b60006020820190508181036000830152613ee881613eac565b9050919050565b7f4552433732314d657461646174613a2055524920717565727920666f72206e6f60008201527f6e6578697374656e7420746f6b656e0000000000000000000000000000000000602082015250565b6000613f4b602f83612e83565b9150613f5682613eef565b604082019050919050565b60006020820190508181036000830152613f7a81613f3e565b9050919050565b600081905092915050565b6000613f9782612e78565b613fa18185613f81565b9350613fb1818560208601612e94565b80840191505092915050565b60008154613fca81613530565b613fd48186613f81565b94506001821660008114613fef576001811461400457614037565b60ff1983168652811515820286019350614037565b61400d85613b73565b60005b8381101561402f57815481890152600182019150602081019050614010565b838801955050505b50505092915050565b600061404c8286613f8c565b91506140588285613f8c565b91506140648284613fbd565b9150819050949350505050565b7f4f776e61626c653a206e6577206f776e657220697320746865207a65726f206160008201527f6464726573730000000000000000000000000000000000000000000000000000602082015250565b60006140cd602683612e83565b91506140d882614071565b604082019050919050565b600060208201905081810360008301526140fc816140c0565b9050919050565b600061410e82612f2a565b915061411983612f2a565b9250828203905081811115614131576141306138ed565b5b92915050565b7f4f776e61626c653a2063616c6c6572206973206e6f7420746865206f776e6572600082015250565b600061416d602083612e83565b915061417882614137565b602082019050919050565b6000602082019050818103600083015261419c81614160565b9050919050565b7f4552433732313a207472616e736665722066726f6d20696e636f72726563742060008201527f6f776e6572000000000000000000000000000000000000000000000000000000602082015250565b60006141ff602583612e83565b915061420a826141a3565b604082019050919050565b6000602082019050818103600083015261422e816141f2565b9050919050565b7f4552433732313a207472616e7366657220746f20746865207a65726f2061646460008201527f7265737300000000000000000000000000000000000000000000000000000000602082015250565b6000614291602483612e83565b915061429c82614235565b604082019050919050565b600060208201905081810360008301526142c081614284565b9050919050565b7f4552433732313a20617070726f766520746f2063616c6c657200000000000000600082015250565b60006142fd601983612e83565b9150614308826142c7565b602082019050919050565b6000602082019050818103600083015261432c816142f0565b9050919050565b7f4552433732313a207472616e7366657220746f206e6f6e20455243373231526560008201527f63656976657220696d706c656d656e7465720000000000000000000000000000602082015250565b600061438f603283612e83565b915061439a82614333565b604082019050919050565b600060208201905081810360008301526143be81614382565b9050919050565b7f4e487b7100000000000000000000000000000000000000000000000000000000600052601260045260246000fd5b7f455243373231456e756d657261626c653a20636f6e736563757469766520747260008201527f616e7366657273206e6f7420737570706f727465640000000000000000000000602082015250565b6000614450603583612e83565b915061445b826143f4565b604082019050919050565b6000602082019050818103600083015261447f81614443565b9050919050565b600081519050919050565b600082825260208201905092915050565b60006144ad82614486565b6144b78185614491565b93506144c7818560208601612e94565b6144d081612ebe565b840191505092915050565b60006080820190506144f06000830187612fbf565b6144fd6020830186612fbf565b61450a6040830185613055565b818103606083015261451c81846144a2565b905095945050505050565b60008151905061453681612d90565b92915050565b60006020828403121561455257614551612d5a565b5b600061456084828501614527565b91505092915050565b7f4e487b7100000000000000000000000000000000000000000000000000000000600052603160045260246000fd5b7f4552433732313a206d696e7420746f20746865207a65726f2061646472657373600082015250565b60006145ce602083612e83565b91506145d982614598565b602082019050919050565b600060208201905081810360008301526145fd816145c1565b9050919050565b7f4552433732313a20746f6b656e20616c7265616479206d696e74656400000000600082015250565b600061463a601c83612e83565b915061464582614604565b602082019050919050565b600060208201905081810360008301526146698161462d565b905091905056fea2646970667358221220c069b6b693a2c8d876b51e86ed92be48a941d2ffe3b541814834502850124b9a64736f6c63430008110033",
  "linkReferences": {},
  "deployedLinkReferences": {}
}